{
  "contractName": "DistributorRole",
  "abi": [
    {
      "inputs": [],
      "stateMutability": "nonpayable",
      "type": "constructor"
    },
    {
      "anonymous": false,
      "inputs": [
        {
          "indexed": true,
          "internalType": "address",
          "name": "account",
          "type": "address"
        }
      ],
      "name": "DistributorAdded",
      "type": "event"
    },
    {
      "anonymous": false,
      "inputs": [
        {
          "indexed": true,
          "internalType": "address",
          "name": "account",
          "type": "address"
        }
      ],
      "name": "DistributorRemoved",
      "type": "event"
    },
    {
      "inputs": [
        {
          "internalType": "string",
          "name": "name",
          "type": "string"
        }
      ],
      "name": "getDistributorId",
      "outputs": [
        {
          "internalType": "address",
          "name": "",
          "type": "address"
        }
      ],
      "stateMutability": "view",
      "type": "function"
    },
    {
      "inputs": [
        {
          "internalType": "address",
          "name": "account",
          "type": "address"
        }
      ],
      "name": "isDistributor",
      "outputs": [
        {
          "internalType": "bool",
          "name": "",
          "type": "bool"
        }
      ],
      "stateMutability": "view",
      "type": "function"
    },
    {
      "inputs": [
        {
          "internalType": "string",
          "name": "userName",
          "type": "string"
        }
      ],
      "name": "isDistributorViaName",
      "outputs": [
        {
          "internalType": "bool",
          "name": "",
          "type": "bool"
        }
      ],
      "stateMutability": "view",
      "type": "function"
    },
    {
      "inputs": [
        {
          "internalType": "address",
          "name": "account",
          "type": "address"
        },
        {
          "internalType": "string",
          "name": "name",
          "type": "string"
        },
        {
          "internalType": "string",
          "name": "password",
          "type": "string"
        }
      ],
      "name": "addDistributor",
      "outputs": [],
      "stateMutability": "nonpayable",
      "type": "function"
    },
    {
      "inputs": [],
      "name": "renounceDistributor",
      "outputs": [],
      "stateMutability": "nonpayable",
      "type": "function"
    },
    {
      "inputs": [
        {
          "internalType": "string",
          "name": "userName",
          "type": "string"
        },
        {
          "internalType": "string",
          "name": "password",
          "type": "string"
        }
      ],
      "name": "loginDistributor",
      "outputs": [
        {
          "internalType": "address",
          "name": "",
          "type": "address"
        }
      ],
      "stateMutability": "view",
      "type": "function"
    }
  ],
  "bytecode": "0x608060405234801561001057600080fd5b5061118a806100206000396000f3fe608060405234801561001057600080fd5b50600436106100625760003560e01c80631f0cb736146100675780632a4af4401461016257806351b97b2e146102d4578063644241db146103a7578063849dda68146103b15780638f0c86fa14610543575b600080fd5b6101206004803603602081101561007d57600080fd5b810190808035906020019064010000000081111561009a57600080fd5b8201836020820111156100ac57600080fd5b803590602001918460018302840111640100000000831117156100ce57600080fd5b91908080601f016020809104026020016040519081016040528093929190818152602001838380828437600081840152601f19601f82011690508083019250505050505050919291929050505061059f565b604051808273ffffffffffffffffffffffffffffffffffffffff1673ffffffffffffffffffffffffffffffffffffffff16815260200191505060405180910390f35b6102d26004803603606081101561017857600080fd5b81019080803573ffffffffffffffffffffffffffffffffffffffff169060200190929190803590602001906401000000008111156101b557600080fd5b8201836020820111156101c757600080fd5b803590602001918460018302840111640100000000831117156101e957600080fd5b91908080601f016020809104026020016040519081016040528093929190818152602001838380828437600081840152601f19601f8201169050808301925050505050505091929192908035906020019064010000000081111561024c57600080fd5b82018360208201111561025e57600080fd5b8035906020019184600183028401116401000000008311171561028057600080fd5b91908080601f016020809104026020016040519081016040528093929190818152602001838380828437600081840152601f19601f820116905080830192505050505050509192919290505050610637565b005b61038d600480360360208110156102ea57600080fd5b810190808035906020019064010000000081111561030757600080fd5b82018360208201111561031957600080fd5b8035906020019184600183028401116401000000008311171561033b57600080fd5b91908080601f016020809104026020016040519081016040528093929190818152602001838380828437600081840152601f19601f820116905080830192505050505050509192919290505050610647565b604051808215151515815260200191505060405180910390f35b6103af6106d4565b005b610501600480360360408110156103c757600080fd5b81019080803590602001906401000000008111156103e457600080fd5b8201836020820111156103f657600080fd5b8035906020019184600183028401116401000000008311171561041857600080fd5b91908080601f016020809104026020016040519081016040528093929190818152602001838380828437600081840152601f19601f8201169050808301925050505050505091929192908035906020019064010000000081111561047b57600080fd5b82018360208201111561048d57600080fd5b803590602001918460018302840111640100000000831117156104af57600080fd5b91908080601f016020809104026020016040519081016040528093929190818152602001838380828437600081840152601f19601f8201169050808301925050505050505091929192905050506106df565b604051808273ffffffffffffffffffffffffffffffffffffffff1673ffffffffffffffffffffffffffffffffffffffff16815260200191505060405180910390f35b6105856004803603602081101561055957600080fd5b81019080803573ffffffffffffffffffffffffffffffffffffffff1690602001909291905050506106ff565b604051808215151515815260200191505060405180910390f35b600080600101826040518082805190602001908083835b602083106105d957805182526020820191506020810190506020830392506105b6565b6001836020036101000a038019825116818451168082178552505050505050905001915050908152602001604051809103902060010160009054906101000a900473ffffffffffffffffffffffffffffffffffffffff169050919050565b61064283838361071c565b505050565b6000600115156000600101836040518082805190602001908083835b602083106106865780518252602082019150602081019050602083039250610663565b6001836020036101000a038019825116818451168082178552505050505050905001915050908152602001604051809103902060010160149054906101000a900460ff161515149050919050565b6106dd3361077c565b565b60006106f7838360006107d69092919063ffffffff16565b905092915050565b6000610715826000610af090919063ffffffff16565b9050919050565b6107348383836000610beb909392919063ffffffff16565b8273ffffffffffffffffffffffffffffffffffffffff167fddbf200aa634dc3fb81cfd68583dd1040d1c751d335e1d86b631bde3e977fea860405160405180910390a2505050565b610790816000610f0590919063ffffffff16565b8073ffffffffffffffffffffffffffffffffffffffff167f126174f6cf49c81cdb4a9214c6b8f037bef55b4ec31e4fc776cea2a1c8a88d5960405160405180910390a250565b60006001151584600101846040518082805190602001908083835b6020831061081457805182526020820191506020810190506020830392506107f1565b6001836020036101000a038019825116818451168082178552505050505050905001915050908152602001604051809103902060010160149054906101000a900460ff161515148015610a49575073__StringUtils___________________________6346bdca9a85600101856040518082805190602001908083835b602083106108b45780518252602082019150602081019050602083039250610891565b6001836020036101000a0380198251168184511680821785525050505050509050019150509081526020016040518091039020600001846040518363ffffffff1660e01b81526004018080602001806020018381038352858181546001816001161561010002031660029004815260200191508054600181600116156101000203166002900480156109875780601f1061095c57610100808354040283529160200191610987565b820191906000526020600020905b81548152906001019060200180831161096a57829003601f168201915b5050838103825284818151815260200191508051906020019080838360005b838110156109c15780820151818401526020810190506109a6565b50505050905090810190601f1680156109ee5780820380516001836020036101000a031916815260200191505b5094505050505060206040518083038186803b158015610a0d57600080fd5b505af4158015610a21573d6000803e3d6000fd5b505050506040513d6020811015610a3757600080fd5b81019080805190602001909291905050505b15610ae45783600101836040518082805190602001908083835b60208310610a865780518252602082019150602081019050602083039250610a63565b6001836020036101000a038019825116818451168082178552505050505050905001915050908152602001604051809103902060010160009054906101000a900473ffffffffffffffffffffffffffffffffffffffff169050610ae9565b600090505b9392505050565b60008073ffffffffffffffffffffffffffffffffffffffff168273ffffffffffffffffffffffffffffffffffffffff161415610b94576040517f08c379a000000000000000000000000000000000000000000000000000000000815260040180806020018281038252601e8152602001807f416464726573732063616e6e6f74206265207a65726f2061646472657373000081525060200191505060405180910390fd5b8260000160008373ffffffffffffffffffffffffffffffffffffffff1673ffffffffffffffffffffffffffffffffffffffff16815260200190815260200160002060009054906101000a900460ff16905092915050565b600073ffffffffffffffffffffffffffffffffffffffff168373ffffffffffffffffffffffffffffffffffffffff161415610c8e576040517f08c379a000000000000000000000000000000000000000000000000000000000815260040180806020018281038252601e8152602001807f416464726573732063616e6e6f74206265207a65726f2061646472657373000081525060200191505060405180910390fd5b610c988484610af0565b15610cee576040517f08c379a000000000000000000000000000000000000000000000000000000000815260040180806020018281038252602281526020018061110b6022913960400191505060405180910390fd5b60018460000160008573ffffffffffffffffffffffffffffffffffffffff1673ffffffffffffffffffffffffffffffffffffffff16815260200190815260200160002060006101000a81548160ff0219169083151502179055508284600101836040518082805190602001908083835b60208310610d815780518252602082019150602081019050602083039250610d5e565b6001836020036101000a038019825116818451168082178552505050505050905001915050908152602001604051809103902060010160006101000a81548173ffffffffffffffffffffffffffffffffffffffff021916908373ffffffffffffffffffffffffffffffffffffffff1602179055508084600101836040518082805190602001908083835b60208310610e2e5780518252602082019150602081019050602083039250610e0b565b6001836020036101000a03801982511681845116808217855250505050505090500191505090815260200160405180910390206000019080519060200190610e77929190611065565b50600184600101836040518082805190602001908083835b60208310610eb25780518252602082019150602081019050602083039250610e8f565b6001836020036101000a038019825116818451168082178552505050505050905001915050908152602001604051809103902060010160146101000a81548160ff02191690831515021790555050505050565b600073ffffffffffffffffffffffffffffffffffffffff168173ffffffffffffffffffffffffffffffffffffffff161415610fa8576040517f08c379a000000000000000000000000000000000000000000000000000000000815260040180806020018281038252601e8152602001807f416464726573732063616e6e6f74206265207a65726f2061646472657373000081525060200191505060405180910390fd5b610fb28282610af0565b611007576040517f08c379a000000000000000000000000000000000000000000000000000000000815260040180806020018281038252602881526020018061112d6028913960400191505060405180910390fd5b60008260000160008373ffffffffffffffffffffffffffffffffffffffff1673ffffffffffffffffffffffffffffffffffffffff16815260200190815260200160002060006101000a81548160ff0219169083151502179055505050565b828054600181600116156101000203166002900490600052602060002090601f016020900481019282601f106110a657805160ff19168380011785556110d4565b828001600101855582156110d4579182015b828111156110d35782518255916020019190600101906110b8565b5b5090506110e191906110e5565b5090565b61110791905b808211156111035760008160009055506001016110eb565b5090565b9056fe54686973206164647265737320616c726561647920686173207468697320726f6c6554686973206164647265737320646f6573206e6f742068617665207468697320726f6c6520796574a2646970667358221220af14bcff6cc7edd42add5999e8a6bf06d2b82213e3dff2b6813cd172adf03ba864736f6c63430006000033",
  "source": "pragma solidity >=0.4.22 <0.9.0;\n\nimport \"./Roles.sol\";\n\ncontract DistributorRole {\n\n    using Roles for Roles.Role;\n\n    event DistributorAdded(address indexed account);\n    event DistributorRemoved(address indexed account);\n\n    Roles.Role private distributors;\n\n    constructor() public {\n        //    _addDistributor(msg.sender);\n    }\n\n\n    modifier onlyDistributor() {\n        require(distributors.has(msg.sender), \"This account has no Distributor Role\");\n        _;\n    }\n\n    function getDistributorId(string memory name) public view returns (address) {\n        return distributors.nameToAccountAndPasswordMapping[name].id;\n    }\n\n    function isDistributor(address account) public view returns (bool) {\n        return distributors.has(account);\n    }\n\n    function isDistributorViaName(string memory userName) public view returns (bool) {\n        return distributors.nameToAccountAndPasswordMapping[userName].isUserVerified == true;\n    }\n\n    function addDistributor(address account, string memory name, string memory password) public {\n        _addDistributor(account, name, password);\n    }\n\n    function renounceDistributor() public {\n        _removeDistributor(msg.sender);\n    }\n\n    function _addDistributor(address account, string memory name, string memory password) internal {\n        distributors.add(account, name, password);\n        emit DistributorAdded(account);\n    }\n\n    function loginDistributor(string memory userName, string memory password) public view returns (address){\n        return distributors.login(userName, password);\n    }\n\n    function _removeDistributor(address account) internal {\n        distributors.remove(account);\n        emit DistributorRemoved(account);\n    }\n}",
  "sourcePath": "/mnt/c/asus-files/uci/quarter2/capstone/blockchain/react-blockchain/contracts/accessControl/DistributorRole.sol",
  "compiler": {
    "name": "solc",
    "version": "0.6.0+commit.26b70077.Emscripten.clang"
  },
  "schemaVersion": "3.4.7",
  "updatedAt": "2022-06-09T01:47:42.973Z",
  "devdoc": {
    "methods": {}
  },
  "userdoc": {
    "methods": {}
  }
}