{
  "contractName": "ManufacturerRole",
  "abi": [
    {
      "inputs": [],
      "payable": false,
      "stateMutability": "nonpayable",
      "type": "constructor"
    },
    {
      "anonymous": false,
      "inputs": [
        {
          "indexed": true,
          "internalType": "string",
          "name": "name",
          "type": "string"
        }
      ],
      "name": "DistributorRemembered",
      "type": "event"
    },
    {
      "anonymous": false,
      "inputs": [
        {
          "indexed": true,
          "internalType": "address",
          "name": "account",
          "type": "address"
        }
      ],
      "name": "ManufacturerAdded",
      "type": "event"
    },
    {
      "anonymous": false,
      "inputs": [
        {
          "indexed": true,
          "internalType": "address",
          "name": "account",
          "type": "address"
        }
      ],
      "name": "ManufacturerRemoved",
      "type": "event"
    },
    {
      "constant": true,
      "inputs": [
        {
          "internalType": "address",
          "name": "account",
          "type": "address"
        }
      ],
      "name": "isManufacturer",
      "outputs": [
        {
          "internalType": "bool",
          "name": "",
          "type": "bool"
        }
      ],
      "payable": false,
      "stateMutability": "view",
      "type": "function"
    },
    {
      "constant": true,
      "inputs": [
        {
          "internalType": "string",
          "name": "userName",
          "type": "string"
        }
      ],
      "name": "isManufacturerViaName",
      "outputs": [
        {
          "internalType": "bool",
          "name": "",
          "type": "bool"
        }
      ],
      "payable": false,
      "stateMutability": "view",
      "type": "function"
    },
    {
      "constant": false,
      "inputs": [
        {
          "internalType": "address",
          "name": "account",
          "type": "address"
        },
        {
          "internalType": "string",
          "name": "name",
          "type": "string"
        },
        {
          "internalType": "string",
          "name": "password",
          "type": "string"
        }
      ],
      "name": "addManufacturer",
      "outputs": [],
      "payable": false,
      "stateMutability": "nonpayable",
      "type": "function"
    },
    {
      "constant": false,
      "inputs": [
        {
          "internalType": "string",
          "name": "name",
          "type": "string"
        },
        {
          "internalType": "address",
          "name": "dist",
          "type": "address"
        }
      ],
      "name": "addDistAddress",
      "outputs": [],
      "payable": false,
      "stateMutability": "nonpayable",
      "type": "function"
    },
    {
      "constant": true,
      "inputs": [
        {
          "internalType": "string",
          "name": "name",
          "type": "string"
        }
      ],
      "name": "getDistAddresses",
      "outputs": [
        {
          "internalType": "address[]",
          "name": "",
          "type": "address[]"
        }
      ],
      "payable": false,
      "stateMutability": "view",
      "type": "function"
    },
    {
      "constant": true,
      "inputs": [
        {
          "internalType": "string",
          "name": "userName",
          "type": "string"
        },
        {
          "internalType": "string",
          "name": "password",
          "type": "string"
        }
      ],
      "name": "loginManufacturer",
      "outputs": [
        {
          "internalType": "address",
          "name": "",
          "type": "address"
        }
      ],
      "payable": false,
      "stateMutability": "view",
      "type": "function"
    },
    {
      "constant": false,
      "inputs": [],
      "name": "renounceManufacturer",
      "outputs": [],
      "payable": false,
      "stateMutability": "nonpayable",
      "type": "function"
    }
  ],
  "bytecode": "0x608060405234801561001057600080fd5b506114ae806100206000396000f3fe608060405234801561001057600080fd5b506004361061007d5760003560e01c80633c6f758d1161005b5780633c6f758d146102c15780636a992c9f14610453578063de07f34e146105c5578063f3d7aebc146105cf5761007d565b806312c51ebb1461008257806317d4a4911461019257806325f01162146101ee575b600080fd5b61013b6004803603602081101561009857600080fd5b81019080803590602001906401000000008111156100b557600080fd5b8201836020820111156100c757600080fd5b803590602001918460018302840111640100000000831117156100e957600080fd5b91908080601f016020809104026020016040519081016040528093929190818152602001838380828437600081840152601f19601f8201169050808301925050505050505091929192905050506106aa565b6040518080602001828103825283818151815260200191508051906020019060200280838360005b8381101561017e578082015181840152602081019050610163565b505050509050019250505060405180910390f35b6101d4600480360360208110156101a857600080fd5b81019080803573ffffffffffffffffffffffffffffffffffffffff1690602001909291905050506106bc565b604051808215151515815260200191505060405180910390f35b6102a76004803603602081101561020457600080fd5b810190808035906020019064010000000081111561022157600080fd5b82018360208201111561023357600080fd5b8035906020019184600183028401116401000000008311171561025557600080fd5b91908080601f016020809104026020016040519081016040528093929190818152602001838380828437600081840152601f19601f8201169050808301925050505050505091929192905050506106d9565b604051808215151515815260200191505060405180910390f35b610411600480360360408110156102d757600080fd5b81019080803590602001906401000000008111156102f457600080fd5b82018360208201111561030657600080fd5b8035906020019184600183028401116401000000008311171561032857600080fd5b91908080601f016020809104026020016040519081016040528093929190818152602001838380828437600081840152601f19601f8201169050808301925050505050505091929192908035906020019064010000000081111561038b57600080fd5b82018360208201111561039d57600080fd5b803590602001918460018302840111640100000000831117156103bf57600080fd5b91908080601f016020809104026020016040519081016040528093929190818152602001838380828437600081840152601f19601f820116905080830192505050505050509192919290505050610766565b604051808273ffffffffffffffffffffffffffffffffffffffff1673ffffffffffffffffffffffffffffffffffffffff16815260200191505060405180910390f35b6105c36004803603606081101561046957600080fd5b81019080803573ffffffffffffffffffffffffffffffffffffffff169060200190929190803590602001906401000000008111156104a657600080fd5b8201836020820111156104b857600080fd5b803590602001918460018302840111640100000000831117156104da57600080fd5b91908080601f016020809104026020016040519081016040528093929190818152602001838380828437600081840152601f19601f8201169050808301925050505050505091929192908035906020019064010000000081111561053d57600080fd5b82018360208201111561054f57600080fd5b8035906020019184600183028401116401000000008311171561057157600080fd5b91908080601f016020809104026020016040519081016040528093929190818152602001838380828437600081840152601f19601f820116905080830192505050505050509192919290505050610786565b005b6105cd610796565b005b6106a8600480360360408110156105e557600080fd5b810190808035906020019064010000000081111561060257600080fd5b82018360208201111561061457600080fd5b8035906020019184600183028401116401000000008311171561063657600080fd5b91908080601f016020809104026020016040519081016040528093929190818152602001838380828437600081840152601f19601f820116905080830192505050505050509192919290803573ffffffffffffffffffffffffffffffffffffffff1690602001909291905050506107a1565b005b60606106b5826107af565b9050919050565b60006106d28260006107cc90919063ffffffff16565b9050919050565b6000600115156000600101836040518082805190602001908083835b6020831061071857805182526020820191506020810190506020830392506106f5565b6001836020036101000a038019825116818451168082178552505050505050905001915050908152602001604051809103902060010160149054906101000a900460ff161515149050919050565b600061077e838360006108c79092919063ffffffff16565b905092915050565b610791838383610be1565b505050565b61079f33610c41565b565b6107ab8282610c9b565b5050565b60606107c5826000610d4290919063ffffffff16565b9050919050565b60008073ffffffffffffffffffffffffffffffffffffffff168273ffffffffffffffffffffffffffffffffffffffff161415610870576040517f08c379a000000000000000000000000000000000000000000000000000000000815260040180806020018281038252601e8152602001807f416464726573732063616e6e6f74206265207a65726f2061646472657373000081525060200191505060405180910390fd5b8260000160008373ffffffffffffffffffffffffffffffffffffffff1673ffffffffffffffffffffffffffffffffffffffff16815260200190815260200160002060009054906101000a900460ff16905092915050565b60006001151584600101846040518082805190602001908083835b6020831061090557805182526020820191506020810190506020830392506108e2565b6001836020036101000a038019825116818451168082178552505050505050905001915050908152602001604051809103902060010160149054906101000a900460ff161515148015610b3a575073__StringUtils___________________________6346bdca9a85600101856040518082805190602001908083835b602083106109a55780518252602082019150602081019050602083039250610982565b6001836020036101000a0380198251168184511680821785525050505050509050019150509081526020016040518091039020600001846040518363ffffffff1660e01b8152600401808060200180602001838103835285818154600181600116156101000203166002900481526020019150805460018160011615610100020316600290048015610a785780601f10610a4d57610100808354040283529160200191610a78565b820191906000526020600020905b815481529060010190602001808311610a5b57829003601f168201915b5050838103825284818151815260200191508051906020019080838360005b83811015610ab2578082015181840152602081019050610a97565b50505050905090810190601f168015610adf5780820380516001836020036101000a031916815260200191505b5094505050505060206040518083038186803b158015610afe57600080fd5b505af4158015610b12573d6000803e3d6000fd5b505050506040513d6020811015610b2857600080fd5b81019080805190602001909291905050505b15610bd55783600101836040518082805190602001908083835b60208310610b775780518252602082019150602081019050602083039250610b54565b6001836020036101000a038019825116818451168082178552505050505050905001915050908152602001604051809103902060010160009054906101000a900473ffffffffffffffffffffffffffffffffffffffff169050610bda565b600090505b9392505050565b610bf98383836000610e3c909392919063ffffffff16565b8273ffffffffffffffffffffffffffffffffffffffff167f561138658ca49a8540dc70dcfe64c9026c1c5b9344642242dd6562970f9c127860405160405180910390a2505050565b610c5581600061115690919063ffffffff16565b8073ffffffffffffffffffffffffffffffffffffffff167f2fed5abf6a80d6dfe30b4895481b2fc5d7dce5f8f7b931832f4a2947d5040c7f60405160405180910390a250565b610cb1828260006112b69092919063ffffffff16565b816040518082805190602001908083835b60208310610ce55780518252602082019150602081019050602083039250610cc2565b6001836020036101000a03801982511681845116808217855250505050505090500191505060405180910390207fc396018409741c1f8cfa326dff36bb9406128c9cedbca8d19427f369c2a3b00460405160405180910390a25050565b606082600201826040518082805190602001908083835b60208310610d7c5780518252602082019150602081019050602083039250610d59565b6001836020036101000a0380198251168184511680821785525050505050509050019150509081526020016040518091039020805480602002602001604051908101604052809291908181526020018280548015610e2f57602002820191906000526020600020905b8160009054906101000a900473ffffffffffffffffffffffffffffffffffffffff1673ffffffffffffffffffffffffffffffffffffffff1681526020019060010190808311610de5575b5050505050905092915050565b600073ffffffffffffffffffffffffffffffffffffffff168373ffffffffffffffffffffffffffffffffffffffff161415610edf576040517f08c379a000000000000000000000000000000000000000000000000000000000815260040180806020018281038252601e8152602001807f416464726573732063616e6e6f74206265207a65726f2061646472657373000081525060200191505060405180910390fd5b610ee984846107cc565b15610f3f576040517f08c379a00000000000000000000000000000000000000000000000000000000081526004018080602001828103825260228152602001806114306022913960400191505060405180910390fd5b60018460000160008573ffffffffffffffffffffffffffffffffffffffff1673ffffffffffffffffffffffffffffffffffffffff16815260200190815260200160002060006101000a81548160ff0219169083151502179055508284600101836040518082805190602001908083835b60208310610fd25780518252602082019150602081019050602083039250610faf565b6001836020036101000a038019825116818451168082178552505050505050905001915050908152602001604051809103902060010160006101000a81548173ffffffffffffffffffffffffffffffffffffffff021916908373ffffffffffffffffffffffffffffffffffffffff1602179055508084600101836040518082805190602001908083835b6020831061107f578051825260208201915060208101905060208303925061105c565b6001836020036101000a038019825116818451168082178552505050505050905001915050908152602001604051809103902060000190805190602001906110c892919061138a565b50600184600101836040518082805190602001908083835b6020831061110357805182526020820191506020810190506020830392506110e0565b6001836020036101000a038019825116818451168082178552505050505050905001915050908152602001604051809103902060010160146101000a81548160ff02191690831515021790555050505050565b600073ffffffffffffffffffffffffffffffffffffffff168173ffffffffffffffffffffffffffffffffffffffff1614156111f9576040517f08c379a000000000000000000000000000000000000000000000000000000000815260040180806020018281038252601e8152602001807f416464726573732063616e6e6f74206265207a65726f2061646472657373000081525060200191505060405180910390fd5b61120382826107cc565b611258576040517f08c379a00000000000000000000000000000000000000000000000000000000081526004018080602001828103825260288152602001806114526028913960400191505060405180910390fd5b60008260000160008373ffffffffffffffffffffffffffffffffffffffff1673ffffffffffffffffffffffffffffffffffffffff16815260200190815260200160002060006101000a81548160ff0219169083151502179055505050565b82600201826040518082805190602001908083835b602083106112ee57805182526020820191506020810190506020830392506112cb565b6001836020036101000a03801982511681845116808217855250505050505090500191505090815260200160405180910390208190806001815401808255809150509060018203906000526020600020016000909192909190916101000a81548173ffffffffffffffffffffffffffffffffffffffff021916908373ffffffffffffffffffffffffffffffffffffffff16021790555050505050565b828054600181600116156101000203166002900490600052602060002090601f016020900481019282601f106113cb57805160ff19168380011785556113f9565b828001600101855582156113f9579182015b828111156113f85782518255916020019190600101906113dd565b5b509050611406919061140a565b5090565b61142c91905b80821115611428576000816000905550600101611410565b5090565b9056fe54686973206164647265737320616c726561647920686173207468697320726f6c6554686973206164647265737320646f6573206e6f742068617665207468697320726f6c6520796574a265627a7a72315820d0595229c342e2b6aa8433dd496a77f6049484d9ee96b7207410361084a43d2764736f6c63430005100032",
  "source": "pragma solidity >=0.4.22 <0.9.0;\r\n\r\n// Import the library 'Roles'\r\nimport \"./Roles.sol\";\r\n\r\n// Define a contract 'ManufacturerRole' to manage this role - add, remove, check\r\ncontract ManufacturerRole {\r\n\r\n  using Roles for Roles.Role;\r\n\r\n  // Define 2 events, one for Adding, and other for Removing\r\n  event ManufacturerAdded(address indexed account);\r\n  event ManufacturerRemoved(address indexed account);\r\n  event DistributorRemembered(string indexed name);\r\n\r\n  // Define a struct 'Manufacturers' by inheriting from 'Roles' library, struct Role\r\n  Roles.Role private manufacturers;\r\n\r\n  // In the constructor make the address that deploys this contract the 1st Manufacturer\r\n  constructor() public {\r\n    // The first Manufacturer will be the person deploying this contract\r\n//    _addManufacturer(msg.sender);\r\n  }\r\n\r\n  // Define a modifier that checks to see if msg.sender has the appropriate role\r\n  modifier onlyManufacturer() {\r\n      require(manufacturers.has(msg.sender), \"This account has no Manufacturer Role\");\r\n    _;\r\n  }\r\n\r\n  // Define a function 'isManufacturer' to check this role\r\n  function isManufacturer(address account) public view returns (bool) {\r\n       return manufacturers.has(account);\r\n  }\r\n\r\n  function isManufacturerViaName(string memory userName) public view returns (bool) {\r\n    return manufacturers.nameToAccountAndPasswordMapping[userName].isUserVerified == true;\r\n  }\r\n\r\n  // Define a function 'addManufacturer' that adds this role\r\n  function addManufacturer(address account, string memory name, string memory password) public {\r\n      _addManufacturer(account, name, password);\r\n  }\r\n\r\n  function addDistAddress(string memory name, address dist) public {\r\n    _addDistAddress(name, dist);\r\n  }\r\n\r\n  function getDistAddresses(string memory name) public view returns (address[] memory) {\r\n    return _getDistAddresses(name);\r\n  }\r\n\r\n  function loginManufacturer(string memory userName, string memory password) public view returns (address){\r\n    return manufacturers.login(userName, password);\r\n  }\r\n  // Define a function 'renounceManufacturer' to renounce this role\r\n  function renounceManufacturer() public {\r\n    _removeManufacturer(msg.sender);\r\n  }\r\n\r\n  // Define an internal function '_addManufacturer' to add this role, called by 'addManufacturer'\r\n  function _addManufacturer(address account, string memory name, string memory password) internal {\r\n    manufacturers.add(account, name, password);\r\n    emit ManufacturerAdded(account);\r\n  }\r\n\r\n  // Define an internal function '_removeManufacturer' to remove this role, called by 'removeManufacturer'\r\n  function _removeManufacturer(address account) internal {\r\n    manufacturers.remove(account);\r\n    emit ManufacturerRemoved(account);\r\n  }\r\n\r\n  function _addDistAddress(string memory name, address dist) internal {\r\n    manufacturers.addNewAddress(name, dist);\r\n    emit DistributorRemembered(name);\r\n  }\r\n\r\n  function _getDistAddresses(string memory name) internal view returns (address[] memory) {\r\n    return manufacturers.getAddress(name);\r\n  }\r\n}",
  "sourcePath": "C:\\Users\\micha\\GitHub\\React\\contracts\\accessControl\\ManufacturerRole.sol",
  "compiler": {
    "name": "solc",
    "version": "0.5.16+commit.9c3226ce.Emscripten.clang"
  },
  "schemaVersion": "3.4.7",
  "updatedAt": "2022-06-01T01:59:09.782Z",
  "devdoc": {
    "methods": {}
  },
  "userdoc": {
    "methods": {}
  }
}