{
  "contractName": "ManufacturerRole",
  "abi": [
    {
      "inputs": [],
      "payable": false,
      "stateMutability": "nonpayable",
      "type": "constructor"
    },
    {
      "anonymous": false,
      "inputs": [
        {
          "indexed": true,
          "internalType": "address",
          "name": "account",
          "type": "address"
        }
      ],
      "name": "ManufacturerAdded",
      "type": "event"
    },
    {
      "anonymous": false,
      "inputs": [
        {
          "indexed": true,
          "internalType": "address",
          "name": "account",
          "type": "address"
        }
      ],
      "name": "ManufacturerRemoved",
      "type": "event"
    },
    {
      "constant": true,
      "inputs": [
        {
          "internalType": "address",
          "name": "account",
          "type": "address"
        }
      ],
      "name": "isManufacturer",
      "outputs": [
        {
          "internalType": "bool",
          "name": "",
          "type": "bool"
        }
      ],
      "payable": false,
      "stateMutability": "view",
      "type": "function"
    },
    {
      "constant": false,
      "inputs": [
        {
          "internalType": "address",
          "name": "account",
          "type": "address"
        }
      ],
      "name": "addManufacturer",
      "outputs": [],
      "payable": false,
      "stateMutability": "nonpayable",
      "type": "function"
    },
    {
      "constant": false,
      "inputs": [],
      "name": "renounceManufacturer",
      "outputs": [],
      "payable": false,
      "stateMutability": "nonpayable",
      "type": "function"
    }
  ],
  "bytecode": "0x608060405234801561001057600080fd5b506100203361002560201b60201c565b6102e5565b61003d81600061008360201b6102d31790919060201c565b8073ffffffffffffffffffffffffffffffffffffffff167f561138658ca49a8540dc70dcfe64c9026c1c5b9344642242dd6562970f9c127860405160405180910390a250565b600073ffffffffffffffffffffffffffffffffffffffff168173ffffffffffffffffffffffffffffffffffffffff161415610126576040517f08c379a000000000000000000000000000000000000000000000000000000000815260040180806020018281038252601e8152602001807f416464726573732063616e6e6f74206265207a65726f2061646472657373000081525060200191505060405180910390fd5b61013682826101ea60201b60201c565b1561018c576040517f08c379a00000000000000000000000000000000000000000000000000000000081526004018080602001828103825260228152602001806109076022913960400191505060405180910390fd5b60018260000160008373ffffffffffffffffffffffffffffffffffffffff1673ffffffffffffffffffffffffffffffffffffffff16815260200190815260200160002060006101000a81548160ff0219169083151502179055505050565b60008073ffffffffffffffffffffffffffffffffffffffff168273ffffffffffffffffffffffffffffffffffffffff16141561028e576040517f08c379a000000000000000000000000000000000000000000000000000000000815260040180806020018281038252601e8152602001807f416464726573732063616e6e6f74206265207a65726f2061646472657373000081525060200191505060405180910390fd5b8260000160008373ffffffffffffffffffffffffffffffffffffffff1673ffffffffffffffffffffffffffffffffffffffff16815260200190815260200160002060009054906101000a900460ff16905092915050565b610613806102f46000396000f3fe608060405234801561001057600080fd5b50600436106100415760003560e01c806317d4a491146100465780635f8a5afa146100a2578063de07f34e146100e6575b600080fd5b6100886004803603602081101561005c57600080fd5b81019080803573ffffffffffffffffffffffffffffffffffffffff1690602001909291905050506100f0565b604051808215151515815260200191505060405180910390f35b6100e4600480360360208110156100b857600080fd5b81019080803573ffffffffffffffffffffffffffffffffffffffff16906020019092919050505061010d565b005b6100ee610119565b005b600061010682600061012490919063ffffffff16565b9050919050565b6101168161021f565b50565b61012233610279565b565b60008073ffffffffffffffffffffffffffffffffffffffff168273ffffffffffffffffffffffffffffffffffffffff1614156101c8576040517f08c379a000000000000000000000000000000000000000000000000000000000815260040180806020018281038252601e8152602001807f416464726573732063616e6e6f74206265207a65726f2061646472657373000081525060200191505060405180910390fd5b8260000160008373ffffffffffffffffffffffffffffffffffffffff1673ffffffffffffffffffffffffffffffffffffffff16815260200190815260200160002060009054906101000a900460ff16905092915050565b6102338160006102d390919063ffffffff16565b8073ffffffffffffffffffffffffffffffffffffffff167f561138658ca49a8540dc70dcfe64c9026c1c5b9344642242dd6562970f9c127860405160405180910390a250565b61028d81600061043490919063ffffffff16565b8073ffffffffffffffffffffffffffffffffffffffff167f2fed5abf6a80d6dfe30b4895481b2fc5d7dce5f8f7b931832f4a2947d5040c7f60405160405180910390a250565b600073ffffffffffffffffffffffffffffffffffffffff168173ffffffffffffffffffffffffffffffffffffffff161415610376576040517f08c379a000000000000000000000000000000000000000000000000000000000815260040180806020018281038252601e8152602001807f416464726573732063616e6e6f74206265207a65726f2061646472657373000081525060200191505060405180910390fd5b6103808282610124565b156103d6576040517f08c379a00000000000000000000000000000000000000000000000000000000081526004018080602001828103825260228152602001806105956022913960400191505060405180910390fd5b60018260000160008373ffffffffffffffffffffffffffffffffffffffff1673ffffffffffffffffffffffffffffffffffffffff16815260200190815260200160002060006101000a81548160ff0219169083151502179055505050565b600073ffffffffffffffffffffffffffffffffffffffff168173ffffffffffffffffffffffffffffffffffffffff1614156104d7576040517f08c379a000000000000000000000000000000000000000000000000000000000815260040180806020018281038252601e8152602001807f416464726573732063616e6e6f74206265207a65726f2061646472657373000081525060200191505060405180910390fd5b6104e18282610124565b610536576040517f08c379a00000000000000000000000000000000000000000000000000000000081526004018080602001828103825260288152602001806105b76028913960400191505060405180910390fd5b60008260000160008373ffffffffffffffffffffffffffffffffffffffff1673ffffffffffffffffffffffffffffffffffffffff16815260200190815260200160002060006101000a81548160ff021916908315150217905550505056fe54686973206164647265737320616c726561647920686173207468697320726f6c6554686973206164647265737320646f6573206e6f742068617665207468697320726f6c6520796574a265627a7a7231582062f455f1c523cf51b6c8041f267d464b9d8bc8b776f4ae9097cc868a4406dcea64736f6c6343000510003254686973206164647265737320616c726561647920686173207468697320726f6c65",
  "source": "pragma solidity >=0.4.22 <0.9.0;\r\n\r\n// Import the library 'Roles'\r\nimport \"./Roles.sol\";\r\n\r\n// Define a contract 'ManufacturerRole' to manage this role - add, remove, check\r\ncontract ManufacturerRole {\r\n\r\n  using Roles for Roles.Role;\r\n\r\n  // Define 2 events, one for Adding, and other for Removing\r\n  event ManufacturerAdded(address indexed account);\r\n  event ManufacturerRemoved(address indexed account);\r\n\r\n  // Define a struct 'Manufacturers' by inheriting from 'Roles' library, struct Role\r\n  Roles.Role private manufacturers;\r\n\r\n  // In the constructor make the address that deploys this contract the 1st Manufacturer\r\n  constructor() public {\r\n    // The first Manufacturer will be the person deploying this contract\r\n    _addManufacturer(msg.sender);\r\n  }\r\n\r\n  // Define a modifier that checks to see if msg.sender has the appropriate role\r\n  modifier onlyManufacturer() {\r\n      require(manufacturers.has(msg.sender), \"This account has no Manufacturer Role\");\r\n    _;\r\n  }\r\n\r\n  // Define a function 'isManufacturer' to check this role\r\n  function isManufacturer(address account) public view returns (bool) {\r\n       return manufacturers.has(account);\r\n  }\r\n\r\n  // Define a function 'addManufacturer' that adds this role\r\n  function addManufacturer(address account) public {\r\n      _addManufacturer(account);\r\n  }\r\n\r\n  // Define a function 'renounceManufacturer' to renounce this role\r\n  function renounceManufacturer() public {\r\n    _removeManufacturer(msg.sender);\r\n  }\r\n\r\n  // Define an internal function '_addManufacturer' to add this role, called by 'addManufacturer'\r\n  function _addManufacturer(address account) internal {\r\n    manufacturers.add(account);\r\n    emit ManufacturerAdded(account);\r\n  }\r\n\r\n  // Define an internal function '_removeManufacturer' to remove this role, called by 'removeManufacturer'\r\n  function _removeManufacturer(address account) internal {\r\n    manufacturers.remove(account);\r\n    emit ManufacturerRemoved(account);\r\n  }\r\n}",
  "sourcePath": "C:\\Users\\micha\\GitHub\\React\\contracts\\accessControl\\ManufacturerRole.sol",
  "compiler": {
    "name": "solc",
    "version": "0.5.16+commit.9c3226ce.Emscripten.clang"
  },
  "schemaVersion": "3.4.7",
  "updatedAt": "2022-05-24T22:28:56.722Z",
  "devdoc": {
    "methods": {}
  },
  "userdoc": {
    "methods": {}
  }
}