{
  "contractName": "Ownable",
  "abi": [
    {
      "inputs": [],
      "payable": false,
      "stateMutability": "nonpayable",
      "type": "constructor"
    },
    {
      "anonymous": false,
      "inputs": [
        {
          "indexed": true,
          "internalType": "address",
          "name": "oldOwner",
          "type": "address"
        },
        {
          "indexed": true,
          "internalType": "address",
          "name": "newOwner",
          "type": "address"
        }
      ],
      "name": "TransferOwnership",
      "type": "event"
    },
    {
      "constant": false,
      "inputs": [],
      "name": "kill",
      "outputs": [],
      "payable": false,
      "stateMutability": "nonpayable",
      "type": "function"
    },
    {
      "constant": true,
      "inputs": [],
      "name": "owner",
      "outputs": [
        {
          "internalType": "address",
          "name": "",
          "type": "address"
        }
      ],
      "payable": false,
      "stateMutability": "view",
      "type": "function"
    },
    {
      "constant": true,
      "inputs": [],
      "name": "isOwner",
      "outputs": [
        {
          "internalType": "bool",
          "name": "",
          "type": "bool"
        }
      ],
      "payable": false,
      "stateMutability": "view",
      "type": "function"
    },
    {
      "constant": false,
      "inputs": [],
      "name": "renounceOwnership",
      "outputs": [],
      "payable": false,
      "stateMutability": "nonpayable",
      "type": "function"
    },
    {
      "constant": false,
      "inputs": [
        {
          "internalType": "address payable",
          "name": "newOwner",
          "type": "address"
        }
      ],
      "name": "transferOwnership",
      "outputs": [],
      "payable": false,
      "stateMutability": "nonpayable",
      "type": "function"
    }
  ],
  "bytecode": "0x608060405234801561001057600080fd5b50610579806100206000396000f3fe608060405234801561001057600080fd5b50600436106100575760003560e01c806341c0e1b51461005c578063715018a6146100665780638da5cb5b146100705780638f32d59b146100ba578063f2fde38b146100dc575b600080fd5b610064610120565b005b61006e6101b1565b005b6100786102cd565b604051808273ffffffffffffffffffffffffffffffffffffffff1673ffffffffffffffffffffffffffffffffffffffff16815260200191505060405180910390f35b6100c26102f6565b604051808215151515815260200191505060405180910390f35b61011e600480360360208110156100f257600080fd5b81019080803573ffffffffffffffffffffffffffffffffffffffff16906020019092919050505061034d565b005b6000809054906101000a900473ffffffffffffffffffffffffffffffffffffffff1673ffffffffffffffffffffffffffffffffffffffff163373ffffffffffffffffffffffffffffffffffffffff1614156101af576000809054906101000a900473ffffffffffffffffffffffffffffffffffffffff1673ffffffffffffffffffffffffffffffffffffffff16ff5b565b6101b96102f6565b61020e576040517f08c379a00000000000000000000000000000000000000000000000000000000081526004018080602001828103825260298152602001806104fb6029913960400191505060405180910390fd5b600073ffffffffffffffffffffffffffffffffffffffff166000809054906101000a900473ffffffffffffffffffffffffffffffffffffffff1673ffffffffffffffffffffffffffffffffffffffff167f5c486528ec3e3f0ea91181cff8116f02bfa350e03b8b6f12e00765adbb5af85c60405160405180910390a360008060006101000a81548173ffffffffffffffffffffffffffffffffffffffff021916908373ffffffffffffffffffffffffffffffffffffffff160217905550565b60008060009054906101000a900473ffffffffffffffffffffffffffffffffffffffff16905090565b60008060009054906101000a900473ffffffffffffffffffffffffffffffffffffffff1673ffffffffffffffffffffffffffffffffffffffff163373ffffffffffffffffffffffffffffffffffffffff1614905090565b6103556102f6565b6103aa576040517f08c379a00000000000000000000000000000000000000000000000000000000081526004018080602001828103825260298152602001806104fb6029913960400191505060405180910390fd5b6103b3816103b6565b50565b600073ffffffffffffffffffffffffffffffffffffffff168173ffffffffffffffffffffffffffffffffffffffff16141561043c576040517f08c379a00000000000000000000000000000000000000000000000000000000081526004018080602001828103825260218152602001806105246021913960400191505060405180910390fd5b8073ffffffffffffffffffffffffffffffffffffffff166000809054906101000a900473ffffffffffffffffffffffffffffffffffffffff1673ffffffffffffffffffffffffffffffffffffffff167f5c486528ec3e3f0ea91181cff8116f02bfa350e03b8b6f12e00765adbb5af85c60405160405180910390a3806000806101000a81548173ffffffffffffffffffffffffffffffffffffffff021916908373ffffffffffffffffffffffffffffffffffffffff1602179055505056fe4f6e6c7920746865206f776e65722063616e20706572666f726d2074686973206f7065726174696f6e546865206e6577204f776e65722063616e6e6f7420626520616464726573732030a265627a7a72315820e0c84977d17d2201e1840a436a998ba267e9a979bafc788cf6af615d7a84dca064736f6c63430005100032",
  "source": "pragma solidity >=0.4.22 <0.9.0;\r\n\r\n/// Provides basic authorization control\r\ncontract Ownable {\r\n    address payable private origOwner;\r\n\r\n    // Define an Event\r\n    event TransferOwnership(address indexed oldOwner, address indexed newOwner);\r\n\r\n    /// Assign the contract to an owner\r\n    constructor() public {\r\n//        origOwner = msg.sender;\r\n//        emit TransferOwnership(address(0), origOwner);\r\n    }\r\n\r\n    // Define a function 'kill' if required\r\n    function kill() public {\r\n        if (msg.sender == origOwner) {\r\n        selfdestruct(origOwner);\r\n        }\r\n    }\r\n\r\n    /// Look up the address of the owner\r\n    function owner() public view returns (address) {\r\n        return origOwner;\r\n    }\r\n\r\n    /// Define a function modifier 'onlyOwner'\r\n    modifier onlyOwner() {\r\n        require(isOwner(), \"Only the owner can perform this operation\");\r\n        _;\r\n    }\r\n\r\n    /// Check if the calling address is the owner of the contract\r\n    function isOwner() public view returns (bool) {\r\n        return msg.sender == origOwner;\r\n    }\r\n\r\n    /// Define a function to renounce ownerhip\r\n    function renounceOwnership() public onlyOwner {\r\n        emit TransferOwnership(origOwner, address(0));\r\n        origOwner = address(0);\r\n    }\r\n\r\n    /// Define a public function to transfer ownership\r\n    function transferOwnership(address payable newOwner) public onlyOwner {\r\n        _transferOwnership(newOwner);\r\n    }\r\n\r\n    /// Define an internal function to transfer ownership\r\n    function _transferOwnership(address payable newOwner) internal {\r\n        require(newOwner != address(0), \"The new Owner cannot be address 0\");\r\n        emit TransferOwnership(origOwner, newOwner);\r\n        origOwner = newOwner;\r\n    }\r\n}",
  "sourcePath": "C:\\Users\\micha\\GitHub\\React\\contracts\\core\\Ownable.sol",
  "compiler": {
    "name": "solc",
    "version": "0.5.16+commit.9c3226ce.Emscripten.clang"
  },
  "schemaVersion": "3.4.7",
  "updatedAt": "2022-06-01T01:59:09.803Z",
  "devdoc": {
    "methods": {}
  },
  "userdoc": {
    "methods": {
      "constructor": "Assign the contract to an owner",
      "isOwner()": {
        "notice": "Check if the calling address is the owner of the contract"
      },
      "owner()": {
        "notice": "Look up the address of the owner"
      },
      "renounceOwnership()": {
        "notice": "Define a function to renounce ownerhip"
      },
      "transferOwnership(address)": {
        "notice": "Define a public function to transfer ownership"
      }
    },
    "notice": "Provides basic authorization control"
  }
}