{
  "contractName": "ProductTracking",
  "abi": [
    {
      "inputs": [],
      "stateMutability": "nonpayable",
      "type": "constructor"
    },
    {
      "anonymous": false,
      "inputs": [
        {
          "indexed": false,
          "internalType": "uint256",
          "name": "upc",
          "type": "uint256"
        }
      ],
      "name": "DistRecieved",
      "type": "event"
    },
    {
      "anonymous": false,
      "inputs": [
        {
          "indexed": true,
          "internalType": "address",
          "name": "account",
          "type": "address"
        }
      ],
      "name": "DistributorAdded",
      "type": "event"
    },
    {
      "anonymous": false,
      "inputs": [
        {
          "indexed": true,
          "internalType": "address",
          "name": "account",
          "type": "address"
        }
      ],
      "name": "DistributorRemoved",
      "type": "event"
    },
    {
      "anonymous": false,
      "inputs": [
        {
          "indexed": false,
          "internalType": "uint256",
          "name": "upc",
          "type": "uint256"
        }
      ],
      "name": "InTransit",
      "type": "event"
    },
    {
      "anonymous": false,
      "inputs": [
        {
          "indexed": false,
          "internalType": "uint256",
          "name": "upc",
          "type": "uint256"
        }
      ],
      "name": "Manufactured",
      "type": "event"
    },
    {
      "anonymous": false,
      "inputs": [
        {
          "indexed": true,
          "internalType": "address",
          "name": "account",
          "type": "address"
        }
      ],
      "name": "ManufacturerAdded",
      "type": "event"
    },
    {
      "anonymous": false,
      "inputs": [
        {
          "indexed": true,
          "internalType": "address",
          "name": "account",
          "type": "address"
        }
      ],
      "name": "ManufacturerRemoved",
      "type": "event"
    },
    {
      "anonymous": false,
      "inputs": [
        {
          "indexed": false,
          "internalType": "uint256",
          "name": "upc",
          "type": "uint256"
        }
      ],
      "name": "OrderAccepted",
      "type": "event"
    },
    {
      "anonymous": false,
      "inputs": [
        {
          "indexed": false,
          "internalType": "uint256",
          "name": "upc",
          "type": "uint256"
        }
      ],
      "name": "OrderRequestPlaced",
      "type": "event"
    },
    {
      "anonymous": false,
      "inputs": [
        {
          "indexed": false,
          "internalType": "uint256",
          "name": "upc",
          "type": "uint256"
        }
      ],
      "name": "Purchased",
      "type": "event"
    },
    {
      "anonymous": false,
      "inputs": [
        {
          "indexed": false,
          "internalType": "uint256",
          "name": "upc",
          "type": "uint256"
        }
      ],
      "name": "Shipped",
      "type": "event"
    },
    {
      "anonymous": false,
      "inputs": [
        {
          "indexed": true,
          "internalType": "address",
          "name": "oldOwner",
          "type": "address"
        },
        {
          "indexed": true,
          "internalType": "address",
          "name": "newOwner",
          "type": "address"
        }
      ],
      "name": "TransferOwnership",
      "type": "event"
    },
    {
      "anonymous": false,
      "inputs": [
        {
          "indexed": true,
          "internalType": "address",
          "name": "account",
          "type": "address"
        }
      ],
      "name": "VendorAdded",
      "type": "event"
    },
    {
      "anonymous": false,
      "inputs": [
        {
          "indexed": false,
          "internalType": "uint256",
          "name": "upc",
          "type": "uint256"
        }
      ],
      "name": "VendorRecieved",
      "type": "event"
    },
    {
      "anonymous": false,
      "inputs": [
        {
          "indexed": true,
          "internalType": "address",
          "name": "account",
          "type": "address"
        }
      ],
      "name": "VendorRemoved",
      "type": "event"
    },
    {
      "inputs": [
        {
          "internalType": "address",
          "name": "account",
          "type": "address"
        },
        {
          "internalType": "string",
          "name": "name",
          "type": "string"
        },
        {
          "internalType": "string",
          "name": "password",
          "type": "string"
        }
      ],
      "name": "addDistributor",
      "outputs": [],
      "stateMutability": "nonpayable",
      "type": "function"
    },
    {
      "inputs": [
        {
          "internalType": "address",
          "name": "account",
          "type": "address"
        },
        {
          "internalType": "string",
          "name": "name",
          "type": "string"
        },
        {
          "internalType": "string",
          "name": "password",
          "type": "string"
        }
      ],
      "name": "addManufacturer",
      "outputs": [],
      "stateMutability": "nonpayable",
      "type": "function"
    },
    {
      "inputs": [
        {
          "internalType": "address",
          "name": "account",
          "type": "address"
        },
        {
          "internalType": "string",
          "name": "name",
          "type": "string"
        },
        {
          "internalType": "string",
          "name": "password",
          "type": "string"
        }
      ],
      "name": "addVendor",
      "outputs": [],
      "stateMutability": "nonpayable",
      "type": "function"
    },
    {
      "inputs": [
        {
          "internalType": "string",
          "name": "name",
          "type": "string"
        }
      ],
      "name": "getDistributorId",
      "outputs": [
        {
          "internalType": "address",
          "name": "",
          "type": "address"
        }
      ],
      "stateMutability": "view",
      "type": "function",
      "constant": true
    },
    {
      "inputs": [
        {
          "internalType": "string",
          "name": "name",
          "type": "string"
        }
      ],
      "name": "getManufacturerId",
      "outputs": [
        {
          "internalType": "address",
          "name": "",
          "type": "address"
        }
      ],
      "stateMutability": "view",
      "type": "function",
      "constant": true
    },
    {
      "inputs": [
        {
          "internalType": "string",
          "name": "name",
          "type": "string"
        }
      ],
      "name": "getVendorId",
      "outputs": [
        {
          "internalType": "address",
          "name": "",
          "type": "address"
        }
      ],
      "stateMutability": "view",
      "type": "function",
      "constant": true
    },
    {
      "inputs": [
        {
          "internalType": "address",
          "name": "account",
          "type": "address"
        }
      ],
      "name": "isDistributor",
      "outputs": [
        {
          "internalType": "bool",
          "name": "",
          "type": "bool"
        }
      ],
      "stateMutability": "view",
      "type": "function",
      "constant": true
    },
    {
      "inputs": [
        {
          "internalType": "string",
          "name": "userName",
          "type": "string"
        }
      ],
      "name": "isDistributorViaName",
      "outputs": [
        {
          "internalType": "bool",
          "name": "",
          "type": "bool"
        }
      ],
      "stateMutability": "view",
      "type": "function",
      "constant": true
    },
    {
      "inputs": [
        {
          "internalType": "address",
          "name": "account",
          "type": "address"
        }
      ],
      "name": "isManufacturer",
      "outputs": [
        {
          "internalType": "bool",
          "name": "",
          "type": "bool"
        }
      ],
      "stateMutability": "view",
      "type": "function",
      "constant": true
    },
    {
      "inputs": [
        {
          "internalType": "string",
          "name": "userName",
          "type": "string"
        }
      ],
      "name": "isManufacturerViaName",
      "outputs": [
        {
          "internalType": "bool",
          "name": "",
          "type": "bool"
        }
      ],
      "stateMutability": "view",
      "type": "function",
      "constant": true
    },
    {
      "inputs": [],
      "name": "isOwner",
      "outputs": [
        {
          "internalType": "bool",
          "name": "",
          "type": "bool"
        }
      ],
      "stateMutability": "view",
      "type": "function",
      "constant": true
    },
    {
      "inputs": [
        {
          "internalType": "address",
          "name": "account",
          "type": "address"
        }
      ],
      "name": "isVendor",
      "outputs": [
        {
          "internalType": "bool",
          "name": "",
          "type": "bool"
        }
      ],
      "stateMutability": "view",
      "type": "function",
      "constant": true
    },
    {
      "inputs": [
        {
          "internalType": "string",
          "name": "userName",
          "type": "string"
        }
      ],
      "name": "isVendorViaName",
      "outputs": [
        {
          "internalType": "bool",
          "name": "",
          "type": "bool"
        }
      ],
      "stateMutability": "view",
      "type": "function",
      "constant": true
    },
    {
      "inputs": [],
      "name": "kill",
      "outputs": [],
      "stateMutability": "nonpayable",
      "type": "function"
    },
    {
      "inputs": [
        {
          "internalType": "string",
          "name": "userName",
          "type": "string"
        },
        {
          "internalType": "string",
          "name": "password",
          "type": "string"
        }
      ],
      "name": "loginDistributor",
      "outputs": [
        {
          "internalType": "address",
          "name": "",
          "type": "address"
        }
      ],
      "stateMutability": "view",
      "type": "function",
      "constant": true
    },
    {
      "inputs": [
        {
          "internalType": "string",
          "name": "userName",
          "type": "string"
        },
        {
          "internalType": "string",
          "name": "password",
          "type": "string"
        }
      ],
      "name": "loginManufacturer",
      "outputs": [
        {
          "internalType": "address",
          "name": "",
          "type": "address"
        }
      ],
      "stateMutability": "view",
      "type": "function",
      "constant": true
    },
    {
      "inputs": [
        {
          "internalType": "string",
          "name": "userName",
          "type": "string"
        },
        {
          "internalType": "string",
          "name": "password",
          "type": "string"
        }
      ],
      "name": "loginVendor",
      "outputs": [
        {
          "internalType": "address",
          "name": "",
          "type": "address"
        }
      ],
      "stateMutability": "view",
      "type": "function",
      "constant": true
    },
    {
      "inputs": [],
      "name": "owner",
      "outputs": [
        {
          "internalType": "address",
          "name": "",
          "type": "address"
        }
      ],
      "stateMutability": "view",
      "type": "function",
      "constant": true
    },
    {
      "inputs": [
        {
          "internalType": "uint256",
          "name": "",
          "type": "uint256"
        },
        {
          "internalType": "string",
          "name": "",
          "type": "string"
        }
      ],
      "name": "productStamp",
      "outputs": [
        {
          "internalType": "uint256",
          "name": "",
          "type": "uint256"
        }
      ],
      "stateMutability": "view",
      "type": "function",
      "constant": true
    },
    {
      "inputs": [],
      "name": "productsCount",
      "outputs": [
        {
          "internalType": "uint256",
          "name": "",
          "type": "uint256"
        }
      ],
      "stateMutability": "view",
      "type": "function",
      "constant": true
    },
    {
      "inputs": [],
      "name": "renounceDistributor",
      "outputs": [],
      "stateMutability": "nonpayable",
      "type": "function"
    },
    {
      "inputs": [],
      "name": "renounceManufacturer",
      "outputs": [],
      "stateMutability": "nonpayable",
      "type": "function"
    },
    {
      "inputs": [],
      "name": "renounceOwnership",
      "outputs": [],
      "stateMutability": "nonpayable",
      "type": "function"
    },
    {
      "inputs": [],
      "name": "renounceVendor",
      "outputs": [],
      "stateMutability": "nonpayable",
      "type": "function"
    },
    {
      "inputs": [
        {
          "internalType": "address payable",
          "name": "newOwner",
          "type": "address"
        }
      ],
      "name": "transferOwnership",
      "outputs": [],
      "stateMutability": "nonpayable",
      "type": "function"
    },
    {
      "inputs": [
        {
          "internalType": "address payable",
          "name": "_address",
          "type": "address"
        },
        {
          "internalType": "uint256",
          "name": "index",
          "type": "uint256"
        }
      ],
      "name": "getProduct",
      "outputs": [
        {
          "components": [
            {
              "internalType": "uint256",
              "name": "sku",
              "type": "uint256"
            },
            {
              "internalType": "uint256",
              "name": "productID",
              "type": "uint256"
            },
            {
              "internalType": "string",
              "name": "name",
              "type": "string"
            },
            {
              "internalType": "string",
              "name": "desc",
              "type": "string"
            },
            {
              "internalType": "address payable",
              "name": "ownerID",
              "type": "address"
            },
            {
              "internalType": "enum ProductTracking.State",
              "name": "currentStatus",
              "type": "uint8"
            },
            {
              "internalType": "address payable",
              "name": "distributorID",
              "type": "address"
            },
            {
              "internalType": "address payable",
              "name": "manufacturerID",
              "type": "address"
            },
            {
              "internalType": "address payable",
              "name": "vendorID",
              "type": "address"
            },
            {
              "components": [
                {
                  "internalType": "string",
                  "name": "manufacturerName",
                  "type": "string"
                },
                {
                  "internalType": "string",
                  "name": "distributorName",
                  "type": "string"
                },
                {
                  "internalType": "string",
                  "name": "vendorName",
                  "type": "string"
                }
              ],
              "internalType": "struct ProductTracking.Name",
              "name": "entityNames",
              "type": "tuple"
            }
          ],
          "internalType": "struct ProductTracking.Product",
          "name": "",
          "type": "tuple"
        }
      ],
      "stateMutability": "view",
      "type": "function",
      "constant": true
    },
    {
      "inputs": [
        {
          "internalType": "address payable",
          "name": "_address",
          "type": "address"
        }
      ],
      "name": "getRole",
      "outputs": [
        {
          "internalType": "string",
          "name": "",
          "type": "string"
        }
      ],
      "stateMutability": "view",
      "type": "function",
      "constant": true
    },
    {
      "inputs": [
        {
          "internalType": "string",
          "name": "userName",
          "type": "string"
        },
        {
          "internalType": "string",
          "name": "password",
          "type": "string"
        }
      ],
      "name": "login",
      "outputs": [
        {
          "internalType": "address",
          "name": "",
          "type": "address"
        }
      ],
      "stateMutability": "view",
      "type": "function",
      "constant": true
    },
    {
      "inputs": [
        {
          "internalType": "uint256",
          "name": "_upc",
          "type": "uint256"
        },
        {
          "internalType": "string",
          "name": "name",
          "type": "string"
        },
        {
          "internalType": "uint256",
          "name": "_sku",
          "type": "uint256"
        },
        {
          "internalType": "string",
          "name": "desc",
          "type": "string"
        },
        {
          "internalType": "address payable",
          "name": "_originManufacturerID",
          "type": "address"
        },
        {
          "internalType": "string",
          "name": "manufacturerName",
          "type": "string"
        },
        {
          "internalType": "uint256",
          "name": "time",
          "type": "uint256"
        }
      ],
      "name": "manufactureProduct",
      "outputs": [],
      "stateMutability": "nonpayable",
      "type": "function"
    },
    {
      "inputs": [
        {
          "internalType": "uint256",
          "name": "_upc",
          "type": "uint256"
        },
        {
          "internalType": "uint256",
          "name": "time",
          "type": "uint256"
        }
      ],
      "name": "placeOrderRequest",
      "outputs": [],
      "stateMutability": "nonpayable",
      "type": "function"
    },
    {
      "inputs": [
        {
          "internalType": "uint256",
          "name": "_upc",
          "type": "uint256"
        },
        {
          "internalType": "uint256",
          "name": "time",
          "type": "uint256"
        }
      ],
      "name": "orderAccepted",
      "outputs": [],
      "stateMutability": "nonpayable",
      "type": "function"
    },
    {
      "inputs": [
        {
          "internalType": "uint256",
          "name": "_upc",
          "type": "uint256"
        },
        {
          "internalType": "string",
          "name": "distributorName",
          "type": "string"
        },
        {
          "internalType": "uint256",
          "name": "time",
          "type": "uint256"
        }
      ],
      "name": "shipToDistributor",
      "outputs": [],
      "stateMutability": "nonpayable",
      "type": "function"
    },
    {
      "inputs": [
        {
          "internalType": "uint256",
          "name": "_upc",
          "type": "uint256"
        },
        {
          "internalType": "uint256",
          "name": "time",
          "type": "uint256"
        }
      ],
      "name": "recieveAsDistributor",
      "outputs": [],
      "stateMutability": "nonpayable",
      "type": "function"
    },
    {
      "inputs": [
        {
          "internalType": "uint256",
          "name": "_upc",
          "type": "uint256"
        },
        {
          "internalType": "string",
          "name": "vendorName",
          "type": "string"
        },
        {
          "internalType": "uint256",
          "name": "time",
          "type": "uint256"
        }
      ],
      "name": "shipToVendor",
      "outputs": [],
      "stateMutability": "nonpayable",
      "type": "function"
    },
    {
      "inputs": [
        {
          "internalType": "uint256",
          "name": "_upc",
          "type": "uint256"
        },
        {
          "internalType": "uint256",
          "name": "time",
          "type": "uint256"
        }
      ],
      "name": "recieveAsVendor",
      "outputs": [],
      "stateMutability": "nonpayable",
      "type": "function"
    },
    {
      "inputs": [
        {
          "internalType": "uint256",
          "name": "_upc",
          "type": "uint256"
        },
        {
          "internalType": "uint256",
          "name": "time",
          "type": "uint256"
        }
      ],
      "name": "sellProduct",
      "outputs": [],
      "stateMutability": "nonpayable",
      "type": "function"
    }
  ],
  "bytecode": "0x608060405234801561001057600080fd5b5061445e806100206000396000f3fe608060405234801561001057600080fd5b506004361061021c5760003560e01c806376ba15ad11610125578063990a0deb116100ad578063de07f34e1161007c578063de07f34e1461066d578063e0df7bb614610677578063ee54d54f14610695578063f2fde38b146106c5578063f5e85299146106e15761021c565b8063990a0deb146105d5578063a8173a1d14610605578063b32caa1d14610635578063c10946ab146106515761021c565b806387ea5e27116100f457806387ea5e271461051d5780638a77a697146105395780638da5cb5b146105695780638f0c86fa146105875780638f32d59b146105b75761021c565b806376ba15ad1461049757806380a59ec5146104a157806381a01767146104bd578063849dda68146104ed5761021c565b806341c0e1b5116101a857806358467dbc1161017757806358467dbc14610407578063644241db1461043757806369d5f81e146104415780636a992c9f14610471578063715018a61461048d5761021c565b806341c0e1b514610381578063442767331461038b5780634d747b1b146103bb57806351b97b2e146103d75761021c565b80632a4af440116101ef5780632a4af440146102cd5780632c36a3dd146102e9578063349548f414610305578063364cdd0e146103215780633c6f758d146103515761021c565b806317d4a4911461022157806318b30a48146102515780631f0cb7361461026d57806325f011621461029d575b600080fd5b61023b60048036036102369190810190612f95565b6106fd565b6040516102489190613f4e565b60405180910390f35b61026b60048036036102669190810190613319565b61071a565b005b610287600480360361028291908101906130cb565b61093c565b6040516102949190613f33565b60405180910390f35b6102b760048036036102b291908101906130cb565b61098a565b6040516102c49190613f4e565b60405180910390f35b6102e760048036036102e29190810190613023565b6109cb565b005b61030360048036036102fe9190810190613319565b6109db565b005b61031f600480360361031a9190810190613233565b610b57565b005b61033b60048036036103369190810190613178565b610f06565b60405161034891906141e4565b60405180910390f35b61036b6004803603610366919081019061310c565b610f41565b6040516103789190613f33565b60405180910390f35b610389610f61565b005b6103a560048036036103a09190810190612fbe565b610ff2565b6040516103b29190613f69565b60405180910390f35b6103d560048036036103d09190810190613319565b6110ed565b005b6103f160048036036103ec91908101906130cb565b6112ac565b6040516103fe9190613f4e565b60405180910390f35b610421600480360361041c919081019061310c565b6112ee565b60405161042e9190613f33565b60405180910390f35b61043f611358565b005b61045b60048036036104569190810190612fe7565b611363565b60405161046891906141c2565b60405180910390f35b61048b60048036036104869190810190613023565b611869565b005b610495611879565b005b61049f61197f565b005b6104bb60048036036104b691908101906131cc565b61198a565b005b6104d760048036036104d291908101906130cb565b611c14565b6040516104e49190613f33565b60405180910390f35b6105076004803603610502919081019061310c565b611c61565b6040516105149190613f33565b60405180910390f35b610537600480360361053291908101906131cc565b611c81565b005b610553600480360361054e919081019061310c565b611f0a565b6040516105609190613f33565b60405180910390f35b610571611f2a565b60405161057e9190613f33565b60405180910390f35b6105a1600480360361059c9190810190612f95565b611f53565b6040516105ae9190613f4e565b60405180910390f35b6105bf611f70565b6040516105cc9190613f4e565b60405180910390f35b6105ef60048036036105ea91908101906130cb565b611fc7565b6040516105fc9190613f4e565b60405180910390f35b61061f600480360361061a91908101906130cb565b612009565b60405161062c9190613f33565b60405180910390f35b61064f600480360361064a9190810190613023565b612057565b005b61066b60048036036106669190810190613319565b612067565b005b610675612226565b005b61067f612231565b60405161068c91906141e4565b60405180910390f35b6106af60048036036106aa9190810190612f95565b612237565b6040516106bc9190613f4e565b60405180910390f35b6106df60048036036106da9190810190612fbe565b612254565b005b6106fb60048036036106f69190810190613319565b6122a7565b005b600061071382600161242390919063ffffffff16565b9050919050565b61072e33600561242390919063ffffffff16565b61076d576040517f08c379a000000000000000000000000000000000000000000000000000000000815260040161076490614162565b60405180910390fd5b816005600781111561077b57fe5b6009600083815260200190815260200160002060040160149054906101000a900460ff1660078111156107aa57fe5b146107ea576040517f08c379a00000000000000000000000000000000000000000000000000000000081526004016107e1906141a2565b60405180910390fd5b6009600084815260200190815260200160002060070160009054906101000a900473ffffffffffffffffffffffffffffffffffffffff168073ffffffffffffffffffffffffffffffffffffffff163373ffffffffffffffffffffffffffffffffffffffff161461088f576040517f08c379a000000000000000000000000000000000000000000000000000000000815260040161088690613fc2565b60405180910390fd5b600060096000868152602001908152602001600020905060068160040160146101000a81548160ff021916908360078111156108c757fe5b021790555083600860008781526020019081526020016000206040516108ec90613e8b565b9081526020016040518091039020819055507f653d56639fee6b566a5c804764e9689de38645f0b733df89a36a1b7b42173dd88560405161092d91906141e4565b60405180910390a15050505050565b60006003600101826040516109519190613e74565b908152602001604051809103902060010160009054906101000a900473ffffffffffffffffffffffffffffffffffffffff169050919050565b60006001151560018001836040516109a29190613e74565b908152602001604051809103902060010160149054906101000a900460ff161515149050919050565b6109d68383836124eb565b505050565b6109ef33600161242390919063ffffffff16565b610a2e576040517f08c379a0000000000000000000000000000000000000000000000000000000008152600401610a2590614102565b60405180910390fd5b8160016007811115610a3c57fe5b6009600083815260200190815260200160002060040160149054906101000a900460ff166007811115610a6b57fe5b14610aab576040517f08c379a0000000000000000000000000000000000000000000000000000000008152600401610aa290614042565b60405180910390fd5b600060096000858152602001908152602001600020905060078160040160146101000a81548160ff02191690836007811115610ae357fe5b02179055508260086000868152602001908152602001600020604051610b0890613eb5565b9081526020016040518091039020819055507f262f7ad1922bdcf27203585ef3238620589ce6f74721d45bff6897a19e4f94a184604051610b4991906141e4565b60405180910390a150505050565b610b6b33600161242390919063ffffffff16565b610baa576040517f08c379a0000000000000000000000000000000000000000000000000000000008152600401610ba190614102565b60405180910390fd5b610bb2612c97565b83816080019073ffffffffffffffffffffffffffffffffffffffff16908173ffffffffffffffffffffffffffffffffffffffff1681525050838160e0019073ffffffffffffffffffffffffffffffffffffffff16908173ffffffffffffffffffffffffffffffffffffffff1681525050878160200181815250508681604001819052508581600001818152505084816060018190525082816101200151600001819052506001600a5401600a8190555060008160a001906007811115610c7457fe5b90816007811115610c8157fe5b8152505080600960008a815260200190815260200160002060008201518160000155602082015181600101556040820151816002019080519060200190610cc9929190612d53565b506060820151816003019080519060200190610ce6929190612d53565b5060808201518160040160006101000a81548173ffffffffffffffffffffffffffffffffffffffff021916908373ffffffffffffffffffffffffffffffffffffffff16021790555060a08201518160040160146101000a81548160ff02191690836007811115610d5257fe5b021790555060c08201518160050160006101000a81548173ffffffffffffffffffffffffffffffffffffffff021916908373ffffffffffffffffffffffffffffffffffffffff16021790555060e08201518160060160006101000a81548173ffffffffffffffffffffffffffffffffffffffff021916908373ffffffffffffffffffffffffffffffffffffffff1602179055506101008201518160070160006101000a81548173ffffffffffffffffffffffffffffffffffffffff021916908373ffffffffffffffffffffffffffffffffffffffff160217905550610120820151816008016000820151816000019080519060200190610e53929190612d53565b506020820151816001019080519060200190610e70929190612d53565b506040820151816002019080519060200190610e8d929190612d53565b50505090505081600860008a8152602001908152602001600020604051610eb390613ea0565b9081526020016040518091039020819055507fd29d8a68ca7c8c74be5579719d445aabfe230ed6e6a83aff475a663500eb760988604051610ef491906141e4565b60405180910390a15050505050505050565b600860205281600052604060002081805160208101820180518482526020830160208501208183528095505050505050600091509150505481565b6000610f598383600161254b9092919063ffffffff16565b905092915050565b6000809054906101000a900473ffffffffffffffffffffffffffffffffffffffff1673ffffffffffffffffffffffffffffffffffffffff163373ffffffffffffffffffffffffffffffffffffffff161415610ff0576000809054906101000a900473ffffffffffffffffffffffffffffffffffffffff1673ffffffffffffffffffffffffffffffffffffffff16ff5b565b6060610ffd826106fd565b1561103f576040518060400160405280600c81526020017f6d616e756661637475726572000000000000000000000000000000000000000081525090506110e8565b61104882612237565b1561108a576040518060400160405280600681526020017f76656e646f72000000000000000000000000000000000000000000000000000081525090506110e8565b61109382611f53565b156110d5576040518060400160405280600b81526020017f6469737472696275746f7200000000000000000000000000000000000000000081525090506110e8565b6040518060200160405280600081525090505b919050565b61110133600361242390919063ffffffff16565b611140576040517f08c379a000000000000000000000000000000000000000000000000000000000815260040161113790614122565b60405180910390fd5b816002600781111561114e57fe5b6009600083815260200190815260200160002060040160149054906101000a900460ff16600781111561117d57fe5b146111bd576040517f08c379a00000000000000000000000000000000000000000000000000000000081526004016111b4906140c2565b60405180910390fd5b6000600960008581526020019081526020016000209050338160040160006101000a81548173ffffffffffffffffffffffffffffffffffffffff021916908373ffffffffffffffffffffffffffffffffffffffff16021790555060038160040160146101000a81548160ff0219169083600781111561123857fe5b0217905550826008600086815260200190815260200160002060405161125d90613edf565b9081526020016040518091039020819055507f08c750f5731de445c2df1be22b2b46c01c96cae904a7c6c7bda7e2ce9f4466f48460405161129e91906141e4565b60405180910390a150505050565b6000600115156003600101836040516112c59190613e74565b908152602001604051809103902060010160149054906101000a900460ff161515149050919050565b60006112f98361098a565b1561130f576113088383610f41565b9050611352565b61131883611fc7565b1561132e576113278383611f0a565b9050611352565b611337836112ac565b1561134d576113468383611c61565b9050611352565b600090505b92915050565b61136133612694565b565b61136b612c97565b60096000838152602001908152602001600020604051806101400160405290816000820154815260200160018201548152602001600282018054600181600116156101000203166002900480601f0160208091040260200160405190810160405280929190818152602001828054600181600116156101000203166002900480156114375780601f1061140c57610100808354040283529160200191611437565b820191906000526020600020905b81548152906001019060200180831161141a57829003601f168201915b50505050508152602001600382018054600181600116156101000203166002900480601f0160208091040260200160405190810160405280929190818152602001828054600181600116156101000203166002900480156114d95780601f106114ae576101008083540402835291602001916114d9565b820191906000526020600020905b8154815290600101906020018083116114bc57829003601f168201915b505050505081526020016004820160009054906101000a900473ffffffffffffffffffffffffffffffffffffffff1673ffffffffffffffffffffffffffffffffffffffff1673ffffffffffffffffffffffffffffffffffffffff1681526020016004820160149054906101000a900460ff16600781111561155657fe5b600781111561156157fe5b81526020016005820160009054906101000a900473ffffffffffffffffffffffffffffffffffffffff1673ffffffffffffffffffffffffffffffffffffffff1673ffffffffffffffffffffffffffffffffffffffff1681526020016006820160009054906101000a900473ffffffffffffffffffffffffffffffffffffffff1673ffffffffffffffffffffffffffffffffffffffff1673ffffffffffffffffffffffffffffffffffffffff1681526020016007820160009054906101000a900473ffffffffffffffffffffffffffffffffffffffff1673ffffffffffffffffffffffffffffffffffffffff1673ffffffffffffffffffffffffffffffffffffffff16815260200160088201604051806060016040529081600082018054600181600116156101000203166002900480601f0160208091040260200160405190810160405280929190818152602001828054600181600116156101000203166002900480156117105780601f106116e557610100808354040283529160200191611710565b820191906000526020600020905b8154815290600101906020018083116116f357829003601f168201915b50505050508152602001600182018054600181600116156101000203166002900480601f0160208091040260200160405190810160405280929190818152602001828054600181600116156101000203166002900480156117b25780601f10611787576101008083540402835291602001916117b2565b820191906000526020600020905b81548152906001019060200180831161179557829003601f168201915b50505050508152602001600282018054600181600116156101000203166002900480601f0160208091040260200160405190810160405280929190818152602001828054600181600116156101000203166002900480156118545780601f1061182957610100808354040283529160200191611854565b820191906000526020600020905b81548152906001019060200180831161183757829003601f168201915b50505050508152505081525050905092915050565b6118748383836126ee565b505050565b611881611f70565b6118c0576040517f08c379a00000000000000000000000000000000000000000000000000000000081526004016118b7906140a2565b60405180910390fd5b600073ffffffffffffffffffffffffffffffffffffffff166000809054906101000a900473ffffffffffffffffffffffffffffffffffffffff1673ffffffffffffffffffffffffffffffffffffffff167f5c486528ec3e3f0ea91181cff8116f02bfa350e03b8b6f12e00765adbb5af85c60405160405180910390a360008060006101000a81548173ffffffffffffffffffffffffffffffffffffffff021916908373ffffffffffffffffffffffffffffffffffffffff160217905550565b6119883361274e565b565b61199e33600361242390919063ffffffff16565b6119dd576040517f08c379a00000000000000000000000000000000000000000000000000000000081526004016119d490614122565b60405180910390fd5b82600360078111156119eb57fe5b6009600083815260200190815260200160002060040160149054906101000a900460ff166007811115611a1a57fe5b14611a5a576040517f08c379a0000000000000000000000000000000000000000000000000000000008152600401611a5190614082565b60405180910390fd5b6009600085815260200190815260200160002060050160009054906101000a900473ffffffffffffffffffffffffffffffffffffffff168073ffffffffffffffffffffffffffffffffffffffff163373ffffffffffffffffffffffffffffffffffffffff1614611aff576040517f08c379a0000000000000000000000000000000000000000000000000000000008152600401611af690613fc2565b60405180910390fd5b600060096000878152602001908152602001600020905060048160040160146101000a81548160ff02191690836007811115611b3757fe5b0217905550611b4585612009565b8160070160006101000a81548173ffffffffffffffffffffffffffffffffffffffff021916908373ffffffffffffffffffffffffffffffffffffffff16021790555084816008016002019080519060200190611ba2929190612dd3565b508360086000888152602001908152602001600020604051611bc390613eca565b9081526020016040518091039020819055507f40557acb2ee4dc77f56ffb057df48183f6914c97d92dbc8b31c79d83ddaa746c86604051611c0491906141e4565b60405180910390a1505050505050565b60006001800182604051611c289190613e74565b908152602001604051809103902060010160009054906101000a900473ffffffffffffffffffffffffffffffffffffffff169050919050565b6000611c798383600361254b9092919063ffffffff16565b905092915050565b611c9533600161242390919063ffffffff16565b611cd4576040517f08c379a0000000000000000000000000000000000000000000000000000000008152600401611ccb90614102565b60405180910390fd5b82600780811115611ce157fe5b6009600083815260200190815260200160002060040160149054906101000a900460ff166007811115611d1057fe5b14611d50576040517f08c379a0000000000000000000000000000000000000000000000000000000008152600401611d4790614022565b60405180910390fd5b6009600085815260200190815260200160002060060160009054906101000a900473ffffffffffffffffffffffffffffffffffffffff168073ffffffffffffffffffffffffffffffffffffffff163373ffffffffffffffffffffffffffffffffffffffff1614611df5576040517f08c379a0000000000000000000000000000000000000000000000000000000008152600401611dec90613fc2565b60405180910390fd5b600060096000878152602001908152602001600020905060028160040160146101000a81548160ff02191690836007811115611e2d57fe5b021790555084816008016001019080519060200190611e4d929190612dd3565b50611e578561093c565b8160050160006101000a81548173ffffffffffffffffffffffffffffffffffffffff021916908373ffffffffffffffffffffffffffffffffffffffff1602179055508360086000888152602001908152602001600020604051611eb990613f1e565b9081526020016040518091039020819055507ff00b9a5725b80c54016f42114f6ed7792d22eecb116011c4afac29c57bef6c9586604051611efa91906141e4565b60405180910390a1505050505050565b6000611f228383600561254b9092919063ffffffff16565b905092915050565b60008060009054906101000a900473ffffffffffffffffffffffffffffffffffffffff16905090565b6000611f6982600361242390919063ffffffff16565b9050919050565b60008060009054906101000a900473ffffffffffffffffffffffffffffffffffffffff1673ffffffffffffffffffffffffffffffffffffffff163373ffffffffffffffffffffffffffffffffffffffff1614905090565b600060011515600560010183604051611fe09190613e74565b908152602001604051809103902060010160149054906101000a900460ff161515149050919050565b600060056001018260405161201e9190613e74565b908152602001604051809103902060010160009054906101000a900473ffffffffffffffffffffffffffffffffffffffff169050919050565b6120628383836127a8565b505050565b61207b33600561242390919063ffffffff16565b6120ba576040517f08c379a00000000000000000000000000000000000000000000000000000000081526004016120b190614162565b60405180910390fd5b81600460078111156120c857fe5b6009600083815260200190815260200160002060040160149054906101000a900460ff1660078111156120f757fe5b14612137576040517f08c379a000000000000000000000000000000000000000000000000000000000815260040161212e90614002565b60405180910390fd5b6000600960008581526020019081526020016000209050338160040160006101000a81548173ffffffffffffffffffffffffffffffffffffffff021916908373ffffffffffffffffffffffffffffffffffffffff16021790555060058160040160146101000a81548160ff021916908360078111156121b257fe5b021790555082600860008681526020019081526020016000206040516121d790613ef4565b9081526020016040518091039020819055507f610c78812ba3436587e66c76666902ef64e85085f07194426f288ac8fc9844f58460405161221891906141e4565b60405180910390a150505050565b61222f33612808565b565b600a5481565b600061224d82600561242390919063ffffffff16565b9050919050565b61225c611f70565b61229b576040517f08c379a0000000000000000000000000000000000000000000000000000000008152600401612292906140a2565b60405180910390fd5b6122a481612862565b50565b6122bb33600561242390919063ffffffff16565b6122fa576040517f08c379a00000000000000000000000000000000000000000000000000000000081526004016122f190614162565b60405180910390fd5b816000600781111561230857fe5b6009600083815260200190815260200160002060040160149054906101000a900460ff16600781111561233757fe5b14612377576040517f08c379a000000000000000000000000000000000000000000000000000000000815260040161236e90614142565b60405180910390fd5b600060096000858152602001908152602001600020905060018160040160146101000a81548160ff021916908360078111156123af57fe5b021790555082600860008681526020019081526020016000206040516123d490613f09565b9081526020016040518091039020819055507f9979644c1458db333f21e842c2df32cb4724751d18e9bbbe25307f91b181bd0e8460405161241591906141e4565b60405180910390a150505050565b60008073ffffffffffffffffffffffffffffffffffffffff168273ffffffffffffffffffffffffffffffffffffffff161415612494576040517f08c379a000000000000000000000000000000000000000000000000000000000815260040161248b90613fe2565b60405180910390fd5b8260000160008373ffffffffffffffffffffffffffffffffffffffff1673ffffffffffffffffffffffffffffffffffffffff16815260200190815260200160002060009054906101000a900460ff16905092915050565b6125038383836003612990909392919063ffffffff16565b8273ffffffffffffffffffffffffffffffffffffffff167fddbf200aa634dc3fb81cfd68583dd1040d1c751d335e1d86b631bde3e977fea860405160405180910390a2505050565b60006001151584600101846040516125639190613e74565b908152602001604051809103902060010160149054906101000a900460ff161515148015612638575073__StringUtils___________________________6346bdca9a85600101856040516125b89190613e74565b9081526020016040518091039020600001846040518363ffffffff1660e01b81526004016125e7929190613f8b565b60206040518083038186803b1580156125ff57600080fd5b505af4158015612613573d6000803e3d6000fd5b505050506040513d601f19601f8201168201806040525061263791908101906130a2565b5b1561268857836001018360405161264f9190613e74565b908152602001604051809103902060010160009054906101000a900473ffffffffffffffffffffffffffffffffffffffff16905061268d565b600090505b9392505050565b6126a8816003612b8090919063ffffffff16565b8073ffffffffffffffffffffffffffffffffffffffff167f126174f6cf49c81cdb4a9214c6b8f037bef55b4ec31e4fc776cea2a1c8a88d5960405160405180910390a250565b6127068383836001612990909392919063ffffffff16565b8273ffffffffffffffffffffffffffffffffffffffff167f561138658ca49a8540dc70dcfe64c9026c1c5b9344642242dd6562970f9c127860405160405180910390a2505050565b612762816005612b8090919063ffffffff16565b8073ffffffffffffffffffffffffffffffffffffffff167fceb8b5081e60cbeafb2db1ed5f2ef32309a5ba1d0d74ac127be270181f297e5860405160405180910390a250565b6127c08383836005612990909392919063ffffffff16565b8273ffffffffffffffffffffffffffffffffffffffff167f187ea8b96b8ec4b770e46a85aa7421402f105827e5d2bb0705259f060c6043cb60405160405180910390a2505050565b61281c816001612b8090919063ffffffff16565b8073ffffffffffffffffffffffffffffffffffffffff167f2fed5abf6a80d6dfe30b4895481b2fc5d7dce5f8f7b931832f4a2947d5040c7f60405160405180910390a250565b600073ffffffffffffffffffffffffffffffffffffffff168173ffffffffffffffffffffffffffffffffffffffff1614156128d2576040517f08c379a00000000000000000000000000000000000000000000000000000000081526004016128c9906140e2565b60405180910390fd5b8073ffffffffffffffffffffffffffffffffffffffff166000809054906101000a900473ffffffffffffffffffffffffffffffffffffffff1673ffffffffffffffffffffffffffffffffffffffff167f5c486528ec3e3f0ea91181cff8116f02bfa350e03b8b6f12e00765adbb5af85c60405160405180910390a3806000806101000a81548173ffffffffffffffffffffffffffffffffffffffff021916908373ffffffffffffffffffffffffffffffffffffffff16021790555050565b600073ffffffffffffffffffffffffffffffffffffffff168373ffffffffffffffffffffffffffffffffffffffff161415612a00576040517f08c379a00000000000000000000000000000000000000000000000000000000081526004016129f790613fe2565b60405180910390fd5b612a0a8484612423565b15612a4a576040517f08c379a0000000000000000000000000000000000000000000000000000000008152600401612a4190614062565b60405180910390fd5b60018460000160008573ffffffffffffffffffffffffffffffffffffffff1673ffffffffffffffffffffffffffffffffffffffff16815260200190815260200160002060006101000a81548160ff021916908315150217905550828460010183604051612ab79190613e74565b908152602001604051809103902060010160006101000a81548173ffffffffffffffffffffffffffffffffffffffff021916908373ffffffffffffffffffffffffffffffffffffffff160217905550808460010183604051612b199190613e74565b90815260200160405180910390206000019080519060200190612b3d929190612dd3565b5060018460010183604051612b529190613e74565b908152602001604051809103902060010160146101000a81548160ff02191690831515021790555050505050565b600073ffffffffffffffffffffffffffffffffffffffff168173ffffffffffffffffffffffffffffffffffffffff161415612bf0576040517f08c379a0000000000000000000000000000000000000000000000000000000008152600401612be790613fe2565b60405180910390fd5b612bfa8282612423565b612c39576040517f08c379a0000000000000000000000000000000000000000000000000000000008152600401612c3090614182565b60405180910390fd5b60008260000160008373ffffffffffffffffffffffffffffffffffffffff1673ffffffffffffffffffffffffffffffffffffffff16815260200190815260200160002060006101000a81548160ff0219169083151502179055505050565b60405180610140016040528060008152602001600081526020016060815260200160608152602001600073ffffffffffffffffffffffffffffffffffffffff16815260200160006007811115612ce957fe5b8152602001600073ffffffffffffffffffffffffffffffffffffffff168152602001600073ffffffffffffffffffffffffffffffffffffffff168152602001600073ffffffffffffffffffffffffffffffffffffffff168152602001612d4d612e53565b81525090565b828054600181600116156101000203166002900490600052602060002090601f016020900481019282601f10612d9457805160ff1916838001178555612dc2565b82800160010185558215612dc2579182015b82811115612dc1578251825591602001919060010190612da6565b5b509050612dcf9190612e74565b5090565b828054600181600116156101000203166002900490600052602060002090601f016020900481019282601f10612e1457805160ff1916838001178555612e42565b82800160010185558215612e42579182015b82811115612e41578251825591602001919060010190612e26565b5b509050612e4f9190612e74565b5090565b60405180606001604052806060815260200160608152602001606081525090565b612e9691905b80821115612e92576000816000905550600101612e7a565b5090565b90565b600081359050612ea8816143cc565b92915050565b600081359050612ebd816143e3565b92915050565b600081519050612ed2816143fa565b92915050565b600082601f830112612ee957600080fd5b8135612efc612ef78261422c565b6141ff565b91508082526020830160208301858383011115612f1857600080fd5b612f2383828461436c565b50505092915050565b600082601f830112612f3d57600080fd5b8135612f50612f4b82614258565b6141ff565b91508082526020830160208301858383011115612f6c57600080fd5b612f7783828461436c565b50505092915050565b600081359050612f8f81614411565b92915050565b600060208284031215612fa757600080fd5b6000612fb584828501612e99565b91505092915050565b600060208284031215612fd057600080fd5b6000612fde84828501612eae565b91505092915050565b60008060408385031215612ffa57600080fd5b600061300885828601612eae565b925050602061301985828601612f80565b9150509250929050565b60008060006060848603121561303857600080fd5b600061304686828701612e99565b935050602084013567ffffffffffffffff81111561306357600080fd5b61306f86828701612f2c565b925050604084013567ffffffffffffffff81111561308c57600080fd5b61309886828701612f2c565b9150509250925092565b6000602082840312156130b457600080fd5b60006130c284828501612ec3565b91505092915050565b6000602082840312156130dd57600080fd5b600082013567ffffffffffffffff8111156130f757600080fd5b61310384828501612f2c565b91505092915050565b6000806040838503121561311f57600080fd5b600083013567ffffffffffffffff81111561313957600080fd5b61314585828601612f2c565b925050602083013567ffffffffffffffff81111561316257600080fd5b61316e85828601612f2c565b9150509250929050565b6000806040838503121561318b57600080fd5b600061319985828601612f80565b925050602083013567ffffffffffffffff8111156131b657600080fd5b6131c285828601612ed8565b9150509250929050565b6000806000606084860312156131e157600080fd5b60006131ef86828701612f80565b935050602084013567ffffffffffffffff81111561320c57600080fd5b61321886828701612f2c565b925050604061322986828701612f80565b9150509250925092565b600080600080600080600060e0888a03121561324e57600080fd5b600061325c8a828b01612f80565b975050602088013567ffffffffffffffff81111561327957600080fd5b6132858a828b01612f2c565b96505060406132968a828b01612f80565b955050606088013567ffffffffffffffff8111156132b357600080fd5b6132bf8a828b01612f2c565b94505060806132d08a828b01612eae565b93505060a088013567ffffffffffffffff8111156132ed57600080fd5b6132f98a828b01612f2c565b92505060c061330a8a828b01612f80565b91505092959891949750929550565b6000806040838503121561332c57600080fd5b600061333a85828601612f80565b925050602061334b85828601612f80565b9150509250929050565b61335e816142ff565b82525050565b61336d816142ed565b82525050565b61337c81614311565b82525050565b61338b8161435a565b82525050565b600061339c826142a4565b6133a681856142c0565b93506133b681856020860161437b565b6133bf816143ae565b840191505092915050565b60006133d5826142a4565b6133df81856142d1565b93506133ef81856020860161437b565b6133f8816143ae565b840191505092915050565b600061340e826142a4565b61341881856142e2565b935061342881856020860161437b565b80840191505092915050565b600061343f82614299565b61344981856142af565b935061345981856020860161437b565b613462816143ae565b840191505092915050565b60008154600181166000811461348a57600181146134b0576134f4565b607f600283041661349b81876142d1565b955060ff1983168652602086019350506134f4565b600282046134be81876142d1565b95506134c985614284565b60005b828110156134eb578154818901526001820191506020810190506134cc565b80880195505050505b505092915050565b6000613509602a836142c0565b91507f54686973206163636f756e74206973206e6f7420746865206f776e6572206f6660008301527f2074686973206974656d000000000000000000000000000000000000000000006020830152604082019050919050565b600061356f6009836142e2565b91507f50757263686173656400000000000000000000000000000000000000000000006000830152600982019050919050565b60006135af601e836142c0565b91507f416464726573732063616e6e6f74206265207a65726f206164647265737300006000830152602082019050919050565b60006135ef6023836142c0565b91507f546865204974656d206973206e6f7420696e20496e5472616e7369742073746160008301527f74652100000000000000000000000000000000000000000000000000000000006020830152604082019050919050565b60006136556027836142c0565b91507f546865204974656d206973206e6f7420696e204f72646572416363657074656460008301527f20737461746521000000000000000000000000000000000000000000000000006020830152604082019050919050565b60006136bb602c836142c0565b91507f546865204974656d206973206e6f7420696e204f72646572526571756573745060008301527f6c616365642073746174652100000000000000000000000000000000000000006020830152604082019050919050565b6000613721600c836142e2565b91507f4d616e75666163747572656400000000000000000000000000000000000000006000830152600c82019050919050565b60006137616022836142c0565b91507f54686973206164647265737320616c726561647920686173207468697320726f60008301527f6c650000000000000000000000000000000000000000000000000000000000006020830152604082019050919050565b60006137c7600d836142e2565b91507f4f726465724163636570746564000000000000000000000000000000000000006000830152600d82019050919050565b60006138076026836142c0565b91507f546865204974656d206973206e6f7420696e204469737452656369657665642060008301527f73746174652100000000000000000000000000000000000000000000000000006020830152604082019050919050565b600061386d6009836142e2565b91507f496e5472616e73697400000000000000000000000000000000000000000000006000830152600982019050919050565b60006138ad6029836142c0565b91507f4f6e6c7920746865206f776e65722063616e20706572666f726d20746869732060008301527f6f7065726174696f6e00000000000000000000000000000000000000000000006020830152604082019050919050565b6000613913600c836142e2565b91507f44697374526563696576656400000000000000000000000000000000000000006000830152600c82019050919050565b6000613953600e836142e2565b91507f56656e646f7252656369657665640000000000000000000000000000000000006000830152600e82019050919050565b60006139936021836142c0565b91507f546865204974656d206973206e6f7420696e205368697070656420737461746560008301527f21000000000000000000000000000000000000000000000000000000000000006020830152604082019050919050565b60006139f96021836142c0565b91507f546865206e6577204f776e65722063616e6e6f7420626520616464726573732060008301527f30000000000000000000000000000000000000000000000000000000000000006020830152604082019050919050565b6000613a5f6012836142e2565b91507f4f7264657252657175657374506c6163656400000000000000000000000000006000830152601282019050919050565b6000613a9f6025836142c0565b91507f54686973206163636f756e7420686173206e6f204d616e75666163747572657260008301527f20526f6c650000000000000000000000000000000000000000000000000000006020830152604082019050919050565b6000613b056024836142c0565b91507f54686973206163636f756e7420686173206e6f204469737472696275746f722060008301527f526f6c65000000000000000000000000000000000000000000000000000000006020830152604082019050919050565b6000613b6b6026836142c0565b91507f546865204974656d206973206e6f7420696e204d616e7566616374757265642060008301527f73746174652100000000000000000000000000000000000000000000000000006020830152604082019050919050565b6000613bd1601f836142c0565b91507f54686973206163636f756e7420686173206e6f2056656e646f7220526f6c65006000830152602082019050919050565b6000613c116028836142c0565b91507f54686973206164647265737320646f6573206e6f74206861766520746869732060008301527f726f6c65207965740000000000000000000000000000000000000000000000006020830152604082019050919050565b6000613c776007836142e2565b91507f53686970706564000000000000000000000000000000000000000000000000006000830152600782019050919050565b6000613cb76028836142c0565b91507f546865204974656d206973206e6f7420696e2056656e646f725265636965766560008301527f64207374617465210000000000000000000000000000000000000000000000006020830152604082019050919050565b60006060830160008301518482036000860152613d2d8282613434565b91505060208301518482036020860152613d478282613434565b91505060408301518482036040860152613d618282613434565b9150508091505092915050565b600061014083016000830151613d876000860182613e56565b506020830151613d9a6020860182613e56565b5060408301518482036040860152613db28282613434565b91505060608301518482036060860152613dcc8282613434565b9150506080830151613de16080860182613355565b5060a0830151613df460a0860182613382565b5060c0830151613e0760c0860182613355565b5060e0830151613e1a60e0860182613355565b50610100830151613e2f610100860182613355565b50610120830151848203610120860152613e498282613d10565b9150508091505092915050565b613e5f81614350565b82525050565b613e6e81614350565b82525050565b6000613e808284613403565b915081905092915050565b6000613e9682613562565b9150819050919050565b6000613eab82613714565b9150819050919050565b6000613ec0826137ba565b9150819050919050565b6000613ed582613860565b9150819050919050565b6000613eea82613906565b9150819050919050565b6000613eff82613946565b9150819050919050565b6000613f1482613a52565b9150819050919050565b6000613f2982613c6a565b9150819050919050565b6000602082019050613f486000830184613364565b92915050565b6000602082019050613f636000830184613373565b92915050565b60006020820190508181036000830152613f838184613391565b905092915050565b60006040820190508181036000830152613fa5818561346d565b90508181036020830152613fb981846133ca565b90509392505050565b60006020820190508181036000830152613fdb816134fc565b9050919050565b60006020820190508181036000830152613ffb816135a2565b9050919050565b6000602082019050818103600083015261401b816135e2565b9050919050565b6000602082019050818103600083015261403b81613648565b9050919050565b6000602082019050818103600083015261405b816136ae565b9050919050565b6000602082019050818103600083015261407b81613754565b9050919050565b6000602082019050818103600083015261409b816137fa565b9050919050565b600060208201905081810360008301526140bb816138a0565b9050919050565b600060208201905081810360008301526140db81613986565b9050919050565b600060208201905081810360008301526140fb816139ec565b9050919050565b6000602082019050818103600083015261411b81613a92565b9050919050565b6000602082019050818103600083015261413b81613af8565b9050919050565b6000602082019050818103600083015261415b81613b5e565b9050919050565b6000602082019050818103600083015261417b81613bc4565b9050919050565b6000602082019050818103600083015261419b81613c04565b9050919050565b600060208201905081810360008301526141bb81613caa565b9050919050565b600060208201905081810360008301526141dc8184613d6e565b905092915050565b60006020820190506141f96000830184613e65565b92915050565b6000604051905081810181811067ffffffffffffffff8211171561422257600080fd5b8060405250919050565b600067ffffffffffffffff82111561424357600080fd5b601f19601f8301169050602081019050919050565b600067ffffffffffffffff82111561426f57600080fd5b601f19601f8301169050602081019050919050565b60008190508160005260206000209050919050565b600081519050919050565b600081519050919050565b600082825260208201905092915050565b600082825260208201905092915050565b600082825260208201905092915050565b600081905092915050565b60006142f882614330565b9050919050565b600061430a82614330565b9050919050565b60008115159050919050565b600081905061432b826143bf565b919050565b600073ffffffffffffffffffffffffffffffffffffffff82169050919050565b6000819050919050565b60006143658261431d565b9050919050565b82818337600083830152505050565b60005b8381101561439957808201518184015260208101905061437e565b838111156143a8576000848401525b50505050565b6000601f19601f8301169050919050565b600881106143c957fe5b50565b6143d5816142ed565b81146143e057600080fd5b50565b6143ec816142ff565b81146143f757600080fd5b50565b61440381614311565b811461440e57600080fd5b50565b61441a81614350565b811461442557600080fd5b5056fea2646970667358221220e8359d4b48402b8b56322d46824dc73c5890d5f01c709dcc08efb5c57be57fcd64736f6c63430006000033",
  "source": "pragma solidity >=0.6.0 <0.9.0;\r\npragma experimental ABIEncoderV2;\r\nimport \"./accessControl/DistributorRole.sol\";\r\nimport \"./accessControl/ManufacturerRole.sol\";\r\nimport \"./accessControl/VendorRole.sol\";\r\nimport \"./core/Ownable.sol\";\r\n\r\ncontract ProductTracking is\r\nOwnable,\r\nManufacturerRole,\r\nDistributorRole,\r\nVendorRole\r\n{\r\n\r\n\r\n    struct Product {\r\n        uint256 sku;\r\n        uint256 productID;\r\n        string name;\r\n        string desc;\r\n        address payable ownerID;\r\n        State currentStatus;\r\n        address payable distributorID;\r\n        address payable manufacturerID;\r\n        address payable vendorID;\r\n        Name entityNames;\r\n    }\r\n    struct Name {\r\n        string manufacturerName;\r\n        string distributorName;\r\n        string vendorName;\r\n    }\r\n    //TODO: Track the journey\r\n    mapping(uint256 => string[]) productsHistory;\r\n    mapping(uint256 => mapping(string => uint256)) public productStamp;\r\n\r\n    mapping(uint256 => Product) products;\r\n\r\n    uint256 public productsCount;\r\n\r\n    enum State {\r\n        Manufactured, // 0\r\n        OrderRequestPlaced, // 1\r\n        Shipped, // 2\r\n        DistRecieved, // 3\r\n        InTransit, // 4\r\n        VendorRecieved, // 5\r\n        Purchased, // 6\r\n        OrderAccepted //7\r\n    }\r\n\r\n    State constant defaultState = State.Manufactured;\r\n\r\n    // Define 7 events with the same 8 state values and accept 'upc' as input argument\r\n    event Manufactured(uint256 upc);\r\n    event OrderRequestPlaced(uint256 upc);\r\n    event OrderAccepted(uint256 upc);\r\n    event Shipped(uint256 upc);\r\n    event DistRecieved(uint256 upc);\r\n    event InTransit(uint256 upc);\r\n    event VendorRecieved(uint256 upc);\r\n    event Purchased(uint256 upc);\r\n\r\n    constructor() public {\r\n    }\r\n    function getProduct(address payable _address, uint256 index) public view returns (Product memory) {\r\n        return products[index];\r\n    }\r\n\r\n\r\n    function getRole(address payable _address) public view returns (string memory) {\r\n        if (super.isManufacturer(_address)) {\r\n            return \"manufacturer\";\r\n        } else if (super.isVendor(_address)) {\r\n            return \"vendor\";\r\n        } else if (super.isDistributor(_address)) {\r\n            return \"distributor\";\r\n        }\r\n        return \"\";\r\n    }\r\n\r\n    function login(string memory userName, string memory password) public view returns (address) {\r\n        if (super.isManufacturerViaName(userName)) {\r\n            return super.loginManufacturer(userName, password);\r\n        } else if (super.isVendorViaName(userName)) {\r\n            return super.loginVendor(userName, password);\r\n        } else if (super.isDistributorViaName(userName)) {\r\n            return super.loginDistributor(userName, password);\r\n        }\r\n        return address(0);\r\n    }\r\n\r\n    modifier verifyCaller(address payable _address) {\r\n        require(\r\n            msg.sender == _address,\r\n            \"This account is not the owner of this item\"\r\n        );\r\n        _;\r\n    }\r\n\r\n    modifier manufactured(uint256 _upc) {\r\n        require(\r\n            products[_upc].currentStatus == State.Manufactured,\r\n            \"The Item is not in Manufactured state!\"\r\n        );\r\n        _;\r\n    }\r\n\r\n    modifier orderAcceptedCheck(uint256 _upc) {\r\n        require(\r\n            products[_upc].currentStatus == State.OrderAccepted,\r\n            \"The Item is not in OrderAccepted state!\"\r\n        );\r\n        _;\r\n    }\r\n\r\n    modifier orderRequestPlaced(uint256 _upc) {\r\n        require(\r\n            products[_upc].currentStatus == State.OrderRequestPlaced,\r\n            \"The Item is not in OrderRequestPlaced state!\"\r\n        );\r\n        _;\r\n    }\r\n\r\n\r\n    modifier shipped(uint256 _upc) {\r\n        require(\r\n            products[_upc].currentStatus == State.Shipped,\r\n            \"The Item is not in Shipped state!\"\r\n        );\r\n        _;\r\n    }\r\n\r\n    modifier distRecieved(uint256 _upc) {\r\n        require(\r\n            products[_upc].currentStatus == State.DistRecieved,\r\n            \"The Item is not in DistRecieved state!\"\r\n        );\r\n        _;\r\n    }\r\n\r\n    modifier inTransit(uint256 _upc) {\r\n        require(\r\n            products[_upc].currentStatus == State.InTransit,\r\n            \"The Item is not in InTransit state!\"\r\n        );\r\n        _;\r\n    }\r\n\r\n    modifier vendorRecieved(uint256 _upc) {\r\n        require(\r\n            products[_upc].currentStatus == State.VendorRecieved,\r\n            \"The Item is not in VendorRecieved state!\"\r\n        );\r\n        _;\r\n    }\r\n\r\n    modifier purchased(uint256 _upc) {\r\n        require(\r\n            products[_upc].currentStatus == State.Purchased,\r\n            \"The Item is not in Purchased state!\"\r\n        );\r\n        _;\r\n    }\r\n\r\n    function manufactureProduct(\r\n        uint256 _upc,\r\n        string memory name,\r\n        uint256 _sku,\r\n        string memory desc,\r\n        address payable _originManufacturerID,\r\n        string memory manufacturerName,\r\n        uint256 time\r\n    ) public onlyManufacturer {\r\n        Product memory newItem;\r\n        newItem.ownerID = _originManufacturerID;\r\n        newItem.manufacturerID = _originManufacturerID;\r\n        //NEW ADDITION\r\n        newItem.productID = _upc;\r\n        newItem.name = name;\r\n        newItem.sku = _sku;\r\n        newItem.desc = desc;\r\n        newItem.entityNames.manufacturerName = manufacturerName;\r\n\r\n        productsCount = productsCount + 1;\r\n\r\n        newItem.currentStatus = defaultState;\r\n        products[_upc] = newItem;\r\n        productStamp[_upc][\"Manufactured\"] = time;\r\n\r\n        emit Manufactured(_upc);\r\n    }\r\n\r\n    function placeOrderRequest(uint256 _upc, uint256 time)\r\n    public onlyVendor\r\n    manufactured(_upc)\r\n    {\r\n        Product storage existingItem = products[_upc];\r\n        existingItem.currentStatus = State.OrderRequestPlaced;\r\n        productStamp[_upc][\"OrderRequestPlaced\"] = time;\r\n        emit OrderRequestPlaced(_upc);\r\n    }\r\n\r\n    function orderAccepted(uint256 _upc, uint256 time)\r\n    public onlyManufacturer\r\n    orderRequestPlaced(_upc)\r\n    {\r\n        Product storage existingItem = products[_upc];\r\n        existingItem.currentStatus = State.OrderAccepted;\r\n        productStamp[_upc][\"OrderAccepted\"] = time;\r\n        emit OrderAccepted(_upc);\r\n    }\r\n\r\n\r\n    function shipToDistributor(uint256 _upc, string memory distributorName, uint256 time)\r\n    public\r\n    onlyManufacturer\r\n    orderAcceptedCheck(_upc)\r\n    verifyCaller(products[_upc].manufacturerID)\r\n    {\r\n        Product storage existingItem = products[_upc];\r\n        existingItem.currentStatus = State.Shipped;\r\n        existingItem.entityNames.distributorName = distributorName;\r\n        existingItem.distributorID = payable(super.getDistributorId(distributorName));\r\n        productStamp[_upc][\"Shipped\"] = time;\r\n        emit Shipped(_upc);\r\n    }\r\n\r\n    function recieveAsDistributor(uint256 _upc, uint256 time)\r\n    public\r\n    onlyDistributor\r\n    shipped(_upc)\r\n    {\r\n        Product storage existingItem = products[_upc];\r\n        existingItem.ownerID = msg.sender;\r\n        existingItem.currentStatus = State.DistRecieved;\r\n        productStamp[_upc][\"DistRecieved\"] = time;\r\n        emit DistRecieved(_upc);\r\n    }\r\n\r\n    function shipToVendor(uint256 _upc, string memory vendorName, uint256 time)\r\n    public onlyDistributor\r\n    distRecieved(_upc)\r\n    verifyCaller(products[_upc].distributorID)\r\n    {\r\n        Product storage existingItem = products[_upc];\r\n        existingItem.currentStatus = State.InTransit;\r\n        existingItem.vendorID = payable(super.getVendorId(vendorName));\r\n        existingItem.entityNames.vendorName = vendorName;\r\n        productStamp[_upc][\"InTransit\"] = time;\r\n        emit InTransit(_upc);\r\n    }\r\n\r\n    function recieveAsVendor(uint256 _upc, uint256 time) public onlyVendor inTransit(_upc) {\r\n        Product storage existingItem = products[_upc];\r\n        existingItem.ownerID = msg.sender;\r\n        existingItem.currentStatus = State.VendorRecieved;\r\n        productStamp[_upc][\"VendorRecieved\"] = time;\r\n        emit VendorRecieved(_upc);\r\n    }\r\n\r\n    function sellProduct(uint256 _upc, uint256 time)\r\n    public\r\n    onlyVendor\r\n    vendorRecieved(_upc)\r\n    verifyCaller(products[_upc].vendorID)\r\n    {\r\n        Product storage existingItem = products[_upc];\r\n        existingItem.currentStatus = State.Purchased;\r\n        productStamp[_upc][\"Purchased\"] = time;\r\n        emit Purchased(_upc);\r\n    }\r\n    //IMPORTANT, can add 'address payable customerName' to parameters and then set owner id to that of customerName. I didn't do it, because I didn't find it important for the item's history.\r\n    //But we can easily add it in and make use of that. It is up to everyone to agree on\r\n    //Just know that without that, the owner role is practically useless\r\n\r\n    // function compareStrings (string memory a, string memory b) public view returns (bool) {\r\n    //     return (keccak256(abi.encodePacked((a))) == keccak256(abi.encodePacked((b))));\r\n    // }\r\n}\r\n",
  "sourcePath": "/mnt/c/asus-files/uci/quarter2/capstone/blockchain/react-blockchain/contracts/ProductTracking.sol",
  "compiler": {
    "name": "solc",
    "version": "0.6.0+commit.26b70077.Emscripten.clang"
  },
  "schemaVersion": "3.4.7",
  "updatedAt": "2022-06-09T03:34:38.155Z",
  "networkType": "ethereum",
  "devdoc": {
    "methods": {}
  },
  "userdoc": {
    "methods": {
      "isOwner()": {
        "notice": "Check if the calling address is the owner of the contract"
      },
      "owner()": {
        "notice": "Look up the address of the owner"
      },
      "renounceOwnership()": {
        "notice": "Define a function to renounce ownerhip"
      },
      "transferOwnership(address)": {
        "notice": "Define a public function to transfer ownership"
      }
    }
  }
}