{
  "contractName": "ProductTracking",
  "abi": [
    {
      "inputs": [],
      "payable": false,
      "stateMutability": "nonpayable",
      "type": "constructor"
    },
    {
      "anonymous": false,
      "inputs": [
        {
          "indexed": false,
          "internalType": "uint256",
          "name": "upc",
          "type": "uint256"
        }
      ],
      "name": "DistRecieved",
      "type": "event"
    },
    {
      "anonymous": false,
      "inputs": [
        {
          "indexed": true,
          "internalType": "address",
          "name": "account",
          "type": "address"
        }
      ],
      "name": "DistributorAdded",
      "type": "event"
    },
    {
      "anonymous": false,
      "inputs": [
        {
          "indexed": true,
          "internalType": "address",
          "name": "account",
          "type": "address"
        }
      ],
      "name": "DistributorRemoved",
      "type": "event"
    },
    {
      "anonymous": false,
      "inputs": [
        {
          "indexed": false,
          "internalType": "uint256",
          "name": "upc",
          "type": "uint256"
        }
      ],
      "name": "InTransit",
      "type": "event"
    },
    {
      "anonymous": false,
      "inputs": [
        {
          "indexed": false,
          "internalType": "uint256",
          "name": "upc",
          "type": "uint256"
        }
      ],
      "name": "Manufactured",
      "type": "event"
    },
    {
      "anonymous": false,
      "inputs": [
        {
          "indexed": true,
          "internalType": "address",
          "name": "account",
          "type": "address"
        }
      ],
      "name": "ManufacturerAdded",
      "type": "event"
    },
    {
      "anonymous": false,
      "inputs": [
        {
          "indexed": true,
          "internalType": "address",
          "name": "account",
          "type": "address"
        }
      ],
      "name": "ManufacturerRemoved",
      "type": "event"
    },
    {
      "anonymous": false,
      "inputs": [
        {
          "indexed": false,
          "internalType": "uint256",
          "name": "upc",
          "type": "uint256"
        }
      ],
      "name": "OrderAccepted",
      "type": "event"
    },
    {
      "anonymous": false,
      "inputs": [
        {
          "indexed": false,
          "internalType": "uint256",
          "name": "upc",
          "type": "uint256"
        }
      ],
      "name": "OrderRequestPlaced",
      "type": "event"
    },
    {
      "anonymous": false,
      "inputs": [
        {
          "indexed": false,
          "internalType": "uint256",
          "name": "upc",
          "type": "uint256"
        }
      ],
      "name": "Purchased",
      "type": "event"
    },
    {
      "anonymous": false,
      "inputs": [
        {
          "indexed": false,
          "internalType": "uint256",
          "name": "upc",
          "type": "uint256"
        }
      ],
      "name": "Shipped",
      "type": "event"
    },
    {
      "anonymous": false,
      "inputs": [
        {
          "indexed": true,
          "internalType": "address",
          "name": "oldOwner",
          "type": "address"
        },
        {
          "indexed": true,
          "internalType": "address",
          "name": "newOwner",
          "type": "address"
        }
      ],
      "name": "TransferOwnership",
      "type": "event"
    },
    {
      "anonymous": false,
      "inputs": [
        {
          "indexed": true,
          "internalType": "address",
          "name": "account",
          "type": "address"
        }
      ],
      "name": "VendorAdded",
      "type": "event"
    },
    {
      "anonymous": false,
      "inputs": [
        {
          "indexed": false,
          "internalType": "uint256",
          "name": "upc",
          "type": "uint256"
        }
      ],
      "name": "VendorRecieved",
      "type": "event"
    },
    {
      "anonymous": false,
      "inputs": [
        {
          "indexed": true,
          "internalType": "address",
          "name": "account",
          "type": "address"
        }
      ],
      "name": "VendorRemoved",
      "type": "event"
    },
    {
      "constant": false,
      "inputs": [
        {
          "internalType": "address",
          "name": "account",
          "type": "address"
        },
        {
          "internalType": "string",
          "name": "name",
          "type": "string"
        },
        {
          "internalType": "string",
          "name": "password",
          "type": "string"
        }
      ],
      "name": "addDistributor",
      "outputs": [],
      "payable": false,
      "stateMutability": "nonpayable",
      "type": "function"
    },
    {
      "constant": false,
      "inputs": [
        {
          "internalType": "address",
          "name": "account",
          "type": "address"
        },
        {
          "internalType": "string",
          "name": "name",
          "type": "string"
        },
        {
          "internalType": "string",
          "name": "password",
          "type": "string"
        }
      ],
      "name": "addManufacturer",
      "outputs": [],
      "payable": false,
      "stateMutability": "nonpayable",
      "type": "function"
    },
    {
      "constant": false,
      "inputs": [
        {
          "internalType": "address",
          "name": "account",
          "type": "address"
        },
        {
          "internalType": "string",
          "name": "name",
          "type": "string"
        },
        {
          "internalType": "string",
          "name": "password",
          "type": "string"
        }
      ],
      "name": "addVendor",
      "outputs": [],
      "payable": false,
      "stateMutability": "nonpayable",
      "type": "function"
    },
    {
      "constant": true,
      "inputs": [
        {
          "internalType": "address",
          "name": "account",
          "type": "address"
        }
      ],
      "name": "isDistributor",
      "outputs": [
        {
          "internalType": "bool",
          "name": "",
          "type": "bool"
        }
      ],
      "payable": false,
      "stateMutability": "view",
      "type": "function"
    },
    {
      "constant": true,
      "inputs": [
        {
          "internalType": "string",
          "name": "userName",
          "type": "string"
        }
      ],
      "name": "isDistributorViaName",
      "outputs": [
        {
          "internalType": "bool",
          "name": "",
          "type": "bool"
        }
      ],
      "payable": false,
      "stateMutability": "view",
      "type": "function"
    },
    {
      "constant": true,
      "inputs": [
        {
          "internalType": "address",
          "name": "account",
          "type": "address"
        }
      ],
      "name": "isManufacturer",
      "outputs": [
        {
          "internalType": "bool",
          "name": "",
          "type": "bool"
        }
      ],
      "payable": false,
      "stateMutability": "view",
      "type": "function"
    },
    {
      "constant": true,
      "inputs": [
        {
          "internalType": "string",
          "name": "userName",
          "type": "string"
        }
      ],
      "name": "isManufacturerViaName",
      "outputs": [
        {
          "internalType": "bool",
          "name": "",
          "type": "bool"
        }
      ],
      "payable": false,
      "stateMutability": "view",
      "type": "function"
    },
    {
      "constant": true,
      "inputs": [],
      "name": "isOwner",
      "outputs": [
        {
          "internalType": "bool",
          "name": "",
          "type": "bool"
        }
      ],
      "payable": false,
      "stateMutability": "view",
      "type": "function"
    },
    {
      "constant": true,
      "inputs": [
        {
          "internalType": "address",
          "name": "account",
          "type": "address"
        }
      ],
      "name": "isVendor",
      "outputs": [
        {
          "internalType": "bool",
          "name": "",
          "type": "bool"
        }
      ],
      "payable": false,
      "stateMutability": "view",
      "type": "function"
    },
    {
      "constant": true,
      "inputs": [
        {
          "internalType": "string",
          "name": "userName",
          "type": "string"
        }
      ],
      "name": "isVendorViaName",
      "outputs": [
        {
          "internalType": "bool",
          "name": "",
          "type": "bool"
        }
      ],
      "payable": false,
      "stateMutability": "view",
      "type": "function"
    },
    {
      "constant": false,
      "inputs": [],
      "name": "kill",
      "outputs": [],
      "payable": false,
      "stateMutability": "nonpayable",
      "type": "function"
    },
    {
      "constant": true,
      "inputs": [
        {
          "internalType": "string",
          "name": "userName",
          "type": "string"
        },
        {
          "internalType": "string",
          "name": "password",
          "type": "string"
        }
      ],
      "name": "loginDistributor",
      "outputs": [
        {
          "internalType": "address",
          "name": "",
          "type": "address"
        }
      ],
      "payable": false,
      "stateMutability": "view",
      "type": "function"
    },
    {
      "constant": true,
      "inputs": [
        {
          "internalType": "string",
          "name": "userName",
          "type": "string"
        },
        {
          "internalType": "string",
          "name": "password",
          "type": "string"
        }
      ],
      "name": "loginManufacturer",
      "outputs": [
        {
          "internalType": "address",
          "name": "",
          "type": "address"
        }
      ],
      "payable": false,
      "stateMutability": "view",
      "type": "function"
    },
    {
      "constant": true,
      "inputs": [
        {
          "internalType": "string",
          "name": "userName",
          "type": "string"
        },
        {
          "internalType": "string",
          "name": "password",
          "type": "string"
        }
      ],
      "name": "loginVendor",
      "outputs": [
        {
          "internalType": "address",
          "name": "",
          "type": "address"
        }
      ],
      "payable": false,
      "stateMutability": "view",
      "type": "function"
    },
    {
      "constant": true,
      "inputs": [],
      "name": "owner",
      "outputs": [
        {
          "internalType": "address",
          "name": "",
          "type": "address"
        }
      ],
      "payable": false,
      "stateMutability": "view",
      "type": "function"
    },
    {
      "constant": true,
      "inputs": [
        {
          "internalType": "uint256",
          "name": "",
          "type": "uint256"
        }
      ],
      "name": "products",
      "outputs": [
        {
          "internalType": "uint256",
          "name": "sku",
          "type": "uint256"
        },
        {
          "internalType": "uint256",
          "name": "productID",
          "type": "uint256"
        },
        {
          "internalType": "string",
          "name": "name",
          "type": "string"
        },
        {
          "internalType": "string",
          "name": "desc",
          "type": "string"
        },
        {
          "internalType": "address payable",
          "name": "ownerID",
          "type": "address"
        },
        {
          "internalType": "enum ProductTracking.State",
          "name": "currentStatus",
          "type": "uint8"
        },
        {
          "internalType": "address payable",
          "name": "distributorID",
          "type": "address"
        },
        {
          "internalType": "address payable",
          "name": "manufacturerID",
          "type": "address"
        },
        {
          "internalType": "address payable",
          "name": "vendorID",
          "type": "address"
        }
      ],
      "payable": false,
      "stateMutability": "view",
      "type": "function"
    },
    {
      "constant": true,
      "inputs": [],
      "name": "productsCount",
      "outputs": [
        {
          "internalType": "uint256",
          "name": "",
          "type": "uint256"
        }
      ],
      "payable": false,
      "stateMutability": "view",
      "type": "function"
    },
    {
      "constant": false,
      "inputs": [],
      "name": "renounceDistributor",
      "outputs": [],
      "payable": false,
      "stateMutability": "nonpayable",
      "type": "function"
    },
    {
      "constant": false,
      "inputs": [],
      "name": "renounceManufacturer",
      "outputs": [],
      "payable": false,
      "stateMutability": "nonpayable",
      "type": "function"
    },
    {
      "constant": false,
      "inputs": [],
      "name": "renounceOwnership",
      "outputs": [],
      "payable": false,
      "stateMutability": "nonpayable",
      "type": "function"
    },
    {
      "constant": false,
      "inputs": [],
      "name": "renounceVendor",
      "outputs": [],
      "payable": false,
      "stateMutability": "nonpayable",
      "type": "function"
    },
    {
      "constant": false,
      "inputs": [
        {
          "internalType": "address payable",
          "name": "newOwner",
          "type": "address"
        }
      ],
      "name": "transferOwnership",
      "outputs": [],
      "payable": false,
      "stateMutability": "nonpayable",
      "type": "function"
    },
    {
      "constant": true,
      "inputs": [
        {
          "internalType": "address payable",
          "name": "_address",
          "type": "address"
        }
      ],
      "name": "getRole",
      "outputs": [
        {
          "internalType": "string",
          "name": "",
          "type": "string"
        }
      ],
      "payable": false,
      "stateMutability": "view",
      "type": "function"
    },
    {
      "constant": true,
      "inputs": [
        {
          "internalType": "string",
          "name": "userName",
          "type": "string"
        },
        {
          "internalType": "string",
          "name": "password",
          "type": "string"
        }
      ],
      "name": "login",
      "outputs": [
        {
          "internalType": "address",
          "name": "",
          "type": "address"
        }
      ],
      "payable": false,
      "stateMutability": "view",
      "type": "function"
    },
    {
      "constant": false,
      "inputs": [
        {
          "internalType": "uint256",
          "name": "_upc",
          "type": "uint256"
        },
        {
          "internalType": "string",
          "name": "name",
          "type": "string"
        },
        {
          "internalType": "uint256",
          "name": "_sku",
          "type": "uint256"
        },
        {
          "internalType": "string",
          "name": "desc",
          "type": "string"
        },
        {
          "internalType": "address payable",
          "name": "_originManufacturerID",
          "type": "address"
        },
        {
          "internalType": "uint256",
          "name": "time",
          "type": "uint256"
        }
      ],
      "name": "manufactureProduct",
      "outputs": [],
      "payable": false,
      "stateMutability": "nonpayable",
      "type": "function"
    },
    {
      "constant": false,
      "inputs": [
        {
          "internalType": "uint256",
          "name": "_upc",
          "type": "uint256"
        },
        {
          "internalType": "uint256",
          "name": "time",
          "type": "uint256"
        }
      ],
      "name": "placeOrderRequest",
      "outputs": [],
      "payable": false,
      "stateMutability": "nonpayable",
      "type": "function"
    },
    {
      "constant": false,
      "inputs": [
        {
          "internalType": "uint256",
          "name": "_upc",
          "type": "uint256"
        },
        {
          "internalType": "uint256",
          "name": "time",
          "type": "uint256"
        }
      ],
      "name": "orderAccepted",
      "outputs": [],
      "payable": false,
      "stateMutability": "nonpayable",
      "type": "function"
    },
    {
      "constant": false,
      "inputs": [
        {
          "internalType": "uint256",
          "name": "_upc",
          "type": "uint256"
        },
        {
          "internalType": "address payable",
          "name": "distID",
          "type": "address"
        },
        {
          "internalType": "uint256",
          "name": "time",
          "type": "uint256"
        }
      ],
      "name": "shipToDistributor",
      "outputs": [],
      "payable": false,
      "stateMutability": "nonpayable",
      "type": "function"
    },
    {
      "constant": false,
      "inputs": [
        {
          "internalType": "uint256",
          "name": "_upc",
          "type": "uint256"
        },
        {
          "internalType": "uint256",
          "name": "time",
          "type": "uint256"
        }
      ],
      "name": "recieveAsDistributor",
      "outputs": [],
      "payable": false,
      "stateMutability": "nonpayable",
      "type": "function"
    },
    {
      "constant": false,
      "inputs": [
        {
          "internalType": "uint256",
          "name": "_upc",
          "type": "uint256"
        },
        {
          "internalType": "address payable",
          "name": "vendorId",
          "type": "address"
        },
        {
          "internalType": "uint256",
          "name": "time",
          "type": "uint256"
        }
      ],
      "name": "shipToVendor",
      "outputs": [],
      "payable": false,
      "stateMutability": "nonpayable",
      "type": "function"
    },
    {
      "constant": false,
      "inputs": [
        {
          "internalType": "uint256",
          "name": "_upc",
          "type": "uint256"
        },
        {
          "internalType": "uint256",
          "name": "time",
          "type": "uint256"
        }
      ],
      "name": "recieveAsVendor",
      "outputs": [],
      "payable": false,
      "stateMutability": "nonpayable",
      "type": "function"
    },
    {
      "constant": false,
      "inputs": [
        {
          "internalType": "uint256",
          "name": "_upc",
          "type": "uint256"
        },
        {
          "internalType": "uint256",
          "name": "time",
          "type": "uint256"
        }
      ],
      "name": "sellProduct",
      "outputs": [],
      "payable": false,
      "stateMutability": "nonpayable",
      "type": "function"
    }
  ],
  "bytecode": "0x608060405234801561001057600080fd5b506143a0806100206000396000f3fe608060405234801561001057600080fd5b50600436106101f05760003560e01c806376ba15ad1161010f578063b32caa1d116100a2578063e0df7bb611610071578063e0df7bb614611641578063ee54d54f1461165f578063f2fde38b146116bb578063f5e85299146116ff576101f0565b8063b32caa1d14611435578063c10946ab146115a7578063c7bdda72146115df578063de07f34e14611637576101f0565b80638da5cb5b116100de5780638da5cb5b1461129a5780638f0c86fa146112e45780638f32d59b14611340578063990a0deb14611362576101f0565b806376ba15ad14610d6a5780637acc0b2014610d74578063849dda6814610f765780638a77a69714611108576101f0565b806344276733116101875780635fe97db1116101565780635fe97db114610a54578063644241db14610be45780636a992c9f14610bee578063715018a614610d60576101f0565b806344276733146106fa5780634d747b1b146107b757806351b97b2e146107ef57806358467dbc146108c2576101f0565b80632c36a3dd116101c35780632c36a3dd146104ce5780632e08c91d146105065780633c6f758d1461055e57806341c0e1b5146106f0576101f0565b806317d4a491146101f557806318b30a481461025157806325f01162146102895780632a4af4401461035c575b600080fd5b6102376004803603602081101561020b57600080fd5b81019080803573ffffffffffffffffffffffffffffffffffffffff169060200190929190505050611737565b604051808215151515815260200191505060405180910390f35b6102876004803603604081101561026757600080fd5b810190808035906020019092919080359060200190929190505050611754565b005b6103426004803603602081101561029f57600080fd5b81019080803590602001906401000000008111156102bc57600080fd5b8201836020820111156102ce57600080fd5b803590602001918460018302840111640100000000831117156102f057600080fd5b91908080601f016020809104026020016040519081016040528093929190818152602001838380828437600081840152601f19601f8201169050808301925050505050505091929192905050506119f7565b604051808215151515815260200191505060405180910390f35b6104cc6004803603606081101561037257600080fd5b81019080803573ffffffffffffffffffffffffffffffffffffffff169060200190929190803590602001906401000000008111156103af57600080fd5b8201836020820111156103c157600080fd5b803590602001918460018302840111640100000000831117156103e357600080fd5b91908080601f016020809104026020016040519081016040528093929190818152602001838380828437600081840152601f19601f8201169050808301925050505050505091929192908035906020019064010000000081111561044657600080fd5b82018360208201111561045857600080fd5b8035906020019184600183028401116401000000008311171561047a57600080fd5b91908080601f016020809104026020016040519081016040528093929190818152602001838380828437600081840152601f19601f820116905080830192505050505050509192919290505050611a83565b005b610504600480360360408110156104e457600080fd5b810190808035906020019092919080359060200190929190505050611a93565b005b61055c6004803603606081101561051c57600080fd5b8101908080359060200190929190803573ffffffffffffffffffffffffffffffffffffffff16906020019092919080359060200190929190505050611c5d565b005b6106ae6004803603604081101561057457600080fd5b810190808035906020019064010000000081111561059157600080fd5b8201836020820111156105a357600080fd5b803590602001918460018302840111640100000000831117156105c557600080fd5b91908080601f016020809104026020016040519081016040528093929190818152602001838380828437600081840152601f19601f8201169050808301925050505050505091929192908035906020019064010000000081111561062857600080fd5b82018360208201111561063a57600080fd5b8035906020019184600183028401116401000000008311171561065c57600080fd5b91908080601f016020809104026020016040519081016040528093929190818152602001838380828437600081840152601f19601f820116905080830192505050505050509192919290505050611f27565b604051808273ffffffffffffffffffffffffffffffffffffffff1673ffffffffffffffffffffffffffffffffffffffff16815260200191505060405180910390f35b6106f8611f47565b005b61073c6004803603602081101561071057600080fd5b81019080803573ffffffffffffffffffffffffffffffffffffffff169060200190929190505050611fd8565b6040518080602001828103825283818151815260200191508051906020019080838360005b8381101561077c578082015181840152602081019050610761565b50505050905090810190601f1680156107a95780820380516001836020036101000a031916815260200191505b509250505060405180910390f35b6107ed600480360360408110156107cd57600080fd5b8101908080359060200190929190803590602001909291905050506120d3565b005b6108a86004803603602081101561080557600080fd5b810190808035906020019064010000000081111561082257600080fd5b82018360208201111561083457600080fd5b8035906020019184600183028401116401000000008311171561085657600080fd5b91908080601f016020809104026020016040519081016040528093929190818152602001838380828437600081840152601f19601f8201169050808301925050505050505091929192905050506122e0565b604051808215151515815260200191505060405180910390f35b610a12600480360360408110156108d857600080fd5b81019080803590602001906401000000008111156108f557600080fd5b82018360208201111561090757600080fd5b8035906020019184600183028401116401000000008311171561092957600080fd5b91908080601f016020809104026020016040519081016040528093929190818152602001838380828437600081840152601f19601f8201169050808301925050505050505091929192908035906020019064010000000081111561098c57600080fd5b82018360208201111561099e57600080fd5b803590602001918460018302840111640100000000831117156109c057600080fd5b91908080601f016020809104026020016040519081016040528093929190818152602001838380828437600081840152601f19601f82011690508083019250505050505050919291929050505061236d565b604051808273ffffffffffffffffffffffffffffffffffffffff1673ffffffffffffffffffffffffffffffffffffffff16815260200191505060405180910390f35b610be2600480360360c0811015610a6a57600080fd5b810190808035906020019092919080359060200190640100000000811115610a9157600080fd5b820183602082011115610aa357600080fd5b80359060200191846001830284011164010000000083111715610ac557600080fd5b91908080601f016020809104026020016040519081016040528093929190818152602001838380828437600081840152601f19601f8201169050808301925050505050505091929192908035906020019092919080359060200190640100000000811115610b3257600080fd5b820183602082011115610b4457600080fd5b80359060200191846001830284011164010000000083111715610b6657600080fd5b91908080601f016020809104026020016040519081016040528093929190818152602001838380828437600081840152601f19601f820116905080830192505050505050509192919290803573ffffffffffffffffffffffffffffffffffffffff169060200190929190803590602001909291905050506123d7565b005b610bec61274c565b005b610d5e60048036036060811015610c0457600080fd5b81019080803573ffffffffffffffffffffffffffffffffffffffff16906020019092919080359060200190640100000000811115610c4157600080fd5b820183602082011115610c5357600080fd5b80359060200191846001830284011164010000000083111715610c7557600080fd5b91908080601f016020809104026020016040519081016040528093929190818152602001838380828437600081840152601f19601f82011690508083019250505050505050919291929080359060200190640100000000811115610cd857600080fd5b820183602082011115610cea57600080fd5b80359060200191846001830284011164010000000083111715610d0c57600080fd5b91908080601f016020809104026020016040519081016040528093929190818152602001838380828437600081840152601f19601f820116905080830192505050505050509192919290505050612757565b005b610d68612767565b005b610d72612883565b005b610da060048036036020811015610d8a57600080fd5b810190808035906020019092919050505061288e565b604051808a815260200189815260200180602001806020018873ffffffffffffffffffffffffffffffffffffffff1673ffffffffffffffffffffffffffffffffffffffff168152602001876007811115610df657fe5b60ff1681526020018673ffffffffffffffffffffffffffffffffffffffff1673ffffffffffffffffffffffffffffffffffffffff1681526020018573ffffffffffffffffffffffffffffffffffffffff1673ffffffffffffffffffffffffffffffffffffffff1681526020018473ffffffffffffffffffffffffffffffffffffffff1673ffffffffffffffffffffffffffffffffffffffff16815260200183810383528a818151815260200191508051906020019080838360005b83811015610ecc578082015181840152602081019050610eb1565b50505050905090810190601f168015610ef95780820380516001836020036101000a031916815260200191505b50838103825289818151815260200191508051906020019080838360005b83811015610f32578082015181840152602081019050610f17565b50505050905090810190601f168015610f5f5780820380516001836020036101000a031916815260200191505b509b50505050505050505050505060405180910390f35b6110c660048036036040811015610f8c57600080fd5b8101908080359060200190640100000000811115610fa957600080fd5b820183602082011115610fbb57600080fd5b80359060200191846001830284011164010000000083111715610fdd57600080fd5b91908080601f016020809104026020016040519081016040528093929190818152602001838380828437600081840152601f19601f8201169050808301925050505050505091929192908035906020019064010000000081111561104057600080fd5b82018360208201111561105257600080fd5b8035906020019184600183028401116401000000008311171561107457600080fd5b91908080601f016020809104026020016040519081016040528093929190818152602001838380828437600081840152601f19601f820116905080830192505050505050509192919290505050612a99565b604051808273ffffffffffffffffffffffffffffffffffffffff1673ffffffffffffffffffffffffffffffffffffffff16815260200191505060405180910390f35b6112586004803603604081101561111e57600080fd5b810190808035906020019064010000000081111561113b57600080fd5b82018360208201111561114d57600080fd5b8035906020019184600183028401116401000000008311171561116f57600080fd5b91908080601f016020809104026020016040519081016040528093929190818152602001838380828437600081840152601f19601f820116905080830192505050505050509192919290803590602001906401000000008111156111d257600080fd5b8201836020820111156111e457600080fd5b8035906020019184600183028401116401000000008311171561120657600080fd5b91908080601f016020809104026020016040519081016040528093929190818152602001838380828437600081840152601f19601f820116905080830192505050505050509192919290505050612ab9565b604051808273ffffffffffffffffffffffffffffffffffffffff1673ffffffffffffffffffffffffffffffffffffffff16815260200191505060405180910390f35b6112a2612ad9565b604051808273ffffffffffffffffffffffffffffffffffffffff1673ffffffffffffffffffffffffffffffffffffffff16815260200191505060405180910390f35b611326600480360360208110156112fa57600080fd5b81019080803573ffffffffffffffffffffffffffffffffffffffff169060200190929190505050612b02565b604051808215151515815260200191505060405180910390f35b611348612b1f565b604051808215151515815260200191505060405180910390f35b61141b6004803603602081101561137857600080fd5b810190808035906020019064010000000081111561139557600080fd5b8201836020820111156113a757600080fd5b803590602001918460018302840111640100000000831117156113c957600080fd5b91908080601f016020809104026020016040519081016040528093929190818152602001838380828437600081840152601f19601f820116905080830192505050505050509192919290505050612b76565b604051808215151515815260200191505060405180910390f35b6115a56004803603606081101561144b57600080fd5b81019080803573ffffffffffffffffffffffffffffffffffffffff1690602001909291908035906020019064010000000081111561148857600080fd5b82018360208201111561149a57600080fd5b803590602001918460018302840111640100000000831117156114bc57600080fd5b91908080601f016020809104026020016040519081016040528093929190818152602001838380828437600081840152601f19601f8201169050808301925050505050505091929192908035906020019064010000000081111561151f57600080fd5b82018360208201111561153157600080fd5b8035906020019184600183028401116401000000008311171561155357600080fd5b91908080601f016020809104026020016040519081016040528093929190818152602001838380828437600081840152601f19601f820116905080830192505050505050509192919290505050612c03565b005b6115dd600480360360408110156115bd57600080fd5b810190808035906020019092919080359060200190929190505050612c13565b005b611635600480360360608110156115f557600080fd5b8101908080359060200190929190803573ffffffffffffffffffffffffffffffffffffffff16906020019092919080359060200190929190505050612e3d565b005b61163f613106565b005b611649613111565b6040518082815260200191505060405180910390f35b6116a16004803603602081101561167557600080fd5b81019080803573ffffffffffffffffffffffffffffffffffffffff169060200190929190505050613117565b604051808215151515815260200191505060405180910390f35b6116fd600480360360208110156116d157600080fd5b81019080803573ffffffffffffffffffffffffffffffffffffffff169060200190929190505050613134565b005b6117356004803603604081101561171557600080fd5b81019080803590602001909291908035906020019092919050505061319d565b005b600061174d82600161338490919063ffffffff16565b9050919050565b61176833600561338490919063ffffffff16565b6117da576040517f08c379a000000000000000000000000000000000000000000000000000000000815260040180806020018281038252601f8152602001807f54686973206163636f756e7420686173206e6f2056656e646f7220526f6c650081525060200191505060405180910390fd5b81600560078111156117e857fe5b6009600083815260200190815260200160002060040160149054906101000a900460ff16600781111561181757fe5b1461186d576040517f08c379a00000000000000000000000000000000000000000000000000000000081526004018080602001828103825260288152602001806143446028913960400191505060405180910390fd5b6009600084815260200190815260200160002060070160009054906101000a900473ffffffffffffffffffffffffffffffffffffffff168073ffffffffffffffffffffffffffffffffffffffff163373ffffffffffffffffffffffffffffffffffffffff1614611928576040517f08c379a000000000000000000000000000000000000000000000000000000000815260040180806020018281038252602a81526020018061415a602a913960400191505060405180910390fd5b600060096000868152602001908152602001600020905060068160040160146101000a81548160ff0219169083600781111561196057fe5b0217905550836008600087815260200190815260200160002060405180807f507572636861736564000000000000000000000000000000000000000000000081525060090190509081526020016040518091039020819055507f653d56639fee6b566a5c804764e9689de38645f0b733df89a36a1b7b42173dd8856040518082815260200191505060405180910390a15050505050565b60006001151560018001836040518082805190602001908083835b60208310611a355780518252602082019150602081019050602083039250611a12565b6001836020036101000a038019825116818451168082178552505050505050905001915050908152602001604051809103902060010160149054906101000a900460ff161515149050919050565b611a8e83838361347f565b505050565b611aa733600161338490919063ffffffff16565b611afc576040517f08c379a00000000000000000000000000000000000000000000000000000000081526004018080602001828103825260258152602001806142ad6025913960400191505060405180910390fd5b8160016007811115611b0a57fe5b6009600083815260200190815260200160002060040160149054906101000a900460ff166007811115611b3957fe5b14611b8f576040517f08c379a000000000000000000000000000000000000000000000000000000000815260040180806020018281038252602c8152602001806141ce602c913960400191505060405180910390fd5b600060096000858152602001908152602001600020905060078160040160146101000a81548160ff02191690836007811115611bc757fe5b0217905550826008600086815260200190815260200160002060405180807f4f72646572416363657074656400000000000000000000000000000000000000815250600d0190509081526020016040518091039020819055507f262f7ad1922bdcf27203585ef3238620589ce6f74721d45bff6897a19e4f94a1846040518082815260200191505060405180910390a150505050565b611c7133600361338490919063ffffffff16565b611cc6576040517f08c379a00000000000000000000000000000000000000000000000000000000081526004018080602001828103825260248152602001806142d26024913960400191505060405180910390fd5b8260036007811115611cd457fe5b6009600083815260200190815260200160002060040160149054906101000a900460ff166007811115611d0357fe5b14611d59576040517f08c379a000000000000000000000000000000000000000000000000000000000815260040180806020018281038252602681526020018061421c6026913960400191505060405180910390fd5b6009600085815260200190815260200160002060050160009054906101000a900473ffffffffffffffffffffffffffffffffffffffff168073ffffffffffffffffffffffffffffffffffffffff163373ffffffffffffffffffffffffffffffffffffffff1614611e14576040517f08c379a000000000000000000000000000000000000000000000000000000000815260040180806020018281038252602a81526020018061415a602a913960400191505060405180910390fd5b600060096000878152602001908152602001600020905060048160040160146101000a81548160ff02191690836007811115611e4c57fe5b0217905550848160070160006101000a81548173ffffffffffffffffffffffffffffffffffffffff021916908373ffffffffffffffffffffffffffffffffffffffff160217905550836008600088815260200190815260200160002060405180807f496e5472616e736974000000000000000000000000000000000000000000000081525060090190509081526020016040518091039020819055507f40557acb2ee4dc77f56ffb057df48183f6914c97d92dbc8b31c79d83ddaa746c866040518082815260200191505060405180910390a1505050505050565b6000611f3f838360016134df9092919063ffffffff16565b905092915050565b6000809054906101000a900473ffffffffffffffffffffffffffffffffffffffff1673ffffffffffffffffffffffffffffffffffffffff163373ffffffffffffffffffffffffffffffffffffffff161415611fd6576000809054906101000a900473ffffffffffffffffffffffffffffffffffffffff1673ffffffffffffffffffffffffffffffffffffffff16ff5b565b6060611fe382611737565b15612025576040518060400160405280600c81526020017f6d616e756661637475726572000000000000000000000000000000000000000081525090506120ce565b61202e82613117565b15612070576040518060400160405280600681526020017f76656e646f72000000000000000000000000000000000000000000000000000081525090506120ce565b61207982612b02565b156120bb576040518060400160405280600b81526020017f6469737472696275746f7200000000000000000000000000000000000000000081525090506120ce565b6040518060200160405280600081525090505b919050565b6120e733600361338490919063ffffffff16565b61213c576040517f08c379a00000000000000000000000000000000000000000000000000000000081526004018080602001828103825260248152602001806142d26024913960400191505060405180910390fd5b816002600781111561214a57fe5b6009600083815260200190815260200160002060040160149054906101000a900460ff16600781111561217957fe5b146121cf576040517f08c379a000000000000000000000000000000000000000000000000000000000815260040180806020018281038252602181526020018061426b6021913960400191505060405180910390fd5b6000600960008581526020019081526020016000209050338160040160006101000a81548173ffffffffffffffffffffffffffffffffffffffff021916908373ffffffffffffffffffffffffffffffffffffffff16021790555060038160040160146101000a81548160ff0219169083600781111561224a57fe5b0217905550826008600086815260200190815260200160002060405180807f4469737452656369657665640000000000000000000000000000000000000000815250600c0190509081526020016040518091039020819055507f08c750f5731de445c2df1be22b2b46c01c96cae904a7c6c7bda7e2ce9f4466f4846040518082815260200191505060405180910390a150505050565b6000600115156003600101836040518082805190602001908083835b6020831061231f57805182526020820191506020810190506020830392506122fc565b6001836020036101000a038019825116818451168082178552505050505050905001915050908152602001604051809103902060010160149054906101000a900460ff161515149050919050565b6000612378836119f7565b1561238e576123878383611f27565b90506123d1565b61239783612b76565b156123ad576123a68383612ab9565b90506123d1565b6123b6836122e0565b156123cc576123c58383612a99565b90506123d1565b600090505b92915050565b6123eb33600161338490919063ffffffff16565b612440576040517f08c379a00000000000000000000000000000000000000000000000000000000081526004018080602001828103825260258152602001806142ad6025913960400191505060405180910390fd5b612448613f85565b82816080019073ffffffffffffffffffffffffffffffffffffffff16908173ffffffffffffffffffffffffffffffffffffffff1681525050828160e0019073ffffffffffffffffffffffffffffffffffffffff16908173ffffffffffffffffffffffffffffffffffffffff168152505086816020018181525050858160400181905250848160000181815250508381606001819052506001600a5401600a8190555060008160a0019060078111156124fc57fe5b9081600781111561250957fe5b81525050806009600089815260200190815260200160002060008201518160000155602082015181600101556040820151816002019080519060200190612551929190614034565b50606082015181600301908051906020019061256e929190614034565b5060808201518160040160006101000a81548173ffffffffffffffffffffffffffffffffffffffff021916908373ffffffffffffffffffffffffffffffffffffffff16021790555060a08201518160040160146101000a81548160ff021916908360078111156125da57fe5b021790555060c08201518160050160006101000a81548173ffffffffffffffffffffffffffffffffffffffff021916908373ffffffffffffffffffffffffffffffffffffffff16021790555060e08201518160060160006101000a81548173ffffffffffffffffffffffffffffffffffffffff021916908373ffffffffffffffffffffffffffffffffffffffff1602179055506101008201518160070160006101000a81548173ffffffffffffffffffffffffffffffffffffffff021916908373ffffffffffffffffffffffffffffffffffffffff160217905550905050816008600089815260200190815260200160002060405180807f4d616e7566616374757265640000000000000000000000000000000000000000815250600c0190509081526020016040518091039020819055507fd29d8a68ca7c8c74be5579719d445aabfe230ed6e6a83aff475a663500eb7609876040518082815260200191505060405180910390a150505050505050565b612755336137f9565b565b612762838383613853565b505050565b61276f612b1f565b6127c4576040517f08c379a00000000000000000000000000000000000000000000000000000000081526004018080602001828103825260298152602001806142426029913960400191505060405180910390fd5b600073ffffffffffffffffffffffffffffffffffffffff166000809054906101000a900473ffffffffffffffffffffffffffffffffffffffff1673ffffffffffffffffffffffffffffffffffffffff167f5c486528ec3e3f0ea91181cff8116f02bfa350e03b8b6f12e00765adbb5af85c60405160405180910390a360008060006101000a81548173ffffffffffffffffffffffffffffffffffffffff021916908373ffffffffffffffffffffffffffffffffffffffff160217905550565b61288c336138b3565b565b6009602052806000526040600020600091509050806000015490806001015490806002018054600181600116156101000203166002900480601f0160208091040260200160405190810160405280929190818152602001828054600181600116156101000203166002900480156129465780601f1061291b57610100808354040283529160200191612946565b820191906000526020600020905b81548152906001019060200180831161292957829003601f168201915b505050505090806003018054600181600116156101000203166002900480601f0160208091040260200160405190810160405280929190818152602001828054600181600116156101000203166002900480156129e45780601f106129b9576101008083540402835291602001916129e4565b820191906000526020600020905b8154815290600101906020018083116129c757829003601f168201915b5050505050908060040160009054906101000a900473ffffffffffffffffffffffffffffffffffffffff16908060040160149054906101000a900460ff16908060050160009054906101000a900473ffffffffffffffffffffffffffffffffffffffff16908060060160009054906101000a900473ffffffffffffffffffffffffffffffffffffffff16908060070160009054906101000a900473ffffffffffffffffffffffffffffffffffffffff16905089565b6000612ab1838360036134df9092919063ffffffff16565b905092915050565b6000612ad1838360056134df9092919063ffffffff16565b905092915050565b60008060009054906101000a900473ffffffffffffffffffffffffffffffffffffffff16905090565b6000612b1882600361338490919063ffffffff16565b9050919050565b60008060009054906101000a900473ffffffffffffffffffffffffffffffffffffffff1673ffffffffffffffffffffffffffffffffffffffff163373ffffffffffffffffffffffffffffffffffffffff1614905090565b6000600115156005600101836040518082805190602001908083835b60208310612bb55780518252602082019150602081019050602083039250612b92565b6001836020036101000a038019825116818451168082178552505050505050905001915050908152602001604051809103902060010160149054906101000a900460ff161515149050919050565b612c0e83838361390d565b505050565b612c2733600561338490919063ffffffff16565b612c99576040517f08c379a000000000000000000000000000000000000000000000000000000000815260040180806020018281038252601f8152602001807f54686973206163636f756e7420686173206e6f2056656e646f7220526f6c650081525060200191505060405180910390fd5b8160046007811115612ca757fe5b6009600083815260200190815260200160002060040160149054906101000a900460ff166007811115612cd657fe5b14612d2c576040517f08c379a00000000000000000000000000000000000000000000000000000000081526004018080602001828103825260238152602001806141846023913960400191505060405180910390fd5b6000600960008581526020019081526020016000209050338160040160006101000a81548173ffffffffffffffffffffffffffffffffffffffff021916908373ffffffffffffffffffffffffffffffffffffffff16021790555060058160040160146101000a81548160ff02191690836007811115612da757fe5b0217905550826008600086815260200190815260200160002060405180807f56656e646f725265636965766564000000000000000000000000000000000000815250600e0190509081526020016040518091039020819055507f610c78812ba3436587e66c76666902ef64e85085f07194426f288ac8fc9844f5846040518082815260200191505060405180910390a150505050565b612e5133600161338490919063ffffffff16565b612ea6576040517f08c379a00000000000000000000000000000000000000000000000000000000081526004018080602001828103825260258152602001806142ad6025913960400191505060405180910390fd5b82600780811115612eb357fe5b6009600083815260200190815260200160002060040160149054906101000a900460ff166007811115612ee257fe5b14612f38576040517f08c379a00000000000000000000000000000000000000000000000000000000081526004018080602001828103825260278152602001806141a76027913960400191505060405180910390fd5b6009600085815260200190815260200160002060060160009054906101000a900473ffffffffffffffffffffffffffffffffffffffff168073ffffffffffffffffffffffffffffffffffffffff163373ffffffffffffffffffffffffffffffffffffffff1614612ff3576040517f08c379a000000000000000000000000000000000000000000000000000000000815260040180806020018281038252602a81526020018061415a602a913960400191505060405180910390fd5b600060096000878152602001908152602001600020905060028160040160146101000a81548160ff0219169083600781111561302b57fe5b0217905550848160050160006101000a81548173ffffffffffffffffffffffffffffffffffffffff021916908373ffffffffffffffffffffffffffffffffffffffff160217905550836008600088815260200190815260200160002060405180807f536869707065640000000000000000000000000000000000000000000000000081525060070190509081526020016040518091039020819055507ff00b9a5725b80c54016f42114f6ed7792d22eecb116011c4afac29c57bef6c95866040518082815260200191505060405180910390a1505050505050565b61310f3361396d565b565b600a5481565b600061312d82600561338490919063ffffffff16565b9050919050565b61313c612b1f565b613191576040517f08c379a00000000000000000000000000000000000000000000000000000000081526004018080602001828103825260298152602001806142426029913960400191505060405180910390fd5b61319a816139c7565b50565b6131b133600561338490919063ffffffff16565b613223576040517f08c379a000000000000000000000000000000000000000000000000000000000815260040180806020018281038252601f8152602001807f54686973206163636f756e7420686173206e6f2056656e646f7220526f6c650081525060200191505060405180910390fd5b816000600781111561323157fe5b6009600083815260200190815260200160002060040160149054906101000a900460ff16600781111561326057fe5b146132b6576040517f08c379a00000000000000000000000000000000000000000000000000000000081526004018080602001828103825260268152602001806142f66026913960400191505060405180910390fd5b600060096000858152602001908152602001600020905060018160040160146101000a81548160ff021916908360078111156132ee57fe5b0217905550826008600086815260200190815260200160002060405180807f4f7264657252657175657374506c61636564000000000000000000000000000081525060120190509081526020016040518091039020819055507f9979644c1458db333f21e842c2df32cb4724751d18e9bbbe25307f91b181bd0e846040518082815260200191505060405180910390a150505050565b60008073ffffffffffffffffffffffffffffffffffffffff168273ffffffffffffffffffffffffffffffffffffffff161415613428576040517f08c379a000000000000000000000000000000000000000000000000000000000815260040180806020018281038252601e8152602001807f416464726573732063616e6e6f74206265207a65726f2061646472657373000081525060200191505060405180910390fd5b8260000160008373ffffffffffffffffffffffffffffffffffffffff1673ffffffffffffffffffffffffffffffffffffffff16815260200190815260200160002060009054906101000a900460ff16905092915050565b6134978383836003613b0b909392919063ffffffff16565b8273ffffffffffffffffffffffffffffffffffffffff167fddbf200aa634dc3fb81cfd68583dd1040d1c751d335e1d86b631bde3e977fea860405160405180910390a2505050565b60006001151584600101846040518082805190602001908083835b6020831061351d57805182526020820191506020810190506020830392506134fa565b6001836020036101000a038019825116818451168082178552505050505050905001915050908152602001604051809103902060010160149054906101000a900460ff161515148015613752575073__StringUtils___________________________6346bdca9a85600101856040518082805190602001908083835b602083106135bd578051825260208201915060208101905060208303925061359a565b6001836020036101000a0380198251168184511680821785525050505050509050019150509081526020016040518091039020600001846040518363ffffffff1660e01b81526004018080602001806020018381038352858181546001816001161561010002031660029004815260200191508054600181600116156101000203166002900480156136905780601f1061366557610100808354040283529160200191613690565b820191906000526020600020905b81548152906001019060200180831161367357829003601f168201915b5050838103825284818151815260200191508051906020019080838360005b838110156136ca5780820151818401526020810190506136af565b50505050905090810190601f1680156136f75780820380516001836020036101000a031916815260200191505b5094505050505060206040518083038186803b15801561371657600080fd5b505af415801561372a573d6000803e3d6000fd5b505050506040513d602081101561374057600080fd5b81019080805190602001909291905050505b156137ed5783600101836040518082805190602001908083835b6020831061378f578051825260208201915060208101905060208303925061376c565b6001836020036101000a038019825116818451168082178552505050505050905001915050908152602001604051809103902060010160009054906101000a900473ffffffffffffffffffffffffffffffffffffffff1690506137f2565b600090505b9392505050565b61380d816003613e2590919063ffffffff16565b8073ffffffffffffffffffffffffffffffffffffffff167f126174f6cf49c81cdb4a9214c6b8f037bef55b4ec31e4fc776cea2a1c8a88d5960405160405180910390a250565b61386b8383836001613b0b909392919063ffffffff16565b8273ffffffffffffffffffffffffffffffffffffffff167f561138658ca49a8540dc70dcfe64c9026c1c5b9344642242dd6562970f9c127860405160405180910390a2505050565b6138c7816005613e2590919063ffffffff16565b8073ffffffffffffffffffffffffffffffffffffffff167fceb8b5081e60cbeafb2db1ed5f2ef32309a5ba1d0d74ac127be270181f297e5860405160405180910390a250565b6139258383836005613b0b909392919063ffffffff16565b8273ffffffffffffffffffffffffffffffffffffffff167f187ea8b96b8ec4b770e46a85aa7421402f105827e5d2bb0705259f060c6043cb60405160405180910390a2505050565b613981816001613e2590919063ffffffff16565b8073ffffffffffffffffffffffffffffffffffffffff167f2fed5abf6a80d6dfe30b4895481b2fc5d7dce5f8f7b931832f4a2947d5040c7f60405160405180910390a250565b600073ffffffffffffffffffffffffffffffffffffffff168173ffffffffffffffffffffffffffffffffffffffff161415613a4d576040517f08c379a000000000000000000000000000000000000000000000000000000000815260040180806020018281038252602181526020018061428c6021913960400191505060405180910390fd5b8073ffffffffffffffffffffffffffffffffffffffff166000809054906101000a900473ffffffffffffffffffffffffffffffffffffffff1673ffffffffffffffffffffffffffffffffffffffff167f5c486528ec3e3f0ea91181cff8116f02bfa350e03b8b6f12e00765adbb5af85c60405160405180910390a3806000806101000a81548173ffffffffffffffffffffffffffffffffffffffff021916908373ffffffffffffffffffffffffffffffffffffffff16021790555050565b600073ffffffffffffffffffffffffffffffffffffffff168373ffffffffffffffffffffffffffffffffffffffff161415613bae576040517f08c379a000000000000000000000000000000000000000000000000000000000815260040180806020018281038252601e8152602001807f416464726573732063616e6e6f74206265207a65726f2061646472657373000081525060200191505060405180910390fd5b613bb88484613384565b15613c0e576040517f08c379a00000000000000000000000000000000000000000000000000000000081526004018080602001828103825260228152602001806141fa6022913960400191505060405180910390fd5b60018460000160008573ffffffffffffffffffffffffffffffffffffffff1673ffffffffffffffffffffffffffffffffffffffff16815260200190815260200160002060006101000a81548160ff0219169083151502179055508284600101836040518082805190602001908083835b60208310613ca15780518252602082019150602081019050602083039250613c7e565b6001836020036101000a038019825116818451168082178552505050505050905001915050908152602001604051809103902060010160006101000a81548173ffffffffffffffffffffffffffffffffffffffff021916908373ffffffffffffffffffffffffffffffffffffffff1602179055508084600101836040518082805190602001908083835b60208310613d4e5780518252602082019150602081019050602083039250613d2b565b6001836020036101000a03801982511681845116808217855250505050505090500191505090815260200160405180910390206000019080519060200190613d979291906140b4565b50600184600101836040518082805190602001908083835b60208310613dd25780518252602082019150602081019050602083039250613daf565b6001836020036101000a038019825116818451168082178552505050505050905001915050908152602001604051809103902060010160146101000a81548160ff02191690831515021790555050505050565b600073ffffffffffffffffffffffffffffffffffffffff168173ffffffffffffffffffffffffffffffffffffffff161415613ec8576040517f08c379a000000000000000000000000000000000000000000000000000000000815260040180806020018281038252601e8152602001807f416464726573732063616e6e6f74206265207a65726f2061646472657373000081525060200191505060405180910390fd5b613ed28282613384565b613f27576040517f08c379a000000000000000000000000000000000000000000000000000000000815260040180806020018281038252602881526020018061431c6028913960400191505060405180910390fd5b60008260000160008373ffffffffffffffffffffffffffffffffffffffff1673ffffffffffffffffffffffffffffffffffffffff16815260200190815260200160002060006101000a81548160ff0219169083151502179055505050565b60405180610120016040528060008152602001600081526020016060815260200160608152602001600073ffffffffffffffffffffffffffffffffffffffff16815260200160006007811115613fd757fe5b8152602001600073ffffffffffffffffffffffffffffffffffffffff168152602001600073ffffffffffffffffffffffffffffffffffffffff168152602001600073ffffffffffffffffffffffffffffffffffffffff1681525090565b828054600181600116156101000203166002900490600052602060002090601f016020900481019282601f1061407557805160ff19168380011785556140a3565b828001600101855582156140a3579182015b828111156140a2578251825591602001919060010190614087565b5b5090506140b09190614134565b5090565b828054600181600116156101000203166002900490600052602060002090601f016020900481019282601f106140f557805160ff1916838001178555614123565b82800160010185558215614123579182015b82811115614122578251825591602001919060010190614107565b5b5090506141309190614134565b5090565b61415691905b8082111561415257600081600090555060010161413a565b5090565b9056fe54686973206163636f756e74206973206e6f7420746865206f776e6572206f662074686973206974656d546865204974656d206973206e6f7420696e20496e5472616e73697420737461746521546865204974656d206973206e6f7420696e204f72646572416363657074656420737461746521546865204974656d206973206e6f7420696e204f7264657252657175657374506c616365642073746174652154686973206164647265737320616c726561647920686173207468697320726f6c65546865204974656d206973206e6f7420696e20446973745265636965766564207374617465214f6e6c7920746865206f776e65722063616e20706572666f726d2074686973206f7065726174696f6e546865204974656d206973206e6f7420696e205368697070656420737461746521546865206e6577204f776e65722063616e6e6f742062652061646472657373203054686973206163636f756e7420686173206e6f204d616e75666163747572657220526f6c6554686973206163636f756e7420686173206e6f204469737472696275746f7220526f6c65546865204974656d206973206e6f7420696e204d616e7566616374757265642073746174652154686973206164647265737320646f6573206e6f742068617665207468697320726f6c6520796574546865204974656d206973206e6f7420696e2056656e646f72526563696576656420737461746521a265627a7a72315820e6b0f6048814d49c05390a0693bc3febd89bc44e879fa1a98a82f49d8e173fbc64736f6c63430005100032",
  "source": "pragma solidity >=0.4.22 <0.9.0;\r\n\r\nimport \"./accessControl/DistributorRole.sol\";\r\nimport \"./accessControl/ManufacturerRole.sol\";\r\nimport \"./accessControl/VendorRole.sol\";\r\nimport \"./core/Ownable.sol\";\r\n\r\ncontract ProductTracking is\r\nOwnable,\r\nManufacturerRole,\r\nDistributorRole,\r\nVendorRole\r\n{\r\n    struct Product {\r\n        uint256 sku;\r\n        uint256 productID;\r\n        string name;\r\n        string desc;\r\n        address payable ownerID;\r\n        State currentStatus;\r\n        address payable distributorID;\r\n        address payable manufacturerID;\r\n        address payable vendorID;\r\n    }\r\n\r\n    //TODO: Track the journey\r\n    mapping(uint256 => string[]) productsHistory;\r\n    mapping(uint256 => mapping(string => uint256)) productStamp;\r\n\r\n    mapping(uint256 => Product) public products;\r\n\r\n    uint256 public productsCount;\r\n\r\n    enum State {\r\n        Manufactured, // 0\r\n        OrderRequestPlaced, // 1\r\n        Shipped, // 2\r\n        DistRecieved, // 3\r\n        InTransit, // 4\r\n        VendorRecieved, // 5\r\n        Purchased, // 6\r\n        OrderAccepted //7\r\n    }\r\n\r\n    State constant defaultState = State.Manufactured;\r\n\r\n    // Define 7 events with the same 8 state values and accept 'upc' as input argument\r\n    event Manufactured(uint256 upc);\r\n    event OrderRequestPlaced(uint256 upc);\r\n    event OrderAccepted(uint256 upc);\r\n    event Shipped(uint256 upc);\r\n    event DistRecieved(uint256 upc);\r\n    event InTransit(uint256 upc);\r\n    event VendorRecieved(uint256 upc);\r\n    event Purchased(uint256 upc);\r\n\r\n    constructor() public {\r\n    }\r\n\r\n\r\n    function getRole(address payable _address) public view returns (string memory) {\r\n        if (super.isManufacturer(_address)) {\r\n            return \"manufacturer\";\r\n        } else if (super.isVendor(_address)) {\r\n            return \"vendor\";\r\n        } else if (super.isDistributor(_address)) {\r\n            return \"distributor\";\r\n        }\r\n        return \"\";\r\n    }\r\n\r\n    function login(string memory userName, string memory password) public view returns (address) {\r\n        if (super.isManufacturerViaName(userName)) {\r\n            return super.loginManufacturer(userName, password);\r\n        } else if (super.isVendorViaName(userName)) {\r\n            return super.loginVendor(userName, password);\r\n        } else if (super.isDistributorViaName(userName)) {\r\n            return super.loginDistributor(userName, password);\r\n        }\r\n        return address(0);\r\n    }\r\n\r\n    modifier verifyCaller(address payable _address) {\r\n        require(\r\n            msg.sender == _address,\r\n            \"This account is not the owner of this item\"\r\n        );\r\n        _;\r\n    }\r\n\r\n    modifier manufactured(uint256 _upc) {\r\n        require(\r\n            products[_upc].currentStatus == State.Manufactured,\r\n            \"The Item is not in Manufactured state!\"\r\n        );\r\n        _;\r\n    }\r\n\r\n    modifier orderAcceptedCheck(uint256 _upc) {\r\n        require(\r\n            products[_upc].currentStatus == State.OrderAccepted,\r\n            \"The Item is not in OrderAccepted state!\"\r\n        );\r\n        _;\r\n    }\r\n\r\n    modifier orderRequestPlaced(uint256 _upc) {\r\n        require(\r\n            products[_upc].currentStatus == State.OrderRequestPlaced,\r\n            \"The Item is not in OrderRequestPlaced state!\"\r\n        );\r\n        _;\r\n    }\r\n\r\n\r\n    modifier shipped(uint256 _upc) {\r\n        require(\r\n            products[_upc].currentStatus == State.Shipped,\r\n            \"The Item is not in Shipped state!\"\r\n        );\r\n        _;\r\n    }\r\n\r\n    modifier distRecieved(uint256 _upc) {\r\n        require(\r\n            products[_upc].currentStatus == State.DistRecieved,\r\n            \"The Item is not in DistRecieved state!\"\r\n        );\r\n        _;\r\n    }\r\n\r\n    modifier inTransit(uint256 _upc) {\r\n        require(\r\n            products[_upc].currentStatus == State.InTransit,\r\n            \"The Item is not in InTransit state!\"\r\n        );\r\n        _;\r\n    }\r\n\r\n    modifier vendorRecieved(uint256 _upc) {\r\n        require(\r\n            products[_upc].currentStatus == State.VendorRecieved,\r\n            \"The Item is not in VendorRecieved state!\"\r\n        );\r\n        _;\r\n    }\r\n\r\n    modifier purchased(uint256 _upc) {\r\n        require(\r\n            products[_upc].currentStatus == State.Purchased,\r\n            \"The Item is not in Purchased state!\"\r\n        );\r\n        _;\r\n    }\r\n\r\n    function manufactureProduct(\r\n        uint256 _upc,\r\n        string memory name,\r\n        uint256 _sku,\r\n        string memory desc,\r\n        address payable _originManufacturerID,\r\n        uint256 time\r\n    ) public onlyManufacturer {\r\n        Product memory newItem;\r\n        newItem.ownerID = _originManufacturerID;\r\n        newItem.manufacturerID = _originManufacturerID;\r\n        //NEW ADDITION\r\n        newItem.productID = _upc;\r\n        newItem.name = name;\r\n        newItem.sku = _sku;\r\n        newItem.desc = desc;\r\n\r\n        productsCount = productsCount + 1;\r\n\r\n        newItem.currentStatus = defaultState;\r\n        products[_upc] = newItem;\r\n        productStamp[_upc][\"Manufactured\"] = time;\r\n\r\n        emit Manufactured(_upc);\r\n    }\r\n\r\n    function placeOrderRequest(uint256 _upc, uint256 time)\r\n    public onlyVendor\r\n    manufactured(_upc)\r\n    {\r\n        Product storage existingItem = products[_upc];\r\n        existingItem.currentStatus = State.OrderRequestPlaced;\r\n        productStamp[_upc][\"OrderRequestPlaced\"] = time;\r\n        emit OrderRequestPlaced(_upc);\r\n    }\r\n\r\n    function orderAccepted(uint256 _upc, uint256 time)\r\n    public onlyManufacturer\r\n    orderRequestPlaced(_upc)\r\n    {\r\n        Product storage existingItem = products[_upc];\r\n        existingItem.currentStatus = State.OrderAccepted;\r\n        productStamp[_upc][\"OrderAccepted\"] = time;\r\n        emit OrderAccepted(_upc);\r\n    }\r\n\r\n\r\n    function shipToDistributor(uint256 _upc, address payable distID, uint256 time)\r\n    public\r\n    onlyManufacturer\r\n    orderAcceptedCheck(_upc)\r\n    verifyCaller(products[_upc].manufacturerID)\r\n    {\r\n        Product storage existingItem = products[_upc];\r\n        existingItem.currentStatus = State.Shipped;\r\n        existingItem.distributorID = distID;\r\n        productStamp[_upc][\"Shipped\"] = time;\r\n        emit Shipped(_upc);\r\n    }\r\n\r\n    function recieveAsDistributor(uint256 _upc, uint256 time)\r\n    public\r\n    onlyDistributor\r\n    shipped(_upc)\r\n    {\r\n        Product storage existingItem = products[_upc];\r\n        existingItem.ownerID = msg.sender;\r\n        existingItem.currentStatus = State.DistRecieved;\r\n        productStamp[_upc][\"DistRecieved\"] = time;\r\n        emit DistRecieved(_upc);\r\n    }\r\n\r\n    function shipToVendor(uint256 _upc, address payable vendorId, uint256 time)\r\n    public onlyDistributor\r\n    distRecieved(_upc)\r\n    verifyCaller(products[_upc].distributorID)\r\n    {\r\n        Product storage existingItem = products[_upc];\r\n        existingItem.currentStatus = State.InTransit;\r\n        existingItem.vendorID = vendorId;\r\n        productStamp[_upc][\"InTransit\"] = time;\r\n        emit InTransit(_upc);\r\n    }\r\n\r\n    function recieveAsVendor(uint256 _upc, uint256 time) public onlyVendor inTransit(_upc) {\r\n        Product storage existingItem = products[_upc];\r\n        existingItem.ownerID = msg.sender;\r\n        existingItem.currentStatus = State.VendorRecieved;\r\n        productStamp[_upc][\"VendorRecieved\"] = time;\r\n        emit VendorRecieved(_upc);\r\n    }\r\n\r\n    function sellProduct(uint256 _upc, uint256 time)\r\n    public\r\n    onlyVendor\r\n    vendorRecieved(_upc)\r\n    verifyCaller(products[_upc].vendorID)\r\n    {\r\n        Product storage existingItem = products[_upc];\r\n        existingItem.currentStatus = State.Purchased;\r\n        productStamp[_upc][\"Purchased\"] = time;\r\n        emit Purchased(_upc);\r\n    }\r\n    //IMPORTANT, can add 'address payable customerName' to parameters and then set owner id to that of customerName. I didn't do it, because I didn't find it important for the item's history.\r\n    //But we can easily add it in and make use of that. It is up to everyone to agree on\r\n    //Just know that without that, the owner role is practically useless\r\n\r\n    // function compareStrings (string memory a, string memory b) public view returns (bool) {\r\n    //     return (keccak256(abi.encodePacked((a))) == keccak256(abi.encodePacked((b))));\r\n    // }\r\n}\r\n",
  "sourcePath": "/mnt/c/asus-files/uci/quarter2/capstone/blockchain/react-blockchain/contracts/ProductTracking.sol",
  "compiler": {
    "name": "solc",
    "version": "0.5.16+commit.9c3226ce.Emscripten.clang"
  },
  "schemaVersion": "3.4.7",
  "updatedAt": "2022-05-25T09:31:57.156Z",
  "networkType": "ethereum",
  "devdoc": {
    "methods": {}
  },
  "userdoc": {
    "methods": {
      "isOwner()": {
        "notice": "Check if the calling address is the owner of the contract"
      },
      "owner()": {
        "notice": "Look up the address of the owner"
      },
      "renounceOwnership()": {
        "notice": "Define a function to renounce ownerhip"
      },
      "transferOwnership(address)": {
        "notice": "Define a public function to transfer ownership"
      }
    }
  }
}