{
  "contractName": "ProductTracking",
  "abi": [
    {
      "inputs": [],
      "payable": false,
      "stateMutability": "nonpayable",
      "type": "constructor"
    },
    {
      "anonymous": false,
      "inputs": [
        {
          "indexed": false,
          "internalType": "uint256",
          "name": "upc",
          "type": "uint256"
        }
      ],
      "name": "DistRecieved",
      "type": "event"
    },
    {
      "anonymous": false,
      "inputs": [
        {
          "indexed": true,
          "internalType": "address",
          "name": "account",
          "type": "address"
        }
      ],
      "name": "DistributorAdded",
      "type": "event"
    },
    {
      "anonymous": false,
      "inputs": [
        {
          "indexed": true,
          "internalType": "address",
          "name": "account",
          "type": "address"
        }
      ],
      "name": "DistributorRemoved",
      "type": "event"
    },
    {
      "anonymous": false,
      "inputs": [
        {
          "indexed": false,
          "internalType": "uint256",
          "name": "upc",
          "type": "uint256"
        }
      ],
      "name": "InTransit",
      "type": "event"
    },
    {
      "anonymous": false,
      "inputs": [
        {
          "indexed": false,
          "internalType": "uint256",
          "name": "upc",
          "type": "uint256"
        }
      ],
      "name": "Manufactured",
      "type": "event"
    },
    {
      "anonymous": false,
      "inputs": [
        {
          "indexed": true,
          "internalType": "address",
          "name": "account",
          "type": "address"
        }
      ],
      "name": "ManufacturerAdded",
      "type": "event"
    },
    {
      "anonymous": false,
      "inputs": [
        {
          "indexed": true,
          "internalType": "address",
          "name": "account",
          "type": "address"
        }
      ],
      "name": "ManufacturerRemoved",
      "type": "event"
    },
    {
      "anonymous": false,
      "inputs": [
        {
          "indexed": false,
          "internalType": "uint256",
          "name": "upc",
          "type": "uint256"
        }
      ],
      "name": "OrderPlaced",
      "type": "event"
    },
    {
      "anonymous": false,
      "inputs": [
        {
          "indexed": false,
          "internalType": "uint256",
          "name": "upc",
          "type": "uint256"
        }
      ],
      "name": "Purchased",
      "type": "event"
    },
    {
      "anonymous": false,
      "inputs": [
        {
          "indexed": false,
          "internalType": "uint256",
          "name": "upc",
          "type": "uint256"
        }
      ],
      "name": "Shipped",
      "type": "event"
    },
    {
      "anonymous": false,
      "inputs": [
        {
          "indexed": true,
          "internalType": "address",
          "name": "oldOwner",
          "type": "address"
        },
        {
          "indexed": true,
          "internalType": "address",
          "name": "newOwner",
          "type": "address"
        }
      ],
      "name": "TransferOwnership",
      "type": "event"
    },
    {
      "anonymous": false,
      "inputs": [
        {
          "indexed": true,
          "internalType": "address",
          "name": "account",
          "type": "address"
        }
      ],
      "name": "VendorAdded",
      "type": "event"
    },
    {
      "anonymous": false,
      "inputs": [
        {
          "indexed": false,
          "internalType": "uint256",
          "name": "upc",
          "type": "uint256"
        }
      ],
      "name": "VendorRecieved",
      "type": "event"
    },
    {
      "anonymous": false,
      "inputs": [
        {
          "indexed": true,
          "internalType": "address",
          "name": "account",
          "type": "address"
        }
      ],
      "name": "VendorRemoved",
      "type": "event"
    },
    {
      "constant": false,
      "inputs": [
        {
          "internalType": "address",
          "name": "account",
          "type": "address"
        }
      ],
      "name": "addDistributor",
      "outputs": [],
      "payable": false,
      "stateMutability": "nonpayable",
      "type": "function"
    },
    {
      "constant": false,
      "inputs": [
        {
          "internalType": "address",
          "name": "account",
          "type": "address"
        }
      ],
      "name": "addManufacturer",
      "outputs": [],
      "payable": false,
      "stateMutability": "nonpayable",
      "type": "function"
    },
    {
      "constant": false,
      "inputs": [
        {
          "internalType": "address",
          "name": "account",
          "type": "address"
        }
      ],
      "name": "addVendor",
      "outputs": [],
      "payable": false,
      "stateMutability": "nonpayable",
      "type": "function"
    },
    {
      "constant": true,
      "inputs": [
        {
          "internalType": "address",
          "name": "account",
          "type": "address"
        }
      ],
      "name": "isDistributor",
      "outputs": [
        {
          "internalType": "bool",
          "name": "",
          "type": "bool"
        }
      ],
      "payable": false,
      "stateMutability": "view",
      "type": "function"
    },
    {
      "constant": true,
      "inputs": [
        {
          "internalType": "address",
          "name": "account",
          "type": "address"
        }
      ],
      "name": "isManufacturer",
      "outputs": [
        {
          "internalType": "bool",
          "name": "",
          "type": "bool"
        }
      ],
      "payable": false,
      "stateMutability": "view",
      "type": "function"
    },
    {
      "constant": true,
      "inputs": [],
      "name": "isOwner",
      "outputs": [
        {
          "internalType": "bool",
          "name": "",
          "type": "bool"
        }
      ],
      "payable": false,
      "stateMutability": "view",
      "type": "function"
    },
    {
      "constant": true,
      "inputs": [
        {
          "internalType": "address",
          "name": "account",
          "type": "address"
        }
      ],
      "name": "isVendor",
      "outputs": [
        {
          "internalType": "bool",
          "name": "",
          "type": "bool"
        }
      ],
      "payable": false,
      "stateMutability": "view",
      "type": "function"
    },
    {
      "constant": false,
      "inputs": [],
      "name": "kill",
      "outputs": [],
      "payable": false,
      "stateMutability": "nonpayable",
      "type": "function"
    },
    {
      "constant": true,
      "inputs": [],
      "name": "owner",
      "outputs": [
        {
          "internalType": "address",
          "name": "",
          "type": "address"
        }
      ],
      "payable": false,
      "stateMutability": "view",
      "type": "function"
    },
    {
      "constant": true,
      "inputs": [
        {
          "internalType": "uint256",
          "name": "",
          "type": "uint256"
        }
      ],
      "name": "products",
      "outputs": [
        {
          "internalType": "uint256",
          "name": "productID",
          "type": "uint256"
        },
        {
          "internalType": "string",
          "name": "name",
          "type": "string"
        },
        {
          "internalType": "address payable",
          "name": "ownerID",
          "type": "address"
        },
        {
          "internalType": "enum ProductTracking.State",
          "name": "currentStatus",
          "type": "uint8"
        },
        {
          "internalType": "address payable",
          "name": "distributorID",
          "type": "address"
        },
        {
          "internalType": "address payable",
          "name": "manufacturerID",
          "type": "address"
        },
        {
          "internalType": "address payable",
          "name": "vendorID",
          "type": "address"
        }
      ],
      "payable": false,
      "stateMutability": "view",
      "type": "function"
    },
    {
      "constant": true,
      "inputs": [],
      "name": "productsCount",
      "outputs": [
        {
          "internalType": "uint256",
          "name": "",
          "type": "uint256"
        }
      ],
      "payable": false,
      "stateMutability": "view",
      "type": "function"
    },
    {
      "constant": false,
      "inputs": [],
      "name": "renounceDistributor",
      "outputs": [],
      "payable": false,
      "stateMutability": "nonpayable",
      "type": "function"
    },
    {
      "constant": false,
      "inputs": [],
      "name": "renounceManufacturer",
      "outputs": [],
      "payable": false,
      "stateMutability": "nonpayable",
      "type": "function"
    },
    {
      "constant": false,
      "inputs": [],
      "name": "renounceOwnership",
      "outputs": [],
      "payable": false,
      "stateMutability": "nonpayable",
      "type": "function"
    },
    {
      "constant": false,
      "inputs": [],
      "name": "renounceVendor",
      "outputs": [],
      "payable": false,
      "stateMutability": "nonpayable",
      "type": "function"
    },
    {
      "constant": false,
      "inputs": [
        {
          "internalType": "address payable",
          "name": "newOwner",
          "type": "address"
        }
      ],
      "name": "transferOwnership",
      "outputs": [],
      "payable": false,
      "stateMutability": "nonpayable",
      "type": "function"
    },
    {
      "constant": false,
      "inputs": [
        {
          "internalType": "uint256",
          "name": "_upc",
          "type": "uint256"
        },
        {
          "internalType": "string",
          "name": "name",
          "type": "string"
        },
        {
          "internalType": "address payable",
          "name": "_originManufacturerID",
          "type": "address"
        }
      ],
      "name": "manufactureProduct",
      "outputs": [],
      "payable": false,
      "stateMutability": "nonpayable",
      "type": "function"
    },
    {
      "constant": false,
      "inputs": [
        {
          "internalType": "uint256",
          "name": "_upc",
          "type": "uint256"
        }
      ],
      "name": "placeOrder",
      "outputs": [],
      "payable": false,
      "stateMutability": "nonpayable",
      "type": "function"
    },
    {
      "constant": false,
      "inputs": [
        {
          "internalType": "uint256",
          "name": "_upc",
          "type": "uint256"
        }
      ],
      "name": "shipToDistributor",
      "outputs": [],
      "payable": false,
      "stateMutability": "nonpayable",
      "type": "function"
    },
    {
      "constant": false,
      "inputs": [
        {
          "internalType": "uint256",
          "name": "_upc",
          "type": "uint256"
        }
      ],
      "name": "recieveAsDistributor",
      "outputs": [],
      "payable": false,
      "stateMutability": "nonpayable",
      "type": "function"
    },
    {
      "constant": false,
      "inputs": [
        {
          "internalType": "uint256",
          "name": "_upc",
          "type": "uint256"
        }
      ],
      "name": "shipToVendor",
      "outputs": [],
      "payable": false,
      "stateMutability": "nonpayable",
      "type": "function"
    },
    {
      "constant": false,
      "inputs": [
        {
          "internalType": "uint256",
          "name": "_upc",
          "type": "uint256"
        }
      ],
      "name": "recieveAsVendor",
      "outputs": [],
      "payable": false,
      "stateMutability": "nonpayable",
      "type": "function"
    },
    {
      "constant": false,
      "inputs": [
        {
          "internalType": "uint256",
          "name": "_upc",
          "type": "uint256"
        }
      ],
      "name": "sellProduct",
      "outputs": [],
      "payable": false,
      "stateMutability": "nonpayable",
      "type": "function"
    }
  ],
  "bytecode": "0x60806040523480156200001157600080fd5b50336000806101000a81548173ffffffffffffffffffffffffffffffffffffffff021916908373ffffffffffffffffffffffffffffffffffffffff1602179055506000809054906101000a900473ffffffffffffffffffffffffffffffffffffffff1673ffffffffffffffffffffffffffffffffffffffff16600073ffffffffffffffffffffffffffffffffffffffff167f5c486528ec3e3f0ea91181cff8116f02bfa350e03b8b6f12e00765adbb5af85c60405160405180910390a3620000df336200010760201b60201c565b620000f0336200016860201b60201c565b6200010133620001c960201b60201c565b62000492565b620001228160016200022a60201b620021e31790919060201c565b8073ffffffffffffffffffffffffffffffffffffffff167f561138658ca49a8540dc70dcfe64c9026c1c5b9344642242dd6562970f9c127860405160405180910390a250565b620001838160026200022a60201b620021e31790919060201c565b8073ffffffffffffffffffffffffffffffffffffffff167fddbf200aa634dc3fb81cfd68583dd1040d1c751d335e1d86b631bde3e977fea860405160405180910390a250565b620001e48160036200022a60201b620021e31790919060201c565b8073ffffffffffffffffffffffffffffffffffffffff167f187ea8b96b8ec4b770e46a85aa7421402f105827e5d2bb0705259f060c6043cb60405160405180910390a250565b600073ffffffffffffffffffffffffffffffffffffffff168173ffffffffffffffffffffffffffffffffffffffff161415620002ce576040517f08c379a000000000000000000000000000000000000000000000000000000000815260040180806020018281038252601e8152602001807f416464726573732063616e6e6f74206265207a65726f2061646472657373000081525060200191505060405180910390fd5b620002e082826200039660201b60201c565b1562000338576040517f08c379a000000000000000000000000000000000000000000000000000000000815260040180806020018281038252602281526020018062002ca46022913960400191505060405180910390fd5b60018260000160008373ffffffffffffffffffffffffffffffffffffffff1673ffffffffffffffffffffffffffffffffffffffff16815260200190815260200160002060006101000a81548160ff0219169083151502179055505050565b60008073ffffffffffffffffffffffffffffffffffffffff168273ffffffffffffffffffffffffffffffffffffffff1614156200043b576040517f08c379a000000000000000000000000000000000000000000000000000000000815260040180806020018281038252601e8152602001807f416464726573732063616e6e6f74206265207a65726f2061646472657373000081525060200191505060405180910390fd5b8260000160008373ffffffffffffffffffffffffffffffffffffffff1673ffffffffffffffffffffffffffffffffffffffff16815260200190815260200160002060009054906101000a900460ff16905092915050565b61280280620004a26000396000f3fe608060405234801561001057600080fd5b506004361061014d5760003560e01c806376ba15ad116100c3578063ba2255f41161007c578063ba2255f414610696578063de07f34e146106c4578063e0df7bb6146106ce578063e35d76ce146106ec578063ee54d54f1461071a578063f2fde38b146107765761014d565b806376ba15ad146104075780637acc0b2014610411578063895cd247146105a05780638da5cb5b146105ce5780638f0c86fa146106185780638f32d59b146106745761014d565b80634754cbba116101155780634754cbba1461030f578063492deb151461033d5780635f8a5afa1461036b578063644241db146103af578063715018a6146103b95780637250e224146103c35761014d565b806302c910d6146101525780630b4a5e271461018057806317d4a4911461026557806341c0e1b5146102c157806345e0f753146102cb575b600080fd5b61017e6004803603602081101561016857600080fd5b81019080803590602001909291905050506107ba565b005b6102636004803603606081101561019657600080fd5b8101908080359060200190929190803590602001906401000000008111156101bd57600080fd5b8201836020820111156101cf57600080fd5b803590602001918460018302840111640100000000831117156101f157600080fd5b91908080601f016020809104026020016040519081016040528093929190818152602001838380828437600081840152601f19601f820116905080830192505050505050509192919290803573ffffffffffffffffffffffffffffffffffffffff1690602001909291905050506109b5565b005b6102a76004803603602081101561027b57600080fd5b81019080803573ffffffffffffffffffffffffffffffffffffffff169060200190929190505050610c98565b604051808215151515815260200191505060405180910390f35b6102c9610cb5565b005b61030d600480360360208110156102e157600080fd5b81019080803573ffffffffffffffffffffffffffffffffffffffff169060200190929190505050610d46565b005b61033b6004803603602081101561032557600080fd5b8101908080359060200190929190505050610dd8565b005b6103696004803603602081101561035357600080fd5b8101908080359060200190929190505050610ff0565b005b6103ad6004803603602081101561038157600080fd5b81019080803573ffffffffffffffffffffffffffffffffffffffff16906020019092919050505061123e565b005b6103b76112b3565b005b6103c16112be565b005b610405600480360360208110156103d957600080fd5b81019080803573ffffffffffffffffffffffffffffffffffffffff1690602001909291905050506113da565b005b61040f61144f565b005b61043d6004803603602081101561042757600080fd5b810190808035906020019092919050505061145a565b60405180888152602001806020018773ffffffffffffffffffffffffffffffffffffffff1673ffffffffffffffffffffffffffffffffffffffff16815260200186600681111561048957fe5b60ff1681526020018573ffffffffffffffffffffffffffffffffffffffff1673ffffffffffffffffffffffffffffffffffffffff1681526020018473ffffffffffffffffffffffffffffffffffffffff1673ffffffffffffffffffffffffffffffffffffffff1681526020018373ffffffffffffffffffffffffffffffffffffffff1673ffffffffffffffffffffffffffffffffffffffff168152602001828103825288818151815260200191508051906020019080838360005b8381101561055f578082015181840152602081019050610544565b50505050905090810190601f16801561058c5780820380516001836020036101000a031916815260200191505b509850505050505050505060405180910390f35b6105cc600480360360208110156105b657600080fd5b81019080803590602001909291905050506115c1565b005b6105d66117f2565b604051808273ffffffffffffffffffffffffffffffffffffffff1673ffffffffffffffffffffffffffffffffffffffff16815260200191505060405180910390f35b61065a6004803603602081101561062e57600080fd5b81019080803573ffffffffffffffffffffffffffffffffffffffff16906020019092919050505061181b565b604051808215151515815260200191505060405180910390f35b61067c611838565b604051808215151515815260200191505060405180910390f35b6106c2600480360360208110156106ac57600080fd5b810190808035906020019092919050505061188f565b005b6106cc611ac0565b005b6106d6611acb565b6040518082815260200191505060405180910390f35b6107186004803603602081101561070257600080fd5b8101908080359060200190929190505050611ad1565b005b61075c6004803603602081101561073057600080fd5b81019080803573ffffffffffffffffffffffffffffffffffffffff169060200190929190505050611d02565b604051808215151515815260200191505060405180910390f35b6107b86004803603602081101561078c57600080fd5b81019080803573ffffffffffffffffffffffffffffffffffffffff169060200190929190505050611d1f565b005b6107ce336002611d8890919063ffffffff16565b610823576040517f08c379a00000000000000000000000000000000000000000000000000000000081526004018080602001828103825260248152602001806127346024913960400191505060405180910390fd5b806002600681111561083157fe5b6005600083815260200190815260200160002060020160149054906101000a900460ff16600681111561086057fe5b146108b6576040517f08c379a00000000000000000000000000000000000000000000000000000000081526004018080602001828103825260218152602001806126cd6021913960400191505060405180910390fd5b6000600560008481526020019081526020016000209050338160020160006101000a81548173ffffffffffffffffffffffffffffffffffffffff021916908373ffffffffffffffffffffffffffffffffffffffff160217905550338160030160006101000a81548173ffffffffffffffffffffffffffffffffffffffff021916908373ffffffffffffffffffffffffffffffffffffffff16021790555060038160020160146101000a81548160ff0219169083600681111561097457fe5b02179055507f08c750f5731de445c2df1be22b2b46c01c96cae904a7c6c7bda7e2ce9f4466f4836040518082815260200191505060405180910390a1505050565b6109c9336001611d8890919063ffffffff16565b610a1e576040517f08c379a000000000000000000000000000000000000000000000000000000000815260040180806020018281038252602581526020018061270f6025913960400191505060405180910390fd5b610a266124a4565b81816040019073ffffffffffffffffffffffffffffffffffffffff16908173ffffffffffffffffffffffffffffffffffffffff1681525050818160a0019073ffffffffffffffffffffffffffffffffffffffff16908173ffffffffffffffffffffffffffffffffffffffff168152505083816000018181525050828160200181905250600160065401600681905550600081606001906006811115610ac757fe5b90816006811115610ad457fe5b815250508060056000868152602001908152602001600020600082015181600001556020820151816001019080519060200190610b12929190612544565b5060408201518160020160006101000a81548173ffffffffffffffffffffffffffffffffffffffff021916908373ffffffffffffffffffffffffffffffffffffffff16021790555060608201518160020160146101000a81548160ff02191690836006811115610b7e57fe5b021790555060808201518160030160006101000a81548173ffffffffffffffffffffffffffffffffffffffff021916908373ffffffffffffffffffffffffffffffffffffffff16021790555060a08201518160040160006101000a81548173ffffffffffffffffffffffffffffffffffffffff021916908373ffffffffffffffffffffffffffffffffffffffff16021790555060c08201518160050160006101000a81548173ffffffffffffffffffffffffffffffffffffffff021916908373ffffffffffffffffffffffffffffffffffffffff1602179055509050507fd29d8a68ca7c8c74be5579719d445aabfe230ed6e6a83aff475a663500eb7609846040518082815260200191505060405180910390a150505050565b6000610cae826001611d8890919063ffffffff16565b9050919050565b6000809054906101000a900473ffffffffffffffffffffffffffffffffffffffff1673ffffffffffffffffffffffffffffffffffffffff163373ffffffffffffffffffffffffffffffffffffffff161415610d44576000809054906101000a900473ffffffffffffffffffffffffffffffffffffffff1673ffffffffffffffffffffffffffffffffffffffff16ff5b565b610d5a336003611d8890919063ffffffff16565b610dcc576040517f08c379a000000000000000000000000000000000000000000000000000000000815260040180806020018281038252601f8152602001807f54686973206163636f756e7420686173206e6f2056656e646f7220526f6c650081525060200191505060405180910390fd5b610dd581611e83565b50565b610dec336003611d8890919063ffffffff16565b610e5e576040517f08c379a000000000000000000000000000000000000000000000000000000000815260040180806020018281038252601f8152602001807f54686973206163636f756e7420686173206e6f2056656e646f7220526f6c650081525060200191505060405180910390fd5b8060046006811115610e6c57fe5b6005600083815260200190815260200160002060020160149054906101000a900460ff166006811115610e9b57fe5b14610ef1576040517f08c379a00000000000000000000000000000000000000000000000000000000081526004018080602001828103825260238152602001806126146023913960400191505060405180910390fd5b6000600560008481526020019081526020016000209050338160020160006101000a81548173ffffffffffffffffffffffffffffffffffffffff021916908373ffffffffffffffffffffffffffffffffffffffff160217905550338160050160006101000a81548173ffffffffffffffffffffffffffffffffffffffff021916908373ffffffffffffffffffffffffffffffffffffffff16021790555060058160020160146101000a81548160ff02191690836006811115610faf57fe5b02179055507f610c78812ba3436587e66c76666902ef64e85085f07194426f288ac8fc9844f5836040518082815260200191505060405180910390a1505050565b611004336003611d8890919063ffffffff16565b611076576040517f08c379a000000000000000000000000000000000000000000000000000000000815260040180806020018281038252601f8152602001807f54686973206163636f756e7420686173206e6f2056656e646f7220526f6c650081525060200191505060405180910390fd5b806005600681111561108457fe5b6005600083815260200190815260200160002060020160149054906101000a900460ff1660068111156110b357fe5b14611109576040517f08c379a00000000000000000000000000000000000000000000000000000000081526004018080602001828103825260288152602001806127a66028913960400191505060405180910390fd5b6005600083815260200190815260200160002060050160009054906101000a900473ffffffffffffffffffffffffffffffffffffffff168073ffffffffffffffffffffffffffffffffffffffff163373ffffffffffffffffffffffffffffffffffffffff16146111c4576040517f08c379a000000000000000000000000000000000000000000000000000000000815260040180806020018281038252602a8152602001806125ea602a913960400191505060405180910390fd5b600060056000858152602001908152602001600020905060068160020160146101000a81548160ff021916908360068111156111fc57fe5b02179055507f653d56639fee6b566a5c804764e9689de38645f0b733df89a36a1b7b42173dd8846040518082815260200191505060405180910390a150505050565b611252336001611d8890919063ffffffff16565b6112a7576040517f08c379a000000000000000000000000000000000000000000000000000000000815260040180806020018281038252602581526020018061270f6025913960400191505060405180910390fd5b6112b081611edd565b50565b6112bc33611f37565b565b6112c6611838565b61131b576040517f08c379a00000000000000000000000000000000000000000000000000000000081526004018080602001828103825260298152602001806126a46029913960400191505060405180910390fd5b600073ffffffffffffffffffffffffffffffffffffffff166000809054906101000a900473ffffffffffffffffffffffffffffffffffffffff1673ffffffffffffffffffffffffffffffffffffffff167f5c486528ec3e3f0ea91181cff8116f02bfa350e03b8b6f12e00765adbb5af85c60405160405180910390a360008060006101000a81548173ffffffffffffffffffffffffffffffffffffffff021916908373ffffffffffffffffffffffffffffffffffffffff160217905550565b6113ee336002611d8890919063ffffffff16565b611443576040517f08c379a00000000000000000000000000000000000000000000000000000000081526004018080602001828103825260248152602001806127346024913960400191505060405180910390fd5b61144c81611f91565b50565b61145833611feb565b565b6005602052806000526040600020600091509050806000015490806001018054600181600116156101000203166002900480601f01602080910402602001604051908101604052809291908181526020018280546001816001161561010002031660029004801561150c5780601f106114e15761010080835404028352916020019161150c565b820191906000526020600020905b8154815290600101906020018083116114ef57829003601f168201915b5050505050908060020160009054906101000a900473ffffffffffffffffffffffffffffffffffffffff16908060020160149054906101000a900460ff16908060030160009054906101000a900473ffffffffffffffffffffffffffffffffffffffff16908060040160009054906101000a900473ffffffffffffffffffffffffffffffffffffffff16908060050160009054906101000a900473ffffffffffffffffffffffffffffffffffffffff16905087565b6115d5336002611d8890919063ffffffff16565b61162a576040517f08c379a00000000000000000000000000000000000000000000000000000000081526004018080602001828103825260248152602001806127346024913960400191505060405180910390fd5b806003600681111561163857fe5b6005600083815260200190815260200160002060020160149054906101000a900460ff16600681111561166757fe5b146116bd576040517f08c379a000000000000000000000000000000000000000000000000000000000815260040180806020018281038252602681526020018061267e6026913960400191505060405180910390fd5b6005600083815260200190815260200160002060030160009054906101000a900473ffffffffffffffffffffffffffffffffffffffff168073ffffffffffffffffffffffffffffffffffffffff163373ffffffffffffffffffffffffffffffffffffffff1614611778576040517f08c379a000000000000000000000000000000000000000000000000000000000815260040180806020018281038252602a8152602001806125ea602a913960400191505060405180910390fd5b600060056000858152602001908152602001600020905060048160020160146101000a81548160ff021916908360068111156117b057fe5b02179055507f40557acb2ee4dc77f56ffb057df48183f6914c97d92dbc8b31c79d83ddaa746c846040518082815260200191505060405180910390a150505050565b60008060009054906101000a900473ffffffffffffffffffffffffffffffffffffffff16905090565b6000611831826002611d8890919063ffffffff16565b9050919050565b60008060009054906101000a900473ffffffffffffffffffffffffffffffffffffffff1673ffffffffffffffffffffffffffffffffffffffff163373ffffffffffffffffffffffffffffffffffffffff1614905090565b6118a3336001611d8890919063ffffffff16565b6118f8576040517f08c379a000000000000000000000000000000000000000000000000000000000815260040180806020018281038252602581526020018061270f6025913960400191505060405180910390fd5b806000600681111561190657fe5b6005600083815260200190815260200160002060020160149054906101000a900460ff16600681111561193557fe5b1461198b576040517f08c379a00000000000000000000000000000000000000000000000000000000081526004018080602001828103825260268152602001806127586026913960400191505060405180910390fd5b6005600083815260200190815260200160002060040160009054906101000a900473ffffffffffffffffffffffffffffffffffffffff168073ffffffffffffffffffffffffffffffffffffffff163373ffffffffffffffffffffffffffffffffffffffff1614611a46576040517f08c379a000000000000000000000000000000000000000000000000000000000815260040180806020018281038252602a8152602001806125ea602a913960400191505060405180910390fd5b600060056000858152602001908152602001600020905060018160020160146101000a81548160ff02191690836006811115611a7e57fe5b02179055507fffa896d8919f0556f53ace1395617969a3b53ab5271a085e28ac0c4a3724e63d846040518082815260200191505060405180910390a150505050565b611ac933612045565b565b60065481565b611ae5336001611d8890919063ffffffff16565b611b3a576040517f08c379a000000000000000000000000000000000000000000000000000000000815260040180806020018281038252602581526020018061270f6025913960400191505060405180910390fd5b8060016006811115611b4857fe5b6005600083815260200190815260200160002060020160149054906101000a900460ff166006811115611b7757fe5b14611bcd576040517f08c379a00000000000000000000000000000000000000000000000000000000081526004018080602001828103825260258152602001806126376025913960400191505060405180910390fd5b6005600083815260200190815260200160002060040160009054906101000a900473ffffffffffffffffffffffffffffffffffffffff168073ffffffffffffffffffffffffffffffffffffffff163373ffffffffffffffffffffffffffffffffffffffff1614611c88576040517f08c379a000000000000000000000000000000000000000000000000000000000815260040180806020018281038252602a8152602001806125ea602a913960400191505060405180910390fd5b600060056000858152602001908152602001600020905060028160020160146101000a81548160ff02191690836006811115611cc057fe5b02179055507ff00b9a5725b80c54016f42114f6ed7792d22eecb116011c4afac29c57bef6c95846040518082815260200191505060405180910390a150505050565b6000611d18826003611d8890919063ffffffff16565b9050919050565b611d27611838565b611d7c576040517f08c379a00000000000000000000000000000000000000000000000000000000081526004018080602001828103825260298152602001806126a46029913960400191505060405180910390fd5b611d858161209f565b50565b60008073ffffffffffffffffffffffffffffffffffffffff168273ffffffffffffffffffffffffffffffffffffffff161415611e2c576040517f08c379a000000000000000000000000000000000000000000000000000000000815260040180806020018281038252601e8152602001807f416464726573732063616e6e6f74206265207a65726f2061646472657373000081525060200191505060405180910390fd5b8260000160008373ffffffffffffffffffffffffffffffffffffffff1673ffffffffffffffffffffffffffffffffffffffff16815260200190815260200160002060009054906101000a900460ff16905092915050565b611e978160036121e390919063ffffffff16565b8073ffffffffffffffffffffffffffffffffffffffff167f187ea8b96b8ec4b770e46a85aa7421402f105827e5d2bb0705259f060c6043cb60405160405180910390a250565b611ef18160016121e390919063ffffffff16565b8073ffffffffffffffffffffffffffffffffffffffff167f561138658ca49a8540dc70dcfe64c9026c1c5b9344642242dd6562970f9c127860405160405180910390a250565b611f4b81600261234490919063ffffffff16565b8073ffffffffffffffffffffffffffffffffffffffff167f126174f6cf49c81cdb4a9214c6b8f037bef55b4ec31e4fc776cea2a1c8a88d5960405160405180910390a250565b611fa58160026121e390919063ffffffff16565b8073ffffffffffffffffffffffffffffffffffffffff167fddbf200aa634dc3fb81cfd68583dd1040d1c751d335e1d86b631bde3e977fea860405160405180910390a250565b611fff81600361234490919063ffffffff16565b8073ffffffffffffffffffffffffffffffffffffffff167fceb8b5081e60cbeafb2db1ed5f2ef32309a5ba1d0d74ac127be270181f297e5860405160405180910390a250565b61205981600161234490919063ffffffff16565b8073ffffffffffffffffffffffffffffffffffffffff167f2fed5abf6a80d6dfe30b4895481b2fc5d7dce5f8f7b931832f4a2947d5040c7f60405160405180910390a250565b600073ffffffffffffffffffffffffffffffffffffffff168173ffffffffffffffffffffffffffffffffffffffff161415612125576040517f08c379a00000000000000000000000000000000000000000000000000000000081526004018080602001828103825260218152602001806126ee6021913960400191505060405180910390fd5b8073ffffffffffffffffffffffffffffffffffffffff166000809054906101000a900473ffffffffffffffffffffffffffffffffffffffff1673ffffffffffffffffffffffffffffffffffffffff167f5c486528ec3e3f0ea91181cff8116f02bfa350e03b8b6f12e00765adbb5af85c60405160405180910390a3806000806101000a81548173ffffffffffffffffffffffffffffffffffffffff021916908373ffffffffffffffffffffffffffffffffffffffff16021790555050565b600073ffffffffffffffffffffffffffffffffffffffff168173ffffffffffffffffffffffffffffffffffffffff161415612286576040517f08c379a000000000000000000000000000000000000000000000000000000000815260040180806020018281038252601e8152602001807f416464726573732063616e6e6f74206265207a65726f2061646472657373000081525060200191505060405180910390fd5b6122908282611d88565b156122e6576040517f08c379a000000000000000000000000000000000000000000000000000000000815260040180806020018281038252602281526020018061265c6022913960400191505060405180910390fd5b60018260000160008373ffffffffffffffffffffffffffffffffffffffff1673ffffffffffffffffffffffffffffffffffffffff16815260200190815260200160002060006101000a81548160ff0219169083151502179055505050565b600073ffffffffffffffffffffffffffffffffffffffff168173ffffffffffffffffffffffffffffffffffffffff1614156123e7576040517f08c379a000000000000000000000000000000000000000000000000000000000815260040180806020018281038252601e8152602001807f416464726573732063616e6e6f74206265207a65726f2061646472657373000081525060200191505060405180910390fd5b6123f18282611d88565b612446576040517f08c379a000000000000000000000000000000000000000000000000000000000815260040180806020018281038252602881526020018061277e6028913960400191505060405180910390fd5b60008260000160008373ffffffffffffffffffffffffffffffffffffffff1673ffffffffffffffffffffffffffffffffffffffff16815260200190815260200160002060006101000a81548160ff0219169083151502179055505050565b6040518060e001604052806000815260200160608152602001600073ffffffffffffffffffffffffffffffffffffffff168152602001600060068111156124e757fe5b8152602001600073ffffffffffffffffffffffffffffffffffffffff168152602001600073ffffffffffffffffffffffffffffffffffffffff168152602001600073ffffffffffffffffffffffffffffffffffffffff1681525090565b828054600181600116156101000203166002900490600052602060002090601f016020900481019282601f1061258557805160ff19168380011785556125b3565b828001600101855582156125b3579182015b828111156125b2578251825591602001919060010190612597565b5b5090506125c091906125c4565b5090565b6125e691905b808211156125e25760008160009055506001016125ca565b5090565b9056fe54686973206163636f756e74206973206e6f7420746865206f776e6572206f662074686973206974656d546865204974656d206973206e6f7420696e20496e5472616e73697420737461746521546865204974656d206973206e6f7420696e204f72646572506c616365642073746174652154686973206164647265737320616c726561647920686173207468697320726f6c65546865204974656d206973206e6f7420696e20446973745265636965766564207374617465214f6e6c7920746865206f776e65722063616e20706572666f726d2074686973206f7065726174696f6e546865204974656d206973206e6f7420696e205368697070656420737461746521546865206e6577204f776e65722063616e6e6f742062652061646472657373203054686973206163636f756e7420686173206e6f204d616e75666163747572657220526f6c6554686973206163636f756e7420686173206e6f204469737472696275746f7220526f6c65546865204974656d206973206e6f7420696e204d616e7566616374757265642073746174652154686973206164647265737320646f6573206e6f742068617665207468697320726f6c6520796574546865204974656d206973206e6f7420696e2056656e646f72526563696576656420737461746521a265627a7a72315820e503cc966ddd26892bc4bd95c1b979f32b90b839f848fc4eb500e7d7a39c9f1f64736f6c6343000510003254686973206164647265737320616c726561647920686173207468697320726f6c65",
  "source": "pragma solidity >=0.4.22 <0.9.0;\r\n\r\nimport './accessControl/DistributorRole.sol';\r\nimport './accessControl/ManufacturerRole.sol';\r\nimport './accessControl/VendorRole.sol';\r\nimport './core/Ownable.sol';\r\n\r\ncontract ProductTracking is Ownable, ManufacturerRole, DistributorRole, VendorRole {\r\n    // Model a Product\r\n    struct Product {\r\n        uint productID;\r\n        string name;\r\n        address payable ownerID;\r\n        State   currentStatus;\r\n        address payable distributorID;\r\n        address payable manufacturerID;\r\n        address payable vendorID;\r\n    }\r\n\r\n    // Track the journey\r\n    mapping (uint => string[]) productsHistory;\r\n\r\n    // Read/write products\r\n    mapping(uint => Product) public products;\r\n\r\n    // Store Products Count\r\n    uint public productsCount;\r\n\r\n    // Define enum 'State' with the following values:\r\n    enum State {\r\n        Manufactured,  // 0\r\n        OrderPlaced,  // 1\r\n        Shipped,     // 2\r\n        DistRecieved,    // 3\r\n        InTransit,       // 4\r\n        VendorRecieved,    // 5\r\n        Purchased   // 6\r\n    }\r\n\r\n    State constant defaultState = State.Manufactured;\r\n\r\n    // Define 7 events with the same 8 state values and accept 'upc' as input argument\r\n    event Manufactured(uint upc);\r\n    event OrderPlaced(uint upc);\r\n    event Shipped(uint upc);\r\n    event DistRecieved(uint upc);\r\n    event InTransit(uint upc);\r\n    event VendorRecieved(uint upc);\r\n    event Purchased(uint upc);\r\n\r\n    constructor() public {\r\n        //TODO\r\n    }\r\n\r\n    // Define a modifer that verifies the Caller\r\n    modifier verifyCaller (address payable _address) {\r\n        require(msg.sender == _address, \"This account is not the owner of this item\"); //NEW CHANGE. address is now address payable, and msg.sender is casted as payable\r\n        _;\r\n    }\r\n\r\n    // Define a modifier that checks if an item.state of a upc is Manufactured\r\n    modifier manufactured(uint _upc) {\r\n        require(products[_upc].currentStatus == State.Manufactured, \"The Item is not in Manufactured state!\");\r\n        _;\r\n    }\r\n\r\n    // Define a modifier that checks if an item.state of a upc is OrderPlaced\r\n    modifier orderPlaced(uint _upc) {\r\n        require(products[_upc].currentStatus == State.OrderPlaced, \"The Item is not in OrderPlaced state!\");\r\n        _;\r\n    }\r\n\r\n    // Define a modifier that checks if an item.state of a upc is Shipped\r\n    modifier shipped(uint _upc) {\r\n        require(products[_upc].currentStatus == State.Shipped, \"The Item is not in Shipped state!\");\r\n        _;\r\n    }\r\n\r\n    // Define a modifier that checks if an item.state of a upc is DistRecieved\r\n    modifier distRecieved(uint _upc) {\r\n        require(products[_upc].currentStatus == State.DistRecieved, \"The Item is not in DistRecieved state!\");\r\n        _;\r\n    }\r\n\r\n    // Define a modifier that checks if an item.state of a upc is InTransit\r\n    modifier inTransit(uint _upc) {\r\n        require(products[_upc].currentStatus == State.InTransit, \"The Item is not in InTransit state!\");\r\n        _;\r\n    }\r\n\r\n    // Define a modifier that checks if an item.state of a upc is VendorRecieved\r\n    modifier vendorRecieved(uint _upc) {\r\n        require(products[_upc].currentStatus == State.VendorRecieved, \"The Item is not in VendorRecieved state!\");\r\n        _;\r\n    }\r\n\r\n    // Define a modifier that checks if an item.state of a upc is Purchased\r\n    modifier purchased(uint _upc) {\r\n        require(products[_upc].currentStatus == State.Purchased, \"The Item is not in Purchased state!\");\r\n        _;\r\n    }\r\n\r\n    // Define a function 'manufactureProduct' that allows a manufacturer to mark an item 'Manufactured'\r\n    function manufactureProduct(\r\n    uint _upc,\r\n    string memory name,\r\n    address payable _originManufacturerID) public\r\n    onlyManufacturer\r\n    {\r\n        // Add the new item as part of Harvest\r\n        Product memory newItem;\r\n        newItem.ownerID = _originManufacturerID;\r\n        newItem.manufacturerID = _originManufacturerID; //NEW ADDITION\r\n        newItem.productID = _upc;\r\n        newItem.name = name;\r\n\r\n        productsCount = productsCount + 1;\r\n\r\n        // Setting state\r\n        newItem.currentStatus = State.Manufactured; //NEW CHANGE. Used to be State.Shipped\r\n\r\n        // Adding new Item to map\r\n        products[_upc] = newItem;\r\n\r\n        // Emit the appropriate event\r\n        emit Manufactured(_upc);\r\n    }\r\n\r\n    // Define a function 'placeOrder' that allows the manufacturer to mark an item 'OrderPlaced'\r\n    function placeOrder(uint _upc) public\r\n    onlyManufacturer\r\n    manufactured(_upc)\r\n    verifyCaller(products[_upc].manufacturerID)\r\n    {\r\n        //Retrieve product\r\n        Product storage existingItem = products[_upc];\r\n        //Update state\r\n        existingItem.currentStatus = State.OrderPlaced;\r\n        // Emit the appropriate event\r\n        emit OrderPlaced(_upc);\r\n    }\r\n\r\n    // Define a function 'shipToDistributor' that allows the manufacturer to mark an item 'Shipped'\r\n    function shipToDistributor(uint _upc) public\r\n    onlyManufacturer\r\n    orderPlaced(_upc)\r\n    verifyCaller(products[_upc].manufacturerID)\r\n    {\r\n        //Retrieve product\r\n        Product storage existingItem = products[_upc];\r\n        //Update state\r\n        existingItem.currentStatus = State.Shipped;\r\n        // Emit the appropriate event\r\n        emit Shipped(_upc);\r\n    }\r\n\r\n    // Define a function 'recieveAsDistributor' that allows a disributor to mark an item 'DistRecieved'\r\n    function recieveAsDistributor(uint _upc) public\r\n    onlyDistributor\r\n    shipped(_upc)\r\n    {\r\n        //Retrieve product and update new owner\r\n        Product storage existingItem = products[_upc];\r\n        existingItem.ownerID = msg.sender;\r\n        existingItem.distributorID = msg.sender;\r\n        //Update state\r\n        existingItem.currentStatus = State.DistRecieved;\r\n        // emit the appropriate event\r\n        emit DistRecieved(_upc);\r\n    }\r\n\r\n    // Define a function 'shipToVendor' that allows the distributor to mark an item 'InTransit'\r\n    function shipToVendor(uint _upc) public\r\n    onlyDistributor\r\n    distRecieved(_upc)\r\n    verifyCaller(products[_upc].distributorID)\r\n    {\r\n        //Retrieve product\r\n        Product storage existingItem = products[_upc];\r\n        //Update state\r\n        existingItem.currentStatus = State.InTransit;\r\n        // Emit the appropriate event\r\n        emit InTransit(_upc);\r\n    }\r\n\r\n    // Define a function 'recieveAsVendor' that allows a disributor to mark an item 'VendorRecieved'\r\n    function recieveAsVendor(uint _upc) public\r\n    onlyVendor\r\n    inTransit(_upc)\r\n    {\r\n        //Retrieve product and update new owner\r\n        Product storage existingItem = products[_upc];\r\n        existingItem.ownerID = msg.sender;\r\n        existingItem.vendorID = msg.sender;\r\n        //Update state\r\n        existingItem.currentStatus = State.VendorRecieved;\r\n        // emit the appropriate event\r\n        emit VendorRecieved(_upc);\r\n    }\r\n\r\n\r\n    // Define a function 'shipToVendor' that allows the distributor to mark an item 'Purchased'\r\n    function sellProduct(uint _upc) public\r\n    onlyVendor\r\n    vendorRecieved(_upc)\r\n    verifyCaller(products[_upc].vendorID)\r\n    {\r\n        //Retrieve product\r\n        Product storage existingItem = products[_upc];\r\n        //Update state\r\n        existingItem.currentStatus = State.Purchased;\r\n        // Emit the appropriate event\r\n        emit Purchased(_upc);\r\n    }\r\n    //IMPORTANT, can add 'address payable customerName' to parameters and then set owner id to that of customerName. I didn't do it, because I didn't find it important for the item's history.\r\n    //But we can easily add it in and make use of that. It is up to everyone to agree on\r\n    //Just know that without that, the owner role is practically useless\r\n\r\n\r\n    \r\n    // function compareStrings (string memory a, string memory b) public view returns (bool) {\r\n    //     return (keccak256(abi.encodePacked((a))) == keccak256(abi.encodePacked((b))));\r\n    // }\r\n}",
  "sourcePath": "/Users/rthakkar/blockchain/react-blockchain/contracts/ProductTracking.sol",
  "compiler": {
    "name": "solc",
    "version": "0.5.16+commit.9c3226ce.Emscripten.clang"
  },
  "schemaVersion": "3.4.7",
  "updatedAt": "2022-05-14T18:52:36.364Z",
  "networkType": "ethereum",
  "devdoc": {
    "methods": {}
  },
  "userdoc": {
    "methods": {
      "isOwner()": {
        "notice": "Check if the calling address is the owner of the contract"
      },
      "owner()": {
        "notice": "Look up the address of the owner"
      },
      "renounceOwnership()": {
        "notice": "Define a function to renounce ownerhip"
      },
      "transferOwnership(address)": {
        "notice": "Define a public function to transfer ownership"
      }
    }
  }
}