{
  "contractName": "ProductTracking",
  "abi": [
    {
      "inputs": [],
      "payable": false,
      "stateMutability": "nonpayable",
      "type": "constructor"
    },
    {
      "anonymous": false,
      "inputs": [
        {
          "indexed": true,
          "internalType": "address",
          "name": "account",
          "type": "address"
        }
      ],
      "name": "DistributorAdded",
      "type": "event"
    },
    {
      "anonymous": false,
      "inputs": [
        {
          "indexed": true,
          "internalType": "address",
          "name": "account",
          "type": "address"
        }
      ],
      "name": "DistributorRemoved",
      "type": "event"
    },
    {
      "anonymous": false,
      "inputs": [
        {
          "indexed": true,
          "internalType": "address",
          "name": "account",
          "type": "address"
        }
      ],
      "name": "ManufacturerAdded",
      "type": "event"
    },
    {
      "anonymous": false,
      "inputs": [
        {
          "indexed": true,
          "internalType": "address",
          "name": "account",
          "type": "address"
        }
      ],
      "name": "ManufacturerRemoved",
      "type": "event"
    },
    {
      "anonymous": false,
      "inputs": [
        {
          "indexed": true,
          "internalType": "address",
          "name": "oldOwner",
          "type": "address"
        },
        {
          "indexed": true,
          "internalType": "address",
          "name": "newOwner",
          "type": "address"
        }
      ],
      "name": "TransferOwnership",
      "type": "event"
    },
    {
      "anonymous": false,
      "inputs": [
        {
          "indexed": true,
          "internalType": "address",
          "name": "account",
          "type": "address"
        }
      ],
      "name": "VendorAdded",
      "type": "event"
    },
    {
      "anonymous": false,
      "inputs": [
        {
          "indexed": true,
          "internalType": "address",
          "name": "account",
          "type": "address"
        }
      ],
      "name": "VendorRemoved",
      "type": "event"
    },
    {
      "constant": false,
      "inputs": [
        {
          "internalType": "address",
          "name": "account",
          "type": "address"
        }
      ],
      "name": "addDistributor",
      "outputs": [],
      "payable": false,
      "stateMutability": "nonpayable",
      "type": "function"
    },
    {
      "constant": false,
      "inputs": [
        {
          "internalType": "address",
          "name": "account",
          "type": "address"
        }
      ],
      "name": "addManufacturer",
      "outputs": [],
      "payable": false,
      "stateMutability": "nonpayable",
      "type": "function"
    },
    {
      "constant": false,
      "inputs": [
        {
          "internalType": "address",
          "name": "account",
          "type": "address"
        }
      ],
      "name": "addVendor",
      "outputs": [],
      "payable": false,
      "stateMutability": "nonpayable",
      "type": "function"
    },
    {
      "constant": true,
      "inputs": [
        {
          "internalType": "address",
          "name": "account",
          "type": "address"
        }
      ],
      "name": "isDistributor",
      "outputs": [
        {
          "internalType": "bool",
          "name": "",
          "type": "bool"
        }
      ],
      "payable": false,
      "stateMutability": "view",
      "type": "function"
    },
    {
      "constant": true,
      "inputs": [
        {
          "internalType": "address",
          "name": "account",
          "type": "address"
        }
      ],
      "name": "isManufacturer",
      "outputs": [
        {
          "internalType": "bool",
          "name": "",
          "type": "bool"
        }
      ],
      "payable": false,
      "stateMutability": "view",
      "type": "function"
    },
    {
      "constant": true,
      "inputs": [],
      "name": "isOwner",
      "outputs": [
        {
          "internalType": "bool",
          "name": "",
          "type": "bool"
        }
      ],
      "payable": false,
      "stateMutability": "view",
      "type": "function"
    },
    {
      "constant": true,
      "inputs": [
        {
          "internalType": "address",
          "name": "account",
          "type": "address"
        }
      ],
      "name": "isVendor",
      "outputs": [
        {
          "internalType": "bool",
          "name": "",
          "type": "bool"
        }
      ],
      "payable": false,
      "stateMutability": "view",
      "type": "function"
    },
    {
      "constant": false,
      "inputs": [],
      "name": "kill",
      "outputs": [],
      "payable": false,
      "stateMutability": "nonpayable",
      "type": "function"
    },
    {
      "constant": true,
      "inputs": [],
      "name": "owner",
      "outputs": [
        {
          "internalType": "address",
          "name": "",
          "type": "address"
        }
      ],
      "payable": false,
      "stateMutability": "view",
      "type": "function"
    },
    {
      "constant": true,
      "inputs": [
        {
          "internalType": "uint256",
          "name": "",
          "type": "uint256"
        }
      ],
      "name": "products",
      "outputs": [
        {
          "internalType": "uint256",
          "name": "id",
          "type": "uint256"
        },
        {
          "internalType": "string",
          "name": "name",
          "type": "string"
        },
        {
          "internalType": "string",
          "name": "currentStatus",
          "type": "string"
        }
      ],
      "payable": false,
      "stateMutability": "view",
      "type": "function"
    },
    {
      "constant": true,
      "inputs": [],
      "name": "productsCount",
      "outputs": [
        {
          "internalType": "uint256",
          "name": "",
          "type": "uint256"
        }
      ],
      "payable": false,
      "stateMutability": "view",
      "type": "function"
    },
    {
      "constant": false,
      "inputs": [],
      "name": "renounceDistributor",
      "outputs": [],
      "payable": false,
      "stateMutability": "nonpayable",
      "type": "function"
    },
    {
      "constant": false,
      "inputs": [],
      "name": "renounceManufacturer",
      "outputs": [],
      "payable": false,
      "stateMutability": "nonpayable",
      "type": "function"
    },
    {
      "constant": false,
      "inputs": [],
      "name": "renounceOwnership",
      "outputs": [],
      "payable": false,
      "stateMutability": "nonpayable",
      "type": "function"
    },
    {
      "constant": false,
      "inputs": [],
      "name": "renounceVendor",
      "outputs": [],
      "payable": false,
      "stateMutability": "nonpayable",
      "type": "function"
    },
    {
      "constant": false,
      "inputs": [
        {
          "internalType": "address payable",
          "name": "newOwner",
          "type": "address"
        }
      ],
      "name": "transferOwnership",
      "outputs": [],
      "payable": false,
      "stateMutability": "nonpayable",
      "type": "function"
    },
    {
      "constant": false,
      "inputs": [
        {
          "internalType": "string",
          "name": "_name",
          "type": "string"
        }
      ],
      "name": "addProduct",
      "outputs": [],
      "payable": false,
      "stateMutability": "nonpayable",
      "type": "function"
    },
    {
      "constant": false,
      "inputs": [
        {
          "internalType": "uint256",
          "name": "_productId",
          "type": "uint256"
        }
      ],
      "name": "vote",
      "outputs": [],
      "payable": false,
      "stateMutability": "nonpayable",
      "type": "function"
    },
    {
      "constant": true,
      "inputs": [
        {
          "internalType": "string",
          "name": "a",
          "type": "string"
        },
        {
          "internalType": "string",
          "name": "b",
          "type": "string"
        }
      ],
      "name": "compareStrings",
      "outputs": [
        {
          "internalType": "bool",
          "name": "",
          "type": "bool"
        }
      ],
      "payable": false,
      "stateMutability": "view",
      "type": "function"
    }
  ],
  "bytecode": "0x60806040523480156200001157600080fd5b50336000806101000a81548173ffffffffffffffffffffffffffffffffffffffff021916908373ffffffffffffffffffffffffffffffffffffffff1602179055506000809054906101000a900473ffffffffffffffffffffffffffffffffffffffff1673ffffffffffffffffffffffffffffffffffffffff16600073ffffffffffffffffffffffffffffffffffffffff167f5c486528ec3e3f0ea91181cff8116f02bfa350e03b8b6f12e00765adbb5af85c60405160405180910390a3620000df33620002ab60201b60201c565b620000f0336200030c60201b60201c565b62000101336200036d60201b60201c565b620001476040518060400160405280600981526020017f50726f6475637420310000000000000000000000000000000000000000000000815250620003ce60201b60201c565b6200018d6040518060400160405280600981526020017f50726f6475637420320000000000000000000000000000000000000000000000815250620003ce60201b60201c565b620001d36040518060400160405280600981526020017f50726f6475637420330000000000000000000000000000000000000000000000815250620003ce60201b60201c565b620002196040518060400160405280600981526020017f50726f6475637420340000000000000000000000000000000000000000000000815250620003ce60201b60201c565b6200025f6040518060400160405280600981526020017f50726f6475637420350000000000000000000000000000000000000000000000815250620003ce60201b60201c565b620002a56040518060400160405280600981526020017f50726f6475637420360000000000000000000000000000000000000000000000815250620003ce60201b60201c565b620007ac565b620002c68160016200049560201b620016331790919060201c565b8073ffffffffffffffffffffffffffffffffffffffff167f561138658ca49a8540dc70dcfe64c9026c1c5b9344642242dd6562970f9c127860405160405180910390a250565b620003278160026200049560201b620016331790919060201c565b8073ffffffffffffffffffffffffffffffffffffffff167fddbf200aa634dc3fb81cfd68583dd1040d1c751d335e1d86b631bde3e977fea860405160405180910390a250565b620003888160036200049560201b620016331790919060201c565b8073ffffffffffffffffffffffffffffffffffffffff167f187ea8b96b8ec4b770e46a85aa7421402f105827e5d2bb0705259f060c6043cb60405160405180910390a250565b600660008154809291906001019190505550604051806060016040528060065481526020018281526020016040518060400160405280600c81526020017f494e2d57415245484f55534500000000000000000000000000000000000000008152508152506005600060065481526020019081526020016000206000820151816000015560208201518160010190805190602001906200046f929190620006fd565b5060408201518160020190805190602001906200048e929190620006fd565b5090505050565b600073ffffffffffffffffffffffffffffffffffffffff168173ffffffffffffffffffffffffffffffffffffffff16141562000539576040517f08c379a000000000000000000000000000000000000000000000000000000000815260040180806020018281038252601e8152602001807f416464726573732063616e6e6f74206265207a65726f2061646472657373000081525060200191505060405180910390fd5b6200054b82826200060160201b60201c565b15620005a3576040517f08c379a0000000000000000000000000000000000000000000000000000000008152600401808060200182810382526022815260200180620022e76022913960400191505060405180910390fd5b60018260000160008373ffffffffffffffffffffffffffffffffffffffff1673ffffffffffffffffffffffffffffffffffffffff16815260200190815260200160002060006101000a81548160ff0219169083151502179055505050565b60008073ffffffffffffffffffffffffffffffffffffffff168273ffffffffffffffffffffffffffffffffffffffff161415620006a6576040517f08c379a000000000000000000000000000000000000000000000000000000000815260040180806020018281038252601e8152602001807f416464726573732063616e6e6f74206265207a65726f2061646472657373000081525060200191505060405180910390fd5b8260000160008373ffffffffffffffffffffffffffffffffffffffff1673ffffffffffffffffffffffffffffffffffffffff16815260200190815260200160002060009054906101000a900460ff16905092915050565b828054600181600116156101000203166002900490600052602060002090601f016020900481019282601f106200074057805160ff191683800117855562000771565b8280016001018555821562000771579182015b828111156200077057825182559160200191906001019062000753565b5b50905062000780919062000784565b5090565b620007a991905b80821115620007a55760008160009055506001016200078b565b5090565b90565b611b2b80620007bc6000396000f3fe608060405234801561001057600080fd5b50600436106101215760003560e01c80637acc0b20116100ad578063de07f34e11610071578063de07f34e146105f0578063dfe00c51146105fa578063e0df7bb6146106b5578063ee54d54f146106d3578063f2fde38b1461072f57610121565b80637acc0b20146102a45780638da5cb5b146103be5780638f0c86fa146104085780638f32d59b14610464578063bed34bba1461048657610121565b80635f8a5afa116100f45780635f8a5afa146101fe578063644241db14610242578063715018a61461024c5780637250e2241461025657806376ba15ad1461029a57610121565b80630121b93f1461012657806317d4a4911461015457806341c0e1b5146101b057806345e0f753146101ba575b600080fd5b6101526004803603602081101561013c57600080fd5b8101908080359060200190929190505050610773565b005b6101966004803603602081101561016a57600080fd5b81019080803573ffffffffffffffffffffffffffffffffffffffff169060200190929190505050610a3c565b604051808215151515815260200191505060405180910390f35b6101b8610a59565b005b6101fc600480360360208110156101d057600080fd5b81019080803573ffffffffffffffffffffffffffffffffffffffff169060200190929190505050610aea565b005b6102406004803603602081101561021457600080fd5b81019080803573ffffffffffffffffffffffffffffffffffffffff169060200190929190505050610b7c565b005b61024a610bf1565b005b610254610bfc565b005b6102986004803603602081101561026c57600080fd5b81019080803573ffffffffffffffffffffffffffffffffffffffff169060200190929190505050610d18565b005b6102a2610d8d565b005b6102d0600480360360208110156102ba57600080fd5b8101908080359060200190929190505050610d98565b604051808481526020018060200180602001838103835285818151815260200191508051906020019080838360005b8381101561031a5780820151818401526020810190506102ff565b50505050905090810190601f1680156103475780820380516001836020036101000a031916815260200191505b50838103825284818151815260200191508051906020019080838360005b83811015610380578082015181840152602081019050610365565b50505050905090810190601f1680156103ad5780820380516001836020036101000a031916815260200191505b509550505050505060405180910390f35b6103c6610ef2565b604051808273ffffffffffffffffffffffffffffffffffffffff1673ffffffffffffffffffffffffffffffffffffffff16815260200191505060405180910390f35b61044a6004803603602081101561041e57600080fd5b81019080803573ffffffffffffffffffffffffffffffffffffffff169060200190929190505050610f1b565b604051808215151515815260200191505060405180910390f35b61046c610f38565b604051808215151515815260200191505060405180910390f35b6105d66004803603604081101561049c57600080fd5b81019080803590602001906401000000008111156104b957600080fd5b8201836020820111156104cb57600080fd5b803590602001918460018302840111640100000000831117156104ed57600080fd5b91908080601f016020809104026020016040519081016040528093929190818152602001838380828437600081840152601f19601f8201169050808301925050505050505091929192908035906020019064010000000081111561055057600080fd5b82018360208201111561056257600080fd5b8035906020019184600183028401116401000000008311171561058457600080fd5b91908080601f016020809104026020016040519081016040528093929190818152602001838380828437600081840152601f19601f820116905080830192505050505050509192919290505050610f8f565b604051808215151515815260200191505060405180910390f35b6105f861107e565b005b6106b36004803603602081101561061057600080fd5b810190808035906020019064010000000081111561062d57600080fd5b82018360208201111561063f57600080fd5b8035906020019184600183028401116401000000008311171561066157600080fd5b91908080601f016020809104026020016040519081016040528093929190818152602001838380828437600081840152601f19601f820116905080830192505050505050509192919290505050611089565b005b6106bd61114c565b6040518082815260200191505060405180910390f35b610715600480360360208110156106e957600080fd5b81019080803573ffffffffffffffffffffffffffffffffffffffff169060200190929190505050611152565b604051808215151515815260200191505060405180910390f35b6107716004803603602081101561074557600080fd5b81019080803573ffffffffffffffffffffffffffffffffffffffff16906020019092919050505061116f565b005b60008111801561078557506006548111155b61078e57600080fd5b61087b600560008381526020019081526020016000206002018054600181600116156101000203166002900480601f01602080910402602001604051908101604052809291908181526020018280546001816001161561010002031660029004801561083b5780601f106108105761010080835404028352916020019161083b565b820191906000526020600020905b81548152906001019060200180831161081e57829003601f168201915b50505050506040518060400160405280600c81526020017f494e2d57415245484f5553450000000000000000000000000000000000000000815250610f8f565b156108e5576040518060400160405280600a81526020017f494e2d5452414e534954000000000000000000000000000000000000000000008152506005600083815260200190815260200160002060020190805190602001906108df9291906118f4565b50610a39565b6109d2600560008381526020019081526020016000206002018054600181600116156101000203166002900480601f0160208091040260200160405190810160405280929190818152602001828054600181600116156101000203166002900480156109925780601f1061096757610100808354040283529160200191610992565b820191906000526020600020905b81548152906001019060200180831161097557829003601f168201915b50505050506040518060400160405280600a81526020017f494e2d5452414e53495400000000000000000000000000000000000000000000815250610f8f565b15610a38576040518060400160405280600a81526020017f4449535041544348454400000000000000000000000000000000000000000000815250600560008381526020019081526020016000206002019080519060200190610a369291906118f4565b505b5b50565b6000610a528260016111d890919063ffffffff16565b9050919050565b6000809054906101000a900473ffffffffffffffffffffffffffffffffffffffff1673ffffffffffffffffffffffffffffffffffffffff163373ffffffffffffffffffffffffffffffffffffffff161415610ae8576000809054906101000a900473ffffffffffffffffffffffffffffffffffffffff1673ffffffffffffffffffffffffffffffffffffffff16ff5b565b610afe3360036111d890919063ffffffff16565b610b70576040517f08c379a000000000000000000000000000000000000000000000000000000000815260040180806020018281038252601f8152602001807f54686973206163636f756e7420686173206e6f2056656e646f7220526f6c650081525060200191505060405180910390fd5b610b79816112d3565b50565b610b903360016111d890919063ffffffff16565b610be5576040517f08c379a0000000000000000000000000000000000000000000000000000000008152600401808060200182810382526025815260200180611a866025913960400191505060405180910390fd5b610bee8161132d565b50565b610bfa33611387565b565b610c04610f38565b610c59576040517f08c379a0000000000000000000000000000000000000000000000000000000008152600401808060200182810382526029815260200180611a3c6029913960400191505060405180910390fd5b600073ffffffffffffffffffffffffffffffffffffffff166000809054906101000a900473ffffffffffffffffffffffffffffffffffffffff1673ffffffffffffffffffffffffffffffffffffffff167f5c486528ec3e3f0ea91181cff8116f02bfa350e03b8b6f12e00765adbb5af85c60405160405180910390a360008060006101000a81548173ffffffffffffffffffffffffffffffffffffffff021916908373ffffffffffffffffffffffffffffffffffffffff160217905550565b610d2c3360026111d890919063ffffffff16565b610d81576040517f08c379a0000000000000000000000000000000000000000000000000000000008152600401808060200182810382526024815260200180611aab6024913960400191505060405180910390fd5b610d8a816113e1565b50565b610d963361143b565b565b6005602052806000526040600020600091509050806000015490806001018054600181600116156101000203166002900480601f016020809104026020016040519081016040528092919081815260200182805460018160011615610100020316600290048015610e4a5780601f10610e1f57610100808354040283529160200191610e4a565b820191906000526020600020905b815481529060010190602001808311610e2d57829003601f168201915b505050505090806002018054600181600116156101000203166002900480601f016020809104026020016040519081016040528092919081815260200182805460018160011615610100020316600290048015610ee85780601f10610ebd57610100808354040283529160200191610ee8565b820191906000526020600020905b815481529060010190602001808311610ecb57829003601f168201915b5050505050905083565b60008060009054906101000a900473ffffffffffffffffffffffffffffffffffffffff16905090565b6000610f318260026111d890919063ffffffff16565b9050919050565b60008060009054906101000a900473ffffffffffffffffffffffffffffffffffffffff1673ffffffffffffffffffffffffffffffffffffffff163373ffffffffffffffffffffffffffffffffffffffff1614905090565b6000816040516020018082805190602001908083835b60208310610fc85780518252602082019150602081019050602083039250610fa5565b6001836020036101000a03801982511681845116808217855250505050505090500191505060405160208183030381529060405280519060200120836040516020018082805190602001908083835b6020831061103a5780518252602082019150602081019050602083039250611017565b6001836020036101000a0380198251168184511680821785525050505050509050019150506040516020818303038152906040528051906020012014905092915050565b61108733611495565b565b600660008154809291906001019190505550604051806060016040528060065481526020018281526020016040518060400160405280600c81526020017f494e2d57415245484f5553450000000000000000000000000000000000000000815250815250600560006006548152602001908152602001600020600082015181600001556020820151816001019080519060200190611128929190611974565b506040820151816002019080519060200190611145929190611974565b5090505050565b60065481565b60006111688260036111d890919063ffffffff16565b9050919050565b611177610f38565b6111cc576040517f08c379a0000000000000000000000000000000000000000000000000000000008152600401808060200182810382526029815260200180611a3c6029913960400191505060405180910390fd5b6111d5816114ef565b50565b60008073ffffffffffffffffffffffffffffffffffffffff168273ffffffffffffffffffffffffffffffffffffffff16141561127c576040517f08c379a000000000000000000000000000000000000000000000000000000000815260040180806020018281038252601e8152602001807f416464726573732063616e6e6f74206265207a65726f2061646472657373000081525060200191505060405180910390fd5b8260000160008373ffffffffffffffffffffffffffffffffffffffff1673ffffffffffffffffffffffffffffffffffffffff16815260200190815260200160002060009054906101000a900460ff16905092915050565b6112e781600361163390919063ffffffff16565b8073ffffffffffffffffffffffffffffffffffffffff167f187ea8b96b8ec4b770e46a85aa7421402f105827e5d2bb0705259f060c6043cb60405160405180910390a250565b61134181600161163390919063ffffffff16565b8073ffffffffffffffffffffffffffffffffffffffff167f561138658ca49a8540dc70dcfe64c9026c1c5b9344642242dd6562970f9c127860405160405180910390a250565b61139b81600261179490919063ffffffff16565b8073ffffffffffffffffffffffffffffffffffffffff167f126174f6cf49c81cdb4a9214c6b8f037bef55b4ec31e4fc776cea2a1c8a88d5960405160405180910390a250565b6113f581600261163390919063ffffffff16565b8073ffffffffffffffffffffffffffffffffffffffff167fddbf200aa634dc3fb81cfd68583dd1040d1c751d335e1d86b631bde3e977fea860405160405180910390a250565b61144f81600361179490919063ffffffff16565b8073ffffffffffffffffffffffffffffffffffffffff167fceb8b5081e60cbeafb2db1ed5f2ef32309a5ba1d0d74ac127be270181f297e5860405160405180910390a250565b6114a981600161179490919063ffffffff16565b8073ffffffffffffffffffffffffffffffffffffffff167f2fed5abf6a80d6dfe30b4895481b2fc5d7dce5f8f7b931832f4a2947d5040c7f60405160405180910390a250565b600073ffffffffffffffffffffffffffffffffffffffff168173ffffffffffffffffffffffffffffffffffffffff161415611575576040517f08c379a0000000000000000000000000000000000000000000000000000000008152600401808060200182810382526021815260200180611a656021913960400191505060405180910390fd5b8073ffffffffffffffffffffffffffffffffffffffff166000809054906101000a900473ffffffffffffffffffffffffffffffffffffffff1673ffffffffffffffffffffffffffffffffffffffff167f5c486528ec3e3f0ea91181cff8116f02bfa350e03b8b6f12e00765adbb5af85c60405160405180910390a3806000806101000a81548173ffffffffffffffffffffffffffffffffffffffff021916908373ffffffffffffffffffffffffffffffffffffffff16021790555050565b600073ffffffffffffffffffffffffffffffffffffffff168173ffffffffffffffffffffffffffffffffffffffff1614156116d6576040517f08c379a000000000000000000000000000000000000000000000000000000000815260040180806020018281038252601e8152602001807f416464726573732063616e6e6f74206265207a65726f2061646472657373000081525060200191505060405180910390fd5b6116e082826111d8565b15611736576040517f08c379a0000000000000000000000000000000000000000000000000000000008152600401808060200182810382526022815260200180611a1a6022913960400191505060405180910390fd5b60018260000160008373ffffffffffffffffffffffffffffffffffffffff1673ffffffffffffffffffffffffffffffffffffffff16815260200190815260200160002060006101000a81548160ff0219169083151502179055505050565b600073ffffffffffffffffffffffffffffffffffffffff168173ffffffffffffffffffffffffffffffffffffffff161415611837576040517f08c379a000000000000000000000000000000000000000000000000000000000815260040180806020018281038252601e8152602001807f416464726573732063616e6e6f74206265207a65726f2061646472657373000081525060200191505060405180910390fd5b61184182826111d8565b611896576040517f08c379a0000000000000000000000000000000000000000000000000000000008152600401808060200182810382526028815260200180611acf6028913960400191505060405180910390fd5b60008260000160008373ffffffffffffffffffffffffffffffffffffffff1673ffffffffffffffffffffffffffffffffffffffff16815260200190815260200160002060006101000a81548160ff0219169083151502179055505050565b828054600181600116156101000203166002900490600052602060002090601f016020900481019282601f1061193557805160ff1916838001178555611963565b82800160010185558215611963579182015b82811115611962578251825591602001919060010190611947565b5b50905061197091906119f4565b5090565b828054600181600116156101000203166002900490600052602060002090601f016020900481019282601f106119b557805160ff19168380011785556119e3565b828001600101855582156119e3579182015b828111156119e25782518255916020019190600101906119c7565b5b5090506119f091906119f4565b5090565b611a1691905b80821115611a125760008160009055506001016119fa565b5090565b9056fe54686973206164647265737320616c726561647920686173207468697320726f6c654f6e6c7920746865206f776e65722063616e20706572666f726d2074686973206f7065726174696f6e546865206e6577204f776e65722063616e6e6f742062652061646472657373203054686973206163636f756e7420686173206e6f204d616e75666163747572657220526f6c6554686973206163636f756e7420686173206e6f204469737472696275746f7220526f6c6554686973206164647265737320646f6573206e6f742068617665207468697320726f6c6520796574a265627a7a72315820a1df5a55acd6078510f10dc1bc9e0cd7798c5cbd36dde50fd0f07c9aa712444264736f6c6343000510003254686973206164647265737320616c726561647920686173207468697320726f6c65",
  "source": "pragma solidity >=0.4.22 <0.9.0;\n\nimport './accessControl/DistributorRole.sol';\nimport './accessControl/ManufacturerRole.sol';\nimport './accessControl/VendorRole.sol';\nimport './core/Ownable.sol';\n\ncontract ProductTracking is Ownable, ManufacturerRole, DistributorRole, VendorRole {\n    // Model a Product\n    struct Product {\n        uint id;\n        string name;\n        string currentStatus;\n    }\n\n    // Track the journey\n    mapping (uint => string[]) productsHistory;\n    // Read/write products\n    mapping(uint => Product) public products;\n    // Store Products Count\n    uint public productsCount;\n\n    // Define enum 'State' with the following values:\n    enum State\n    {\n        Manufactured,  // 0\n        OrderPlaced,  // 1\n        Shipped,     // 2\n        DistRecieved,    // 3\n        InTransit,       // 4\n        VendorRecieved,    // 5\n        Purchased   // 6\n    }\n\n    State constant defaultState = State.Manufactured;\n\n    constructor() public {\n        addProduct(\"Product 1\");\n        addProduct(\"Product 2\");\n        addProduct(\"Product 3\");\n        addProduct(\"Product 4\");\n        addProduct(\"Product 5\");\n        addProduct(\"Product 6\");\n    }\n\n    function addProduct (string memory _name) public {\n        productsCount ++;\n        products[productsCount] = Product(productsCount, _name, \"IN-WAREHOUSE\");\n    }\n\n    function vote (uint _productId) public {\n        // require a valid product\n        require(_productId > 0 && _productId <= productsCount);\n\n        // update product status\n        if(compareStrings(products[_productId].currentStatus, \"IN-WAREHOUSE\")) {\n            products[_productId].currentStatus = 'IN-TRANSIT';\n        }else if(compareStrings(products[_productId].currentStatus, \"IN-TRANSIT\")) {\n            products[_productId].currentStatus = 'DISPATCHED';\n        }\n    }\n    \n    function compareStrings (string memory a, string memory b) public view returns (bool) {\n        return (keccak256(abi.encodePacked((a))) == keccak256(abi.encodePacked((b))));\n    }\n}",
  "sourcePath": "/Users/rthakkar/blockchain/react-blockchain/contracts/ProductTracking.sol",
  "compiler": {
    "name": "solc",
    "version": "0.5.16+commit.9c3226ce.Emscripten.clang"
  },
  "schemaVersion": "3.4.7",
  "updatedAt": "2022-05-09T19:51:52.288Z",
  "networkType": "ethereum",
  "devdoc": {
    "methods": {}
  },
  "userdoc": {
    "methods": {
      "isOwner()": {
        "notice": "Check if the calling address is the owner of the contract"
      },
      "owner()": {
        "notice": "Look up the address of the owner"
      },
      "renounceOwnership()": {
        "notice": "Define a function to renounce ownerhip"
      },
      "transferOwnership(address)": {
        "notice": "Define a public function to transfer ownership"
      }
    }
  }
}