{
  "contractName": "ProductTracking",
  "abi": [
    {
      "inputs": [],
      "payable": false,
      "stateMutability": "nonpayable",
      "type": "constructor"
    },
    {
      "anonymous": false,
      "inputs": [
        {
          "indexed": false,
          "internalType": "uint256",
          "name": "upc",
          "type": "uint256"
        }
      ],
      "name": "DistRecieved",
      "type": "event"
    },
    {
      "anonymous": false,
      "inputs": [
        {
          "indexed": true,
          "internalType": "address",
          "name": "account",
          "type": "address"
        }
      ],
      "name": "DistributorAdded",
      "type": "event"
    },
    {
      "anonymous": false,
      "inputs": [
        {
          "indexed": true,
          "internalType": "string",
          "name": "name",
          "type": "string"
        }
      ],
      "name": "DistributorRemembered",
      "type": "event"
    },
    {
      "anonymous": false,
      "inputs": [
        {
          "indexed": true,
          "internalType": "address",
          "name": "account",
          "type": "address"
        }
      ],
      "name": "DistributorRemoved",
      "type": "event"
    },
    {
      "anonymous": false,
      "inputs": [
        {
          "indexed": false,
          "internalType": "uint256",
          "name": "upc",
          "type": "uint256"
        }
      ],
      "name": "InTransit",
      "type": "event"
    },
    {
      "anonymous": false,
      "inputs": [
        {
          "indexed": false,
          "internalType": "uint256",
          "name": "upc",
          "type": "uint256"
        }
      ],
      "name": "Manufactured",
      "type": "event"
    },
    {
      "anonymous": false,
      "inputs": [
        {
          "indexed": true,
          "internalType": "address",
          "name": "account",
          "type": "address"
        }
      ],
      "name": "ManufacturerAdded",
      "type": "event"
    },
    {
      "anonymous": false,
      "inputs": [
        {
          "indexed": true,
          "internalType": "address",
          "name": "account",
          "type": "address"
        }
      ],
      "name": "ManufacturerRemoved",
      "type": "event"
    },
    {
      "anonymous": false,
      "inputs": [
        {
          "indexed": false,
          "internalType": "uint256",
          "name": "upc",
          "type": "uint256"
        }
      ],
      "name": "OrderPlaced",
      "type": "event"
    },
    {
      "anonymous": false,
      "inputs": [
        {
          "indexed": false,
          "internalType": "uint256",
          "name": "upc",
          "type": "uint256"
        }
      ],
      "name": "Purchased",
      "type": "event"
    },
    {
      "anonymous": false,
      "inputs": [
        {
          "indexed": false,
          "internalType": "uint256",
          "name": "upc",
          "type": "uint256"
        }
      ],
      "name": "Shipped",
      "type": "event"
    },
    {
      "anonymous": false,
      "inputs": [
        {
          "indexed": true,
          "internalType": "address",
          "name": "oldOwner",
          "type": "address"
        },
        {
          "indexed": true,
          "internalType": "address",
          "name": "newOwner",
          "type": "address"
        }
      ],
      "name": "TransferOwnership",
      "type": "event"
    },
    {
      "anonymous": false,
      "inputs": [
        {
          "indexed": true,
          "internalType": "address",
          "name": "account",
          "type": "address"
        }
      ],
      "name": "VendorAdded",
      "type": "event"
    },
    {
      "anonymous": false,
      "inputs": [
        {
          "indexed": false,
          "internalType": "uint256",
          "name": "upc",
          "type": "uint256"
        }
      ],
      "name": "VendorRecieved",
      "type": "event"
    },
    {
      "anonymous": false,
      "inputs": [
        {
          "indexed": true,
          "internalType": "address",
          "name": "account",
          "type": "address"
        }
      ],
      "name": "VendorRemoved",
      "type": "event"
    },
    {
      "constant": false,
      "inputs": [
        {
          "internalType": "string",
          "name": "name",
          "type": "string"
        },
        {
          "internalType": "address",
          "name": "dist",
          "type": "address"
        }
      ],
      "name": "addDistAddress",
      "outputs": [],
      "payable": false,
      "stateMutability": "nonpayable",
      "type": "function"
    },
    {
      "constant": false,
      "inputs": [
        {
          "internalType": "address",
          "name": "account",
          "type": "address"
        },
        {
          "internalType": "string",
          "name": "name",
          "type": "string"
        },
        {
          "internalType": "string",
          "name": "password",
          "type": "string"
        }
      ],
      "name": "addDistributor",
      "outputs": [],
      "payable": false,
      "stateMutability": "nonpayable",
      "type": "function"
    },
    {
      "constant": false,
      "inputs": [
        {
          "internalType": "address",
          "name": "account",
          "type": "address"
        },
        {
          "internalType": "string",
          "name": "name",
          "type": "string"
        },
        {
          "internalType": "string",
          "name": "password",
          "type": "string"
        }
      ],
      "name": "addManufacturer",
      "outputs": [],
      "payable": false,
      "stateMutability": "nonpayable",
      "type": "function"
    },
    {
      "constant": false,
      "inputs": [
        {
          "internalType": "address",
          "name": "account",
          "type": "address"
        },
        {
          "internalType": "string",
          "name": "name",
          "type": "string"
        },
        {
          "internalType": "string",
          "name": "password",
          "type": "string"
        }
      ],
      "name": "addVendor",
      "outputs": [],
      "payable": false,
      "stateMutability": "nonpayable",
      "type": "function"
    },
    {
      "constant": true,
      "inputs": [
        {
          "internalType": "string",
          "name": "name",
          "type": "string"
        }
      ],
      "name": "getDistAddresses",
      "outputs": [
        {
          "internalType": "address[]",
          "name": "",
          "type": "address[]"
        }
      ],
      "payable": false,
      "stateMutability": "view",
      "type": "function"
    },
    {
      "constant": true,
      "inputs": [
        {
          "internalType": "address",
          "name": "account",
          "type": "address"
        }
      ],
      "name": "isDistributor",
      "outputs": [
        {
          "internalType": "bool",
          "name": "",
          "type": "bool"
        }
      ],
      "payable": false,
      "stateMutability": "view",
      "type": "function"
    },
    {
      "constant": true,
      "inputs": [
        {
          "internalType": "string",
          "name": "userName",
          "type": "string"
        }
      ],
      "name": "isDistributorViaName",
      "outputs": [
        {
          "internalType": "bool",
          "name": "",
          "type": "bool"
        }
      ],
      "payable": false,
      "stateMutability": "view",
      "type": "function"
    },
    {
      "constant": true,
      "inputs": [
        {
          "internalType": "address",
          "name": "account",
          "type": "address"
        }
      ],
      "name": "isManufacturer",
      "outputs": [
        {
          "internalType": "bool",
          "name": "",
          "type": "bool"
        }
      ],
      "payable": false,
      "stateMutability": "view",
      "type": "function"
    },
    {
      "constant": true,
      "inputs": [
        {
          "internalType": "string",
          "name": "userName",
          "type": "string"
        }
      ],
      "name": "isManufacturerViaName",
      "outputs": [
        {
          "internalType": "bool",
          "name": "",
          "type": "bool"
        }
      ],
      "payable": false,
      "stateMutability": "view",
      "type": "function"
    },
    {
      "constant": true,
      "inputs": [],
      "name": "isOwner",
      "outputs": [
        {
          "internalType": "bool",
          "name": "",
          "type": "bool"
        }
      ],
      "payable": false,
      "stateMutability": "view",
      "type": "function"
    },
    {
      "constant": true,
      "inputs": [
        {
          "internalType": "address",
          "name": "account",
          "type": "address"
        }
      ],
      "name": "isVendor",
      "outputs": [
        {
          "internalType": "bool",
          "name": "",
          "type": "bool"
        }
      ],
      "payable": false,
      "stateMutability": "view",
      "type": "function"
    },
    {
      "constant": true,
      "inputs": [
        {
          "internalType": "string",
          "name": "userName",
          "type": "string"
        }
      ],
      "name": "isVendorViaName",
      "outputs": [
        {
          "internalType": "bool",
          "name": "",
          "type": "bool"
        }
      ],
      "payable": false,
      "stateMutability": "view",
      "type": "function"
    },
    {
      "constant": false,
      "inputs": [],
      "name": "kill",
      "outputs": [],
      "payable": false,
      "stateMutability": "nonpayable",
      "type": "function"
    },
    {
      "constant": true,
      "inputs": [
        {
          "internalType": "string",
          "name": "userName",
          "type": "string"
        },
        {
          "internalType": "string",
          "name": "password",
          "type": "string"
        }
      ],
      "name": "loginDistributor",
      "outputs": [
        {
          "internalType": "address",
          "name": "",
          "type": "address"
        }
      ],
      "payable": false,
      "stateMutability": "view",
      "type": "function"
    },
    {
      "constant": true,
      "inputs": [
        {
          "internalType": "string",
          "name": "userName",
          "type": "string"
        },
        {
          "internalType": "string",
          "name": "password",
          "type": "string"
        }
      ],
      "name": "loginManufacturer",
      "outputs": [
        {
          "internalType": "address",
          "name": "",
          "type": "address"
        }
      ],
      "payable": false,
      "stateMutability": "view",
      "type": "function"
    },
    {
      "constant": true,
      "inputs": [
        {
          "internalType": "string",
          "name": "userName",
          "type": "string"
        },
        {
          "internalType": "string",
          "name": "password",
          "type": "string"
        }
      ],
      "name": "loginVendor",
      "outputs": [
        {
          "internalType": "address",
          "name": "",
          "type": "address"
        }
      ],
      "payable": false,
      "stateMutability": "view",
      "type": "function"
    },
    {
      "constant": true,
      "inputs": [],
      "name": "owner",
      "outputs": [
        {
          "internalType": "address",
          "name": "",
          "type": "address"
        }
      ],
      "payable": false,
      "stateMutability": "view",
      "type": "function"
    },
    {
      "constant": true,
      "inputs": [
        {
          "internalType": "uint256",
          "name": "",
          "type": "uint256"
        },
        {
          "internalType": "string",
          "name": "",
          "type": "string"
        }
      ],
      "name": "productStamp",
      "outputs": [
        {
          "internalType": "uint256",
          "name": "",
          "type": "uint256"
        }
      ],
      "payable": false,
      "stateMutability": "view",
      "type": "function"
    },
    {
      "constant": true,
      "inputs": [
        {
          "internalType": "uint256",
          "name": "",
          "type": "uint256"
        }
      ],
      "name": "products",
      "outputs": [
        {
          "internalType": "uint256",
          "name": "sku",
          "type": "uint256"
        },
        {
          "internalType": "uint256",
          "name": "productID",
          "type": "uint256"
        },
        {
          "internalType": "string",
          "name": "name",
          "type": "string"
        },
        {
          "internalType": "string",
          "name": "desc",
          "type": "string"
        },
        {
          "internalType": "address payable",
          "name": "ownerID",
          "type": "address"
        },
        {
          "internalType": "enum ProductTracking.State",
          "name": "currentStatus",
          "type": "uint8"
        },
        {
          "internalType": "address payable",
          "name": "distributorID",
          "type": "address"
        },
        {
          "internalType": "address payable",
          "name": "manufacturerID",
          "type": "address"
        },
        {
          "internalType": "address payable",
          "name": "vendorID",
          "type": "address"
        }
      ],
      "payable": false,
      "stateMutability": "view",
      "type": "function"
    },
    {
      "constant": true,
      "inputs": [],
      "name": "productsCount",
      "outputs": [
        {
          "internalType": "uint256",
          "name": "",
          "type": "uint256"
        }
      ],
      "payable": false,
      "stateMutability": "view",
      "type": "function"
    },
    {
      "constant": false,
      "inputs": [],
      "name": "renounceDistributor",
      "outputs": [],
      "payable": false,
      "stateMutability": "nonpayable",
      "type": "function"
    },
    {
      "constant": false,
      "inputs": [],
      "name": "renounceManufacturer",
      "outputs": [],
      "payable": false,
      "stateMutability": "nonpayable",
      "type": "function"
    },
    {
      "constant": false,
      "inputs": [],
      "name": "renounceOwnership",
      "outputs": [],
      "payable": false,
      "stateMutability": "nonpayable",
      "type": "function"
    },
    {
      "constant": false,
      "inputs": [],
      "name": "renounceVendor",
      "outputs": [],
      "payable": false,
      "stateMutability": "nonpayable",
      "type": "function"
    },
    {
      "constant": false,
      "inputs": [
        {
          "internalType": "address payable",
          "name": "newOwner",
          "type": "address"
        }
      ],
      "name": "transferOwnership",
      "outputs": [],
      "payable": false,
      "stateMutability": "nonpayable",
      "type": "function"
    },
    {
      "constant": true,
      "inputs": [
        {
          "internalType": "address payable",
          "name": "_address",
          "type": "address"
        }
      ],
      "name": "getRole",
      "outputs": [
        {
          "internalType": "string",
          "name": "",
          "type": "string"
        }
      ],
      "payable": false,
      "stateMutability": "view",
      "type": "function"
    },
    {
      "constant": true,
      "inputs": [
        {
          "internalType": "string",
          "name": "userName",
          "type": "string"
        },
        {
          "internalType": "string",
          "name": "password",
          "type": "string"
        }
      ],
      "name": "login",
      "outputs": [
        {
          "internalType": "address",
          "name": "",
          "type": "address"
        }
      ],
      "payable": false,
      "stateMutability": "view",
      "type": "function"
    },
    {
      "constant": false,
      "inputs": [
        {
          "internalType": "uint256",
          "name": "_upc",
          "type": "uint256"
        },
        {
          "internalType": "string",
          "name": "name",
          "type": "string"
        },
        {
          "internalType": "uint256",
          "name": "_sku",
          "type": "uint256"
        },
        {
          "internalType": "string",
          "name": "desc",
          "type": "string"
        },
        {
          "internalType": "address payable",
          "name": "_originManufacturerID",
          "type": "address"
        },
        {
          "internalType": "uint256",
          "name": "time",
          "type": "uint256"
        }
      ],
      "name": "manufactureProduct",
      "outputs": [],
      "payable": false,
      "stateMutability": "nonpayable",
      "type": "function"
    },
    {
      "constant": false,
      "inputs": [
        {
          "internalType": "uint256",
          "name": "_upc",
          "type": "uint256"
        },
        {
          "internalType": "uint256",
          "name": "time",
          "type": "uint256"
        }
      ],
      "name": "placeOrder",
      "outputs": [],
      "payable": false,
      "stateMutability": "nonpayable",
      "type": "function"
    },
    {
      "constant": false,
      "inputs": [
        {
          "internalType": "uint256",
          "name": "_upc",
          "type": "uint256"
        },
        {
          "internalType": "address payable",
          "name": "distID",
          "type": "address"
        },
        {
          "internalType": "uint256",
          "name": "time",
          "type": "uint256"
        }
      ],
      "name": "shipToDistributor",
      "outputs": [],
      "payable": false,
      "stateMutability": "nonpayable",
      "type": "function"
    },
    {
      "constant": false,
      "inputs": [
        {
          "internalType": "uint256",
          "name": "_upc",
          "type": "uint256"
        },
        {
          "internalType": "uint256",
          "name": "time",
          "type": "uint256"
        }
      ],
      "name": "recieveAsDistributor",
      "outputs": [],
      "payable": false,
      "stateMutability": "nonpayable",
      "type": "function"
    },
    {
      "constant": false,
      "inputs": [
        {
          "internalType": "uint256",
          "name": "_upc",
          "type": "uint256"
        },
        {
          "internalType": "address payable",
          "name": "vendorId",
          "type": "address"
        },
        {
          "internalType": "uint256",
          "name": "time",
          "type": "uint256"
        }
      ],
      "name": "shipToVendor",
      "outputs": [],
      "payable": false,
      "stateMutability": "nonpayable",
      "type": "function"
    },
    {
      "constant": false,
      "inputs": [
        {
          "internalType": "uint256",
          "name": "_upc",
          "type": "uint256"
        },
        {
          "internalType": "uint256",
          "name": "time",
          "type": "uint256"
        }
      ],
      "name": "recieveAsVendor",
      "outputs": [],
      "payable": false,
      "stateMutability": "nonpayable",
      "type": "function"
    },
    {
      "constant": false,
      "inputs": [
        {
          "internalType": "uint256",
          "name": "_upc",
          "type": "uint256"
        },
        {
          "internalType": "uint256",
          "name": "time",
          "type": "uint256"
        }
      ],
      "name": "sellProduct",
      "outputs": [],
      "payable": false,
      "stateMutability": "nonpayable",
      "type": "function"
    }
  ],
  "bytecode": "0x608060405234801561001057600080fd5b506146b2806100206000396000f3fe608060405234801561001057600080fd5b50600436106102065760003560e01c806376ba15ad1161011a578063990a0deb116100ad578063de07f34e1161007c578063de07f34e14611836578063e0df7bb614611840578063ee54d54f1461185e578063f2fde38b146118ba578063f3d7aebc146118fe57610206565b8063990a0deb14611561578063b32caa1d14611634578063c10946ab146117a6578063c7bdda72146117de57610206565b80638a77a697116100e95780638a77a697146113075780638da5cb5b146114995780638f0c86fa146114e35780638f32d59b1461153f57610206565b806376ba15ad14610f315780637acc0b2014610f3b578063843f61e21461113d578063849dda681461117557610206565b806341c0e1b51161019d57806358467dbc1161016c57806358467dbc14610a895780635fe97db114610c1b578063644241db14610dab5780636a992c9f14610db5578063715018a614610f2757610206565b806341c0e1b5146108b757806344276733146108c15780634d747b1b1461097e57806351b97b2e146109b657610206565b80632a4af440116101d95780632a4af440146104825780632e08c91d146105f4578063364cdd0e1461064c5780633c6f758d1461072557610206565b806312c51ebb1461020b57806317d4a4911461031b57806318b30a481461037757806325f01162146103af575b600080fd5b6102c46004803603602081101561022157600080fd5b810190808035906020019064010000000081111561023e57600080fd5b82018360208201111561025057600080fd5b8035906020019184600183028401116401000000008311171561027257600080fd5b91908080601f016020809104026020016040519081016040528093929190818152602001838380828437600081840152601f19601f8201169050808301925050505050505091929192905050506119d9565b6040518080602001828103825283818151815260200191508051906020019060200280838360005b838110156103075780820151818401526020810190506102ec565b505050509050019250505060405180910390f35b61035d6004803603602081101561033157600080fd5b81019080803573ffffffffffffffffffffffffffffffffffffffff1690602001909291905050506119eb565b604051808215151515815260200191505060405180910390f35b6103ad6004803603604081101561038d57600080fd5b810190808035906020019092919080359060200190929190505050611a08565b005b610468600480360360208110156103c557600080fd5b81019080803590602001906401000000008111156103e257600080fd5b8201836020820111156103f457600080fd5b8035906020019184600183028401116401000000008311171561041657600080fd5b91908080601f016020809104026020016040519081016040528093929190818152602001838380828437600081840152601f19601f820116905080830192505050505050509192919290505050611cab565b604051808215151515815260200191505060405180910390f35b6105f26004803603606081101561049857600080fd5b81019080803573ffffffffffffffffffffffffffffffffffffffff169060200190929190803590602001906401000000008111156104d557600080fd5b8201836020820111156104e757600080fd5b8035906020019184600183028401116401000000008311171561050957600080fd5b91908080601f016020809104026020016040519081016040528093929190818152602001838380828437600081840152601f19601f8201169050808301925050505050505091929192908035906020019064010000000081111561056c57600080fd5b82018360208201111561057e57600080fd5b803590602001918460018302840111640100000000831117156105a057600080fd5b91908080601f016020809104026020016040519081016040528093929190818152602001838380828437600081840152601f19601f820116905080830192505050505050509192919290505050611d37565b005b61064a6004803603606081101561060a57600080fd5b8101908080359060200190929190803573ffffffffffffffffffffffffffffffffffffffff16906020019092919080359060200190929190505050611d47565b005b61070f6004803603604081101561066257600080fd5b81019080803590602001909291908035906020019064010000000081111561068957600080fd5b82018360208201111561069b57600080fd5b803590602001918460018302840111640100000000831117156106bd57600080fd5b91908080601f016020809104026020016040519081016040528093929190818152602001838380828437600081840152601f19601f820116905080830192505050505050509192919290505050612011565b6040518082815260200191505060405180910390f35b6108756004803603604081101561073b57600080fd5b810190808035906020019064010000000081111561075857600080fd5b82018360208201111561076a57600080fd5b8035906020019184600183028401116401000000008311171561078c57600080fd5b91908080601f016020809104026020016040519081016040528093929190818152602001838380828437600081840152601f19601f820116905080830192505050505050509192919290803590602001906401000000008111156107ef57600080fd5b82018360208201111561080157600080fd5b8035906020019184600183028401116401000000008311171561082357600080fd5b91908080601f016020809104026020016040519081016040528093929190818152602001838380828437600081840152601f19601f82011690508083019250505050505050919291929050505061204c565b604051808273ffffffffffffffffffffffffffffffffffffffff1673ffffffffffffffffffffffffffffffffffffffff16815260200191505060405180910390f35b6108bf61206c565b005b610903600480360360208110156108d757600080fd5b81019080803573ffffffffffffffffffffffffffffffffffffffff1690602001909291905050506120fd565b6040518080602001828103825283818151815260200191508051906020019080838360005b83811015610943578082015181840152602081019050610928565b50505050905090810190601f1680156109705780820380516001836020036101000a031916815260200191505b509250505060405180910390f35b6109b46004803603604081101561099457600080fd5b8101908080359060200190929190803590602001909291905050506121f8565b005b610a6f600480360360208110156109cc57600080fd5b81019080803590602001906401000000008111156109e957600080fd5b8201836020820111156109fb57600080fd5b80359060200191846001830284011164010000000083111715610a1d57600080fd5b91908080601f016020809104026020016040519081016040528093929190818152602001838380828437600081840152601f19601f820116905080830192505050505050509192919290505050612405565b604051808215151515815260200191505060405180910390f35b610bd960048036036040811015610a9f57600080fd5b8101908080359060200190640100000000811115610abc57600080fd5b820183602082011115610ace57600080fd5b80359060200191846001830284011164010000000083111715610af057600080fd5b91908080601f016020809104026020016040519081016040528093929190818152602001838380828437600081840152601f19601f82011690508083019250505050505050919291929080359060200190640100000000811115610b5357600080fd5b820183602082011115610b6557600080fd5b80359060200191846001830284011164010000000083111715610b8757600080fd5b91908080601f016020809104026020016040519081016040528093929190818152602001838380828437600081840152601f19601f820116905080830192505050505050509192919290505050612492565b604051808273ffffffffffffffffffffffffffffffffffffffff1673ffffffffffffffffffffffffffffffffffffffff16815260200191505060405180910390f35b610da9600480360360c0811015610c3157600080fd5b810190808035906020019092919080359060200190640100000000811115610c5857600080fd5b820183602082011115610c6a57600080fd5b80359060200191846001830284011164010000000083111715610c8c57600080fd5b91908080601f016020809104026020016040519081016040528093929190818152602001838380828437600081840152601f19601f8201169050808301925050505050505091929192908035906020019092919080359060200190640100000000811115610cf957600080fd5b820183602082011115610d0b57600080fd5b80359060200191846001830284011164010000000083111715610d2d57600080fd5b91908080601f016020809104026020016040519081016040528093929190818152602001838380828437600081840152601f19601f820116905080830192505050505050509192919290803573ffffffffffffffffffffffffffffffffffffffff169060200190929190803590602001909291905050506124fc565b005b610db3612871565b005b610f2560048036036060811015610dcb57600080fd5b81019080803573ffffffffffffffffffffffffffffffffffffffff16906020019092919080359060200190640100000000811115610e0857600080fd5b820183602082011115610e1a57600080fd5b80359060200191846001830284011164010000000083111715610e3c57600080fd5b91908080601f016020809104026020016040519081016040528093929190818152602001838380828437600081840152601f19601f82011690508083019250505050505050919291929080359060200190640100000000811115610e9f57600080fd5b820183602082011115610eb157600080fd5b80359060200191846001830284011164010000000083111715610ed357600080fd5b91908080601f016020809104026020016040519081016040528093929190818152602001838380828437600081840152601f19601f82011690508083019250505050505050919291929050505061287c565b005b610f2f61288c565b005b610f396129a8565b005b610f6760048036036020811015610f5157600080fd5b81019080803590602001909291905050506129b3565b604051808a815260200189815260200180602001806020018873ffffffffffffffffffffffffffffffffffffffff1673ffffffffffffffffffffffffffffffffffffffff168152602001876006811115610fbd57fe5b60ff1681526020018673ffffffffffffffffffffffffffffffffffffffff1673ffffffffffffffffffffffffffffffffffffffff1681526020018573ffffffffffffffffffffffffffffffffffffffff1673ffffffffffffffffffffffffffffffffffffffff1681526020018473ffffffffffffffffffffffffffffffffffffffff1673ffffffffffffffffffffffffffffffffffffffff16815260200183810383528a818151815260200191508051906020019080838360005b83811015611093578082015181840152602081019050611078565b50505050905090810190601f1680156110c05780820380516001836020036101000a031916815260200191505b50838103825289818151815260200191508051906020019080838360005b838110156110f95780820151818401526020810190506110de565b50505050905090810190601f1680156111265780820380516001836020036101000a031916815260200191505b509b50505050505050505050505060405180910390f35b6111736004803603604081101561115357600080fd5b810190808035906020019092919080359060200190929190505050612bbe565b005b6112c56004803603604081101561118b57600080fd5b81019080803590602001906401000000008111156111a857600080fd5b8201836020820111156111ba57600080fd5b803590602001918460018302840111640100000000831117156111dc57600080fd5b91908080601f016020809104026020016040519081016040528093929190818152602001838380828437600081840152601f19601f8201169050808301925050505050505091929192908035906020019064010000000081111561123f57600080fd5b82018360208201111561125157600080fd5b8035906020019184600183028401116401000000008311171561127357600080fd5b91908080601f016020809104026020016040519081016040528093929190818152602001838380828437600081840152601f19601f820116905080830192505050505050509192919290505050612d1f565b604051808273ffffffffffffffffffffffffffffffffffffffff1673ffffffffffffffffffffffffffffffffffffffff16815260200191505060405180910390f35b6114576004803603604081101561131d57600080fd5b810190808035906020019064010000000081111561133a57600080fd5b82018360208201111561134c57600080fd5b8035906020019184600183028401116401000000008311171561136e57600080fd5b91908080601f016020809104026020016040519081016040528093929190818152602001838380828437600081840152601f19601f820116905080830192505050505050509192919290803590602001906401000000008111156113d157600080fd5b8201836020820111156113e357600080fd5b8035906020019184600183028401116401000000008311171561140557600080fd5b91908080601f016020809104026020016040519081016040528093929190818152602001838380828437600081840152601f19601f820116905080830192505050505050509192919290505050612d3f565b604051808273ffffffffffffffffffffffffffffffffffffffff1673ffffffffffffffffffffffffffffffffffffffff16815260200191505060405180910390f35b6114a1612d5f565b604051808273ffffffffffffffffffffffffffffffffffffffff1673ffffffffffffffffffffffffffffffffffffffff16815260200191505060405180910390f35b611525600480360360208110156114f957600080fd5b81019080803573ffffffffffffffffffffffffffffffffffffffff169060200190929190505050612d88565b604051808215151515815260200191505060405180910390f35b611547612da5565b604051808215151515815260200191505060405180910390f35b61161a6004803603602081101561157757600080fd5b810190808035906020019064010000000081111561159457600080fd5b8201836020820111156115a657600080fd5b803590602001918460018302840111640100000000831117156115c857600080fd5b91908080601f016020809104026020016040519081016040528093929190818152602001838380828437600081840152601f19601f820116905080830192505050505050509192919290505050612dfc565b604051808215151515815260200191505060405180910390f35b6117a46004803603606081101561164a57600080fd5b81019080803573ffffffffffffffffffffffffffffffffffffffff1690602001909291908035906020019064010000000081111561168757600080fd5b82018360208201111561169957600080fd5b803590602001918460018302840111640100000000831117156116bb57600080fd5b91908080601f016020809104026020016040519081016040528093929190818152602001838380828437600081840152601f19601f8201169050808301925050505050505091929192908035906020019064010000000081111561171e57600080fd5b82018360208201111561173057600080fd5b8035906020019184600183028401116401000000008311171561175257600080fd5b91908080601f016020809104026020016040519081016040528093929190818152602001838380828437600081840152601f19601f820116905080830192505050505050509192919290505050612e89565b005b6117dc600480360360408110156117bc57600080fd5b810190808035906020019092919080359060200190929190505050612e99565b005b611834600480360360608110156117f457600080fd5b8101908080359060200190929190803573ffffffffffffffffffffffffffffffffffffffff169060200190929190803590602001909291905050506130c3565b005b61183e61338d565b005b611848613398565b6040518082815260200191505060405180910390f35b6118a06004803603602081101561187457600080fd5b81019080803573ffffffffffffffffffffffffffffffffffffffff16906020019092919050505061339e565b604051808215151515815260200191505060405180910390f35b6118fc600480360360208110156118d057600080fd5b81019080803573ffffffffffffffffffffffffffffffffffffffff1690602001909291905050506133bb565b005b6119d76004803603604081101561191457600080fd5b810190808035906020019064010000000081111561193157600080fd5b82018360208201111561194357600080fd5b8035906020019184600183028401116401000000008311171561196557600080fd5b91908080601f016020809104026020016040519081016040528093929190818152602001838380828437600081840152601f19601f820116905080830192505050505050509192919290803573ffffffffffffffffffffffffffffffffffffffff169060200190929190505050613424565b005b60606119e482613432565b9050919050565b6000611a0182600161344f90919063ffffffff16565b9050919050565b611a1c33600761344f90919063ffffffff16565b611a8e576040517f08c379a000000000000000000000000000000000000000000000000000000000815260040180806020018281038252601f8152602001807f54686973206163636f756e7420686173206e6f2056656e646f7220526f6c650081525060200191505060405180910390fd5b8160056006811115611a9c57fe5b600c600083815260200190815260200160002060040160149054906101000a900460ff166006811115611acb57fe5b14611b21576040517f08c379a00000000000000000000000000000000000000000000000000000000081526004018080602001828103825260288152602001806146566028913960400191505060405180910390fd5b600c600084815260200190815260200160002060070160009054906101000a900473ffffffffffffffffffffffffffffffffffffffff168073ffffffffffffffffffffffffffffffffffffffff163373ffffffffffffffffffffffffffffffffffffffff1614611bdc576040517f08c379a000000000000000000000000000000000000000000000000000000000815260040180806020018281038252602a81526020018061449a602a913960400191505060405180910390fd5b6000600c6000868152602001908152602001600020905060068160040160146101000a81548160ff02191690836006811115611c1457fe5b021790555083600b600087815260200190815260200160002060405180807f507572636861736564000000000000000000000000000000000000000000000081525060090190509081526020016040518091039020819055507f653d56639fee6b566a5c804764e9689de38645f0b733df89a36a1b7b42173dd8856040518082815260200191505060405180910390a15050505050565b60006001151560018001836040518082805190602001908083835b60208310611ce95780518252602082019150602081019050602083039250611cc6565b6001836020036101000a038019825116818451168082178552505050505050905001915050908152602001604051809103902060010160149054906101000a900460ff161515149050919050565b611d4283838361354a565b505050565b611d5b33600461344f90919063ffffffff16565b611db0576040517f08c379a00000000000000000000000000000000000000000000000000000000081526004018080602001828103825260248152602001806145e46024913960400191505060405180910390fd5b8260036006811115611dbe57fe5b600c600083815260200190815260200160002060040160149054906101000a900460ff166006811115611ded57fe5b14611e43576040517f08c379a000000000000000000000000000000000000000000000000000000000815260040180806020018281038252602681526020018061452e6026913960400191505060405180910390fd5b600c600085815260200190815260200160002060050160009054906101000a900473ffffffffffffffffffffffffffffffffffffffff168073ffffffffffffffffffffffffffffffffffffffff163373ffffffffffffffffffffffffffffffffffffffff1614611efe576040517f08c379a000000000000000000000000000000000000000000000000000000000815260040180806020018281038252602a81526020018061449a602a913960400191505060405180910390fd5b6000600c6000878152602001908152602001600020905060048160040160146101000a81548160ff02191690836006811115611f3657fe5b0217905550848160070160006101000a81548173ffffffffffffffffffffffffffffffffffffffff021916908373ffffffffffffffffffffffffffffffffffffffff16021790555083600b600088815260200190815260200160002060405180807f496e5472616e736974000000000000000000000000000000000000000000000081525060090190509081526020016040518091039020819055507f40557acb2ee4dc77f56ffb057df48183f6914c97d92dbc8b31c79d83ddaa746c866040518082815260200191505060405180910390a1505050505050565b600b60205281600052604060002081805160208101820180518482526020830160208501208183528095505050505050600091509150505481565b6000612064838360016135aa9092919063ffffffff16565b905092915050565b6000809054906101000a900473ffffffffffffffffffffffffffffffffffffffff1673ffffffffffffffffffffffffffffffffffffffff163373ffffffffffffffffffffffffffffffffffffffff1614156120fb576000809054906101000a900473ffffffffffffffffffffffffffffffffffffffff1673ffffffffffffffffffffffffffffffffffffffff16ff5b565b6060612108826119eb565b1561214a576040518060400160405280600c81526020017f6d616e756661637475726572000000000000000000000000000000000000000081525090506121f3565b6121538261339e565b15612195576040518060400160405280600681526020017f76656e646f72000000000000000000000000000000000000000000000000000081525090506121f3565b61219e82612d88565b156121e0576040518060400160405280600b81526020017f6469737472696275746f7200000000000000000000000000000000000000000081525090506121f3565b6040518060200160405280600081525090505b919050565b61220c33600461344f90919063ffffffff16565b612261576040517f08c379a00000000000000000000000000000000000000000000000000000000081526004018080602001828103825260248152602001806145e46024913960400191505060405180910390fd5b816002600681111561226f57fe5b600c600083815260200190815260200160002060040160149054906101000a900460ff16600681111561229e57fe5b146122f4576040517f08c379a000000000000000000000000000000000000000000000000000000000815260040180806020018281038252602181526020018061457d6021913960400191505060405180910390fd5b6000600c60008581526020019081526020016000209050338160040160006101000a81548173ffffffffffffffffffffffffffffffffffffffff021916908373ffffffffffffffffffffffffffffffffffffffff16021790555060038160040160146101000a81548160ff0219169083600681111561236f57fe5b021790555082600b600086815260200190815260200160002060405180807f4469737452656369657665640000000000000000000000000000000000000000815250600c0190509081526020016040518091039020819055507f08c750f5731de445c2df1be22b2b46c01c96cae904a7c6c7bda7e2ce9f4466f4846040518082815260200191505060405180910390a150505050565b6000600115156004600101836040518082805190602001908083835b602083106124445780518252602082019150602081019050602083039250612421565b6001836020036101000a038019825116818451168082178552505050505050905001915050908152602001604051809103902060010160149054906101000a900460ff161515149050919050565b600061249d83611cab565b156124b3576124ac838361204c565b90506124f6565b6124bc83612dfc565b156124d2576124cb8383612d3f565b90506124f6565b6124db83612405565b156124f1576124ea8383612d1f565b90506124f6565b600090505b92915050565b61251033600161344f90919063ffffffff16565b612565576040517f08c379a00000000000000000000000000000000000000000000000000000000081526004018080602001828103825260258152602001806145bf6025913960400191505060405180910390fd5b61256d6142c5565b82816080019073ffffffffffffffffffffffffffffffffffffffff16908173ffffffffffffffffffffffffffffffffffffffff1681525050828160e0019073ffffffffffffffffffffffffffffffffffffffff16908173ffffffffffffffffffffffffffffffffffffffff168152505086816020018181525050858160400181905250848160000181815250508381606001819052506001600d5401600d8190555060008160a00190600681111561262157fe5b9081600681111561262e57fe5b8152505080600c600089815260200190815260200160002060008201518160000155602082015181600101556040820151816002019080519060200190612676929190614374565b506060820151816003019080519060200190612693929190614374565b5060808201518160040160006101000a81548173ffffffffffffffffffffffffffffffffffffffff021916908373ffffffffffffffffffffffffffffffffffffffff16021790555060a08201518160040160146101000a81548160ff021916908360068111156126ff57fe5b021790555060c08201518160050160006101000a81548173ffffffffffffffffffffffffffffffffffffffff021916908373ffffffffffffffffffffffffffffffffffffffff16021790555060e08201518160060160006101000a81548173ffffffffffffffffffffffffffffffffffffffff021916908373ffffffffffffffffffffffffffffffffffffffff1602179055506101008201518160070160006101000a81548173ffffffffffffffffffffffffffffffffffffffff021916908373ffffffffffffffffffffffffffffffffffffffff16021790555090505081600b600089815260200190815260200160002060405180807f4d616e7566616374757265640000000000000000000000000000000000000000815250600c0190509081526020016040518091039020819055507fd29d8a68ca7c8c74be5579719d445aabfe230ed6e6a83aff475a663500eb7609876040518082815260200191505060405180910390a150505050505050565b61287a336138c4565b565b61288783838361391e565b505050565b612894612da5565b6128e9576040517f08c379a00000000000000000000000000000000000000000000000000000000081526004018080602001828103825260298152602001806145546029913960400191505060405180910390fd5b600073ffffffffffffffffffffffffffffffffffffffff166000809054906101000a900473ffffffffffffffffffffffffffffffffffffffff1673ffffffffffffffffffffffffffffffffffffffff167f5c486528ec3e3f0ea91181cff8116f02bfa350e03b8b6f12e00765adbb5af85c60405160405180910390a360008060006101000a81548173ffffffffffffffffffffffffffffffffffffffff021916908373ffffffffffffffffffffffffffffffffffffffff160217905550565b6129b13361397e565b565b600c602052806000526040600020600091509050806000015490806001015490806002018054600181600116156101000203166002900480601f016020809104026020016040519081016040528092919081815260200182805460018160011615610100020316600290048015612a6b5780601f10612a4057610100808354040283529160200191612a6b565b820191906000526020600020905b815481529060010190602001808311612a4e57829003601f168201915b505050505090806003018054600181600116156101000203166002900480601f016020809104026020016040519081016040528092919081815260200182805460018160011615610100020316600290048015612b095780601f10612ade57610100808354040283529160200191612b09565b820191906000526020600020905b815481529060010190602001808311612aec57829003601f168201915b5050505050908060040160009054906101000a900473ffffffffffffffffffffffffffffffffffffffff16908060040160149054906101000a900460ff16908060050160009054906101000a900473ffffffffffffffffffffffffffffffffffffffff16908060060160009054906101000a900473ffffffffffffffffffffffffffffffffffffffff16908060070160009054906101000a900473ffffffffffffffffffffffffffffffffffffffff16905089565b8160006006811115612bcc57fe5b600c600083815260200190815260200160002060040160149054906101000a900460ff166006811115612bfb57fe5b14612c51576040517f08c379a00000000000000000000000000000000000000000000000000000000081526004018080602001828103825260268152602001806146086026913960400191505060405180910390fd5b6000600c6000858152602001908152602001600020905060018160040160146101000a81548160ff02191690836006811115612c8957fe5b021790555082600b600086815260200190815260200160002060405180807f4f72646572506c61636564000000000000000000000000000000000000000000815250600b0190509081526020016040518091039020819055507fffa896d8919f0556f53ace1395617969a3b53ab5271a085e28ac0c4a3724e63d846040518082815260200191505060405180910390a150505050565b6000612d37838360046135aa9092919063ffffffff16565b905092915050565b6000612d57838360076135aa9092919063ffffffff16565b905092915050565b60008060009054906101000a900473ffffffffffffffffffffffffffffffffffffffff16905090565b6000612d9e82600461344f90919063ffffffff16565b9050919050565b60008060009054906101000a900473ffffffffffffffffffffffffffffffffffffffff1673ffffffffffffffffffffffffffffffffffffffff163373ffffffffffffffffffffffffffffffffffffffff1614905090565b6000600115156007600101836040518082805190602001908083835b60208310612e3b5780518252602082019150602081019050602083039250612e18565b6001836020036101000a038019825116818451168082178552505050505050905001915050908152602001604051809103902060010160149054906101000a900460ff161515149050919050565b612e948383836139d8565b505050565b612ead33600761344f90919063ffffffff16565b612f1f576040517f08c379a000000000000000000000000000000000000000000000000000000000815260040180806020018281038252601f8152602001807f54686973206163636f756e7420686173206e6f2056656e646f7220526f6c650081525060200191505060405180910390fd5b8160046006811115612f2d57fe5b600c600083815260200190815260200160002060040160149054906101000a900460ff166006811115612f5c57fe5b14612fb2576040517f08c379a00000000000000000000000000000000000000000000000000000000081526004018080602001828103825260238152602001806144c46023913960400191505060405180910390fd5b6000600c60008581526020019081526020016000209050338160040160006101000a81548173ffffffffffffffffffffffffffffffffffffffff021916908373ffffffffffffffffffffffffffffffffffffffff16021790555060058160040160146101000a81548160ff0219169083600681111561302d57fe5b021790555082600b600086815260200190815260200160002060405180807f56656e646f725265636965766564000000000000000000000000000000000000815250600e0190509081526020016040518091039020819055507f610c78812ba3436587e66c76666902ef64e85085f07194426f288ac8fc9844f5846040518082815260200191505060405180910390a150505050565b6130d733600161344f90919063ffffffff16565b61312c576040517f08c379a00000000000000000000000000000000000000000000000000000000081526004018080602001828103825260258152602001806145bf6025913960400191505060405180910390fd5b826001600681111561313a57fe5b600c600083815260200190815260200160002060040160149054906101000a900460ff16600681111561316957fe5b146131bf576040517f08c379a00000000000000000000000000000000000000000000000000000000081526004018080602001828103825260258152602001806144e76025913960400191505060405180910390fd5b600c600085815260200190815260200160002060060160009054906101000a900473ffffffffffffffffffffffffffffffffffffffff168073ffffffffffffffffffffffffffffffffffffffff163373ffffffffffffffffffffffffffffffffffffffff161461327a576040517f08c379a000000000000000000000000000000000000000000000000000000000815260040180806020018281038252602a81526020018061449a602a913960400191505060405180910390fd5b6000600c6000878152602001908152602001600020905060028160040160146101000a81548160ff021916908360068111156132b257fe5b0217905550848160050160006101000a81548173ffffffffffffffffffffffffffffffffffffffff021916908373ffffffffffffffffffffffffffffffffffffffff16021790555083600b600088815260200190815260200160002060405180807f536869707065640000000000000000000000000000000000000000000000000081525060070190509081526020016040518091039020819055507ff00b9a5725b80c54016f42114f6ed7792d22eecb116011c4afac29c57bef6c95866040518082815260200191505060405180910390a1505050505050565b61339633613a38565b565b600d5481565b60006133b482600761344f90919063ffffffff16565b9050919050565b6133c3612da5565b613418576040517f08c379a00000000000000000000000000000000000000000000000000000000081526004018080602001828103825260298152602001806145546029913960400191505060405180910390fd5b61342181613a92565b50565b61342e8282613bd6565b5050565b6060613448826001613c7d90919063ffffffff16565b9050919050565b60008073ffffffffffffffffffffffffffffffffffffffff168273ffffffffffffffffffffffffffffffffffffffff1614156134f3576040517f08c379a000000000000000000000000000000000000000000000000000000000815260040180806020018281038252601e8152602001807f416464726573732063616e6e6f74206265207a65726f2061646472657373000081525060200191505060405180910390fd5b8260000160008373ffffffffffffffffffffffffffffffffffffffff1673ffffffffffffffffffffffffffffffffffffffff16815260200190815260200160002060009054906101000a900460ff16905092915050565b6135628383836004613d77909392919063ffffffff16565b8273ffffffffffffffffffffffffffffffffffffffff167fddbf200aa634dc3fb81cfd68583dd1040d1c751d335e1d86b631bde3e977fea860405160405180910390a2505050565b60006001151584600101846040518082805190602001908083835b602083106135e857805182526020820191506020810190506020830392506135c5565b6001836020036101000a038019825116818451168082178552505050505050905001915050908152602001604051809103902060010160149054906101000a900460ff16151514801561381d575073__StringUtils___________________________6346bdca9a85600101856040518082805190602001908083835b602083106136885780518252602082019150602081019050602083039250613665565b6001836020036101000a0380198251168184511680821785525050505050509050019150509081526020016040518091039020600001846040518363ffffffff1660e01b815260040180806020018060200183810383528581815460018160011615610100020316600290048152602001915080546001816001161561010002031660029004801561375b5780601f106137305761010080835404028352916020019161375b565b820191906000526020600020905b81548152906001019060200180831161373e57829003601f168201915b5050838103825284818151815260200191508051906020019080838360005b8381101561379557808201518184015260208101905061377a565b50505050905090810190601f1680156137c25780820380516001836020036101000a031916815260200191505b5094505050505060206040518083038186803b1580156137e157600080fd5b505af41580156137f5573d6000803e3d6000fd5b505050506040513d602081101561380b57600080fd5b81019080805190602001909291905050505b156138b85783600101836040518082805190602001908083835b6020831061385a5780518252602082019150602081019050602083039250613837565b6001836020036101000a038019825116818451168082178552505050505050905001915050908152602001604051809103902060010160009054906101000a900473ffffffffffffffffffffffffffffffffffffffff1690506138bd565b600090505b9392505050565b6138d881600461409190919063ffffffff16565b8073ffffffffffffffffffffffffffffffffffffffff167f126174f6cf49c81cdb4a9214c6b8f037bef55b4ec31e4fc776cea2a1c8a88d5960405160405180910390a250565b6139368383836001613d77909392919063ffffffff16565b8273ffffffffffffffffffffffffffffffffffffffff167f561138658ca49a8540dc70dcfe64c9026c1c5b9344642242dd6562970f9c127860405160405180910390a2505050565b61399281600761409190919063ffffffff16565b8073ffffffffffffffffffffffffffffffffffffffff167fceb8b5081e60cbeafb2db1ed5f2ef32309a5ba1d0d74ac127be270181f297e5860405160405180910390a250565b6139f08383836007613d77909392919063ffffffff16565b8273ffffffffffffffffffffffffffffffffffffffff167f187ea8b96b8ec4b770e46a85aa7421402f105827e5d2bb0705259f060c6043cb60405160405180910390a2505050565b613a4c81600161409190919063ffffffff16565b8073ffffffffffffffffffffffffffffffffffffffff167f2fed5abf6a80d6dfe30b4895481b2fc5d7dce5f8f7b931832f4a2947d5040c7f60405160405180910390a250565b600073ffffffffffffffffffffffffffffffffffffffff168173ffffffffffffffffffffffffffffffffffffffff161415613b18576040517f08c379a000000000000000000000000000000000000000000000000000000000815260040180806020018281038252602181526020018061459e6021913960400191505060405180910390fd5b8073ffffffffffffffffffffffffffffffffffffffff166000809054906101000a900473ffffffffffffffffffffffffffffffffffffffff1673ffffffffffffffffffffffffffffffffffffffff167f5c486528ec3e3f0ea91181cff8116f02bfa350e03b8b6f12e00765adbb5af85c60405160405180910390a3806000806101000a81548173ffffffffffffffffffffffffffffffffffffffff021916908373ffffffffffffffffffffffffffffffffffffffff16021790555050565b613bec828260016141f19092919063ffffffff16565b816040518082805190602001908083835b60208310613c205780518252602082019150602081019050602083039250613bfd565b6001836020036101000a03801982511681845116808217855250505050505090500191505060405180910390207fc396018409741c1f8cfa326dff36bb9406128c9cedbca8d19427f369c2a3b00460405160405180910390a25050565b606082600201826040518082805190602001908083835b60208310613cb75780518252602082019150602081019050602083039250613c94565b6001836020036101000a0380198251168184511680821785525050505050509050019150509081526020016040518091039020805480602002602001604051908101604052809291908181526020018280548015613d6a57602002820191906000526020600020905b8160009054906101000a900473ffffffffffffffffffffffffffffffffffffffff1673ffffffffffffffffffffffffffffffffffffffff1681526020019060010190808311613d20575b5050505050905092915050565b600073ffffffffffffffffffffffffffffffffffffffff168373ffffffffffffffffffffffffffffffffffffffff161415613e1a576040517f08c379a000000000000000000000000000000000000000000000000000000000815260040180806020018281038252601e8152602001807f416464726573732063616e6e6f74206265207a65726f2061646472657373000081525060200191505060405180910390fd5b613e24848461344f565b15613e7a576040517f08c379a000000000000000000000000000000000000000000000000000000000815260040180806020018281038252602281526020018061450c6022913960400191505060405180910390fd5b60018460000160008573ffffffffffffffffffffffffffffffffffffffff1673ffffffffffffffffffffffffffffffffffffffff16815260200190815260200160002060006101000a81548160ff0219169083151502179055508284600101836040518082805190602001908083835b60208310613f0d5780518252602082019150602081019050602083039250613eea565b6001836020036101000a038019825116818451168082178552505050505050905001915050908152602001604051809103902060010160006101000a81548173ffffffffffffffffffffffffffffffffffffffff021916908373ffffffffffffffffffffffffffffffffffffffff1602179055508084600101836040518082805190602001908083835b60208310613fba5780518252602082019150602081019050602083039250613f97565b6001836020036101000a038019825116818451168082178552505050505050905001915050908152602001604051809103902060000190805190602001906140039291906143f4565b50600184600101836040518082805190602001908083835b6020831061403e578051825260208201915060208101905060208303925061401b565b6001836020036101000a038019825116818451168082178552505050505050905001915050908152602001604051809103902060010160146101000a81548160ff02191690831515021790555050505050565b600073ffffffffffffffffffffffffffffffffffffffff168173ffffffffffffffffffffffffffffffffffffffff161415614134576040517f08c379a000000000000000000000000000000000000000000000000000000000815260040180806020018281038252601e8152602001807f416464726573732063616e6e6f74206265207a65726f2061646472657373000081525060200191505060405180910390fd5b61413e828261344f565b614193576040517f08c379a000000000000000000000000000000000000000000000000000000000815260040180806020018281038252602881526020018061462e6028913960400191505060405180910390fd5b60008260000160008373ffffffffffffffffffffffffffffffffffffffff1673ffffffffffffffffffffffffffffffffffffffff16815260200190815260200160002060006101000a81548160ff0219169083151502179055505050565b82600201826040518082805190602001908083835b602083106142295780518252602082019150602081019050602083039250614206565b6001836020036101000a03801982511681845116808217855250505050505090500191505090815260200160405180910390208190806001815401808255809150509060018203906000526020600020016000909192909190916101000a81548173ffffffffffffffffffffffffffffffffffffffff021916908373ffffffffffffffffffffffffffffffffffffffff16021790555050505050565b60405180610120016040528060008152602001600081526020016060815260200160608152602001600073ffffffffffffffffffffffffffffffffffffffff1681526020016000600681111561431757fe5b8152602001600073ffffffffffffffffffffffffffffffffffffffff168152602001600073ffffffffffffffffffffffffffffffffffffffff168152602001600073ffffffffffffffffffffffffffffffffffffffff1681525090565b828054600181600116156101000203166002900490600052602060002090601f016020900481019282601f106143b557805160ff19168380011785556143e3565b828001600101855582156143e3579182015b828111156143e25782518255916020019190600101906143c7565b5b5090506143f09190614474565b5090565b828054600181600116156101000203166002900490600052602060002090601f016020900481019282601f1061443557805160ff1916838001178555614463565b82800160010185558215614463579182015b82811115614462578251825591602001919060010190614447565b5b5090506144709190614474565b5090565b61449691905b8082111561449257600081600090555060010161447a565b5090565b9056fe54686973206163636f756e74206973206e6f7420746865206f776e6572206f662074686973206974656d546865204974656d206973206e6f7420696e20496e5472616e73697420737461746521546865204974656d206973206e6f7420696e204f72646572506c616365642073746174652154686973206164647265737320616c726561647920686173207468697320726f6c65546865204974656d206973206e6f7420696e20446973745265636965766564207374617465214f6e6c7920746865206f776e65722063616e20706572666f726d2074686973206f7065726174696f6e546865204974656d206973206e6f7420696e205368697070656420737461746521546865206e6577204f776e65722063616e6e6f742062652061646472657373203054686973206163636f756e7420686173206e6f204d616e75666163747572657220526f6c6554686973206163636f756e7420686173206e6f204469737472696275746f7220526f6c65546865204974656d206973206e6f7420696e204d616e7566616374757265642073746174652154686973206164647265737320646f6573206e6f742068617665207468697320726f6c6520796574546865204974656d206973206e6f7420696e2056656e646f72526563696576656420737461746521a265627a7a72315820602248219f5fdab7b5dccb83f32b3957948c5bcdeed292776a855c6605748fab64736f6c63430005100032",
  "source": "pragma solidity >=0.4.22 <0.9.0;\r\n\r\nimport \"./accessControl/DistributorRole.sol\";\r\nimport \"./accessControl/ManufacturerRole.sol\";\r\nimport \"./accessControl/VendorRole.sol\";\r\nimport \"./core/Ownable.sol\";\r\n\r\ncontract ProductTracking is\r\nOwnable,\r\nManufacturerRole,\r\nDistributorRole,\r\nVendorRole\r\n{\r\n    struct Product {\r\n        uint256 sku;\r\n        uint256 productID;\r\n        string name;\r\n        string desc;\r\n        address payable ownerID;\r\n        State currentStatus;\r\n        address payable distributorID;\r\n        address payable manufacturerID;\r\n        address payable vendorID;\r\n    }\r\n\r\n    //TODO: Track the journey\r\n    mapping(uint256 => string[]) productsHistory;\r\n    mapping(uint256 => mapping(string => uint256)) public productStamp;\r\n\r\n    mapping(uint256 => Product) public products;\r\n\r\n    uint256 public productsCount;\r\n\r\n    enum State {\r\n        Manufactured, // 0\r\n        OrderPlaced, // 1\r\n        Shipped, // 2\r\n        DistRecieved, // 3\r\n        InTransit, // 4\r\n        VendorRecieved, // 5\r\n        Purchased // 6\r\n    }\r\n\r\n    State constant defaultState = State.Manufactured;\r\n\r\n    // Define 7 events with the same 8 state values and accept 'upc' as input argument\r\n    event Manufactured(uint256 upc);\r\n    event OrderPlaced(uint256 upc);\r\n    event Shipped(uint256 upc);\r\n    event DistRecieved(uint256 upc);\r\n    event InTransit(uint256 upc);\r\n    event VendorRecieved(uint256 upc);\r\n    event Purchased(uint256 upc);\r\n\r\n    constructor() public {\r\n    }\r\n\r\n\r\n    function getRole(address payable _address) public view returns (string memory) {\r\n        if (super.isManufacturer(_address)) {\r\n            return \"manufacturer\";\r\n        } else if (super.isVendor(_address)) {\r\n            return \"vendor\";\r\n        } else if (super.isDistributor(_address)) {\r\n            return \"distributor\";\r\n        }\r\n        return \"\";\r\n    }\r\n\r\n    function login(string memory userName, string memory password) public view returns (address) {\r\n        if (super.isManufacturerViaName(userName)) {\r\n            return super.loginManufacturer(userName, password);\r\n        } else if (super.isVendorViaName(userName)) {\r\n            return super.loginVendor(userName, password);\r\n        } else if (super.isDistributorViaName(userName)) {\r\n            return super.loginDistributor(userName, password);\r\n        }\r\n        return address(0);\r\n    }\r\n\r\n    modifier verifyCaller(address payable _address) {\r\n        require(\r\n            msg.sender == _address,\r\n            \"This account is not the owner of this item\"\r\n        );\r\n        _;\r\n    }\r\n\r\n    modifier manufactured(uint256 _upc) {\r\n        require(\r\n            products[_upc].currentStatus == State.Manufactured,\r\n            \"The Item is not in Manufactured state!\"\r\n        );\r\n        _;\r\n    }\r\n\r\n    modifier orderPlaced(uint256 _upc) {\r\n        require(\r\n            products[_upc].currentStatus == State.OrderPlaced,\r\n            \"The Item is not in OrderPlaced state!\"\r\n        );\r\n        _;\r\n    }\r\n\r\n    modifier shipped(uint256 _upc) {\r\n        require(\r\n            products[_upc].currentStatus == State.Shipped,\r\n            \"The Item is not in Shipped state!\"\r\n        );\r\n        _;\r\n    }\r\n\r\n    modifier distRecieved(uint256 _upc) {\r\n        require(\r\n            products[_upc].currentStatus == State.DistRecieved,\r\n            \"The Item is not in DistRecieved state!\"\r\n        );\r\n        _;\r\n    }\r\n\r\n    modifier inTransit(uint256 _upc) {\r\n        require(\r\n            products[_upc].currentStatus == State.InTransit,\r\n            \"The Item is not in InTransit state!\"\r\n        );\r\n        _;\r\n    }\r\n\r\n    modifier vendorRecieved(uint256 _upc) {\r\n        require(\r\n            products[_upc].currentStatus == State.VendorRecieved,\r\n            \"The Item is not in VendorRecieved state!\"\r\n        );\r\n        _;\r\n    }\r\n\r\n    modifier purchased(uint256 _upc) {\r\n        require(\r\n            products[_upc].currentStatus == State.Purchased,\r\n            \"The Item is not in Purchased state!\"\r\n        );\r\n        _;\r\n    }\r\n\r\n    function manufactureProduct(\r\n        uint256 _upc,\r\n        string memory name,\r\n        uint256 _sku,\r\n        string memory desc,\r\n        address payable _originManufacturerID,\r\n        uint256 time\r\n    ) public onlyManufacturer {\r\n        Product memory newItem;\r\n        newItem.ownerID = _originManufacturerID;\r\n        newItem.manufacturerID = _originManufacturerID;\r\n        //NEW ADDITION\r\n        newItem.productID = _upc;\r\n        newItem.name = name;\r\n        newItem.sku = _sku;\r\n        newItem.desc = desc;\r\n\r\n        productsCount = productsCount + 1;\r\n\r\n        newItem.currentStatus = defaultState;\r\n        products[_upc] = newItem;\r\n        productStamp[_upc][\"Manufactured\"] = time;\r\n\r\n        emit Manufactured(_upc);\r\n    }\r\n\r\n    function placeOrder(uint256 _upc, uint256 time)\r\n    public\r\n        //        onlyManufacturer //TODO: fix this\r\n    manufactured(_upc)\r\n        //        verifyCaller(products[_upc].manufacturerID)\r\n    {\r\n        Product storage existingItem = products[_upc];\r\n        existingItem.currentStatus = State.OrderPlaced;\r\n        productStamp[_upc][\"OrderPlaced\"] = time;\r\n        emit OrderPlaced(_upc);\r\n    }\r\n\r\n    function shipToDistributor(uint256 _upc, address payable distID, uint256 time)\r\n    public\r\n    onlyManufacturer\r\n//    isDistributor(distID)\r\n    orderPlaced(_upc)\r\n    verifyCaller(products[_upc].manufacturerID)\r\n    {\r\n        Product storage existingItem = products[_upc];\r\n        existingItem.currentStatus = State.Shipped;\r\n        existingItem.distributorID = distID;\r\n        productStamp[_upc][\"Shipped\"] = time;\r\n        emit Shipped(_upc);\r\n    }\r\n\r\n    function recieveAsDistributor(uint256 _upc, uint256 time)\r\n    public\r\n    onlyDistributor\r\n    shipped(_upc)\r\n    {\r\n        Product storage existingItem = products[_upc];\r\n        existingItem.ownerID = msg.sender;\r\n        existingItem.currentStatus = State.DistRecieved;\r\n        productStamp[_upc][\"DistRecieved\"] = time;\r\n        emit DistRecieved(_upc);\r\n    }\r\n\r\n    function shipToVendor(uint256 _upc, address payable vendorId, uint256 time)\r\n    public onlyDistributor\r\n    distRecieved(_upc)\r\n    verifyCaller(products[_upc].distributorID)\r\n    {\r\n        Product storage existingItem = products[_upc];\r\n        existingItem.currentStatus = State.InTransit;\r\n        existingItem.vendorID = vendorId;\r\n        productStamp[_upc][\"InTransit\"] = time;\r\n        emit InTransit(_upc);\r\n    }\r\n\r\n    function recieveAsVendor(uint256 _upc, uint256 time) public onlyVendor inTransit(_upc) {\r\n        Product storage existingItem = products[_upc];\r\n        existingItem.ownerID = msg.sender;\r\n        existingItem.currentStatus = State.VendorRecieved;\r\n        productStamp[_upc][\"VendorRecieved\"] = time;\r\n        emit VendorRecieved(_upc);\r\n    }\r\n\r\n    function sellProduct(uint256 _upc, uint256 time)\r\n    public\r\n    onlyVendor\r\n    vendorRecieved(_upc)\r\n    verifyCaller(products[_upc].vendorID)\r\n    {\r\n        Product storage existingItem = products[_upc];\r\n        existingItem.currentStatus = State.Purchased;\r\n        productStamp[_upc][\"Purchased\"] = time;\r\n        emit Purchased(_upc);\r\n    }\r\n    //IMPORTANT, can add 'address payable customerName' to parameters and then set owner id to that of customerName. I didn't do it, because I didn't find it important for the item's history.\r\n    //But we can easily add it in and make use of that. It is up to everyone to agree on\r\n    //Just know that without that, the owner role is practically useless\r\n\r\n    // function compareStrings (string memory a, string memory b) public view returns (bool) {\r\n    //     return (keccak256(abi.encodePacked((a))) == keccak256(abi.encodePacked((b))));\r\n    // }\r\n}\r\n",
  "sourcePath": "C:\\Users\\micha\\GitHub\\React\\contracts\\ProductTracking.sol",
  "compiler": {
    "name": "solc",
    "version": "0.5.16+commit.9c3226ce.Emscripten.clang"
  },
  "schemaVersion": "3.4.7",
  "updatedAt": "2022-06-01T01:59:13.955Z",
  "networkType": "ethereum",
  "devdoc": {
    "methods": {}
  },
  "userdoc": {
    "methods": {
      "isOwner()": {
        "notice": "Check if the calling address is the owner of the contract"
      },
      "owner()": {
        "notice": "Look up the address of the owner"
      },
      "renounceOwnership()": {
        "notice": "Define a function to renounce ownerhip"
      },
      "transferOwnership(address)": {
        "notice": "Define a public function to transfer ownership"
      }
    }
  }
}