{
  "contractName": "ProductTracking",
  "abi": [
    {
      "inputs": [],
      "payable": false,
      "stateMutability": "nonpayable",
      "type": "constructor"
    },
    {
      "anonymous": false,
      "inputs": [
        {
          "indexed": false,
          "internalType": "uint256",
          "name": "upc",
          "type": "uint256"
        }
      ],
      "name": "DistRecieved",
      "type": "event"
    },
    {
      "anonymous": false,
      "inputs": [
        {
          "indexed": true,
          "internalType": "address",
          "name": "account",
          "type": "address"
        }
      ],
      "name": "DistributorAdded",
      "type": "event"
    },
    {
      "anonymous": false,
      "inputs": [
        {
          "indexed": true,
          "internalType": "address",
          "name": "account",
          "type": "address"
        }
      ],
      "name": "DistributorRemoved",
      "type": "event"
    },
    {
      "anonymous": false,
      "inputs": [
        {
          "indexed": false,
          "internalType": "uint256",
          "name": "upc",
          "type": "uint256"
        }
      ],
      "name": "InTransit",
      "type": "event"
    },
    {
      "anonymous": false,
      "inputs": [
        {
          "indexed": false,
          "internalType": "uint256",
          "name": "upc",
          "type": "uint256"
        }
      ],
      "name": "Manufactured",
      "type": "event"
    },
    {
      "anonymous": false,
      "inputs": [
        {
          "indexed": true,
          "internalType": "address",
          "name": "account",
          "type": "address"
        }
      ],
      "name": "ManufacturerAdded",
      "type": "event"
    },
    {
      "anonymous": false,
      "inputs": [
        {
          "indexed": true,
          "internalType": "address",
          "name": "account",
          "type": "address"
        }
      ],
      "name": "ManufacturerRemoved",
      "type": "event"
    },
    {
      "anonymous": false,
      "inputs": [
        {
          "indexed": false,
          "internalType": "uint256",
          "name": "upc",
          "type": "uint256"
        }
      ],
      "name": "OrderPlaced",
      "type": "event"
    },
    {
      "anonymous": false,
      "inputs": [
        {
          "indexed": false,
          "internalType": "uint256",
          "name": "upc",
          "type": "uint256"
        }
      ],
      "name": "Purchased",
      "type": "event"
    },
    {
      "anonymous": false,
      "inputs": [
        {
          "indexed": false,
          "internalType": "uint256",
          "name": "upc",
          "type": "uint256"
        }
      ],
      "name": "Shipped",
      "type": "event"
    },
    {
      "anonymous": false,
      "inputs": [
        {
          "indexed": true,
          "internalType": "address",
          "name": "oldOwner",
          "type": "address"
        },
        {
          "indexed": true,
          "internalType": "address",
          "name": "newOwner",
          "type": "address"
        }
      ],
      "name": "TransferOwnership",
      "type": "event"
    },
    {
      "anonymous": false,
      "inputs": [
        {
          "indexed": true,
          "internalType": "address",
          "name": "account",
          "type": "address"
        }
      ],
      "name": "VendorAdded",
      "type": "event"
    },
    {
      "anonymous": false,
      "inputs": [
        {
          "indexed": false,
          "internalType": "uint256",
          "name": "upc",
          "type": "uint256"
        }
      ],
      "name": "VendorRecieved",
      "type": "event"
    },
    {
      "anonymous": false,
      "inputs": [
        {
          "indexed": true,
          "internalType": "address",
          "name": "account",
          "type": "address"
        }
      ],
      "name": "VendorRemoved",
      "type": "event"
    },
    {
      "constant": false,
      "inputs": [
        {
          "internalType": "address",
          "name": "account",
          "type": "address"
        }
      ],
      "name": "addDistributor",
      "outputs": [],
      "payable": false,
      "stateMutability": "nonpayable",
      "type": "function"
    },
    {
      "constant": false,
      "inputs": [
        {
          "internalType": "address",
          "name": "account",
          "type": "address"
        }
      ],
      "name": "addManufacturer",
      "outputs": [],
      "payable": false,
      "stateMutability": "nonpayable",
      "type": "function"
    },
    {
      "constant": false,
      "inputs": [
        {
          "internalType": "address",
          "name": "account",
          "type": "address"
        }
      ],
      "name": "addVendor",
      "outputs": [],
      "payable": false,
      "stateMutability": "nonpayable",
      "type": "function"
    },
    {
      "constant": true,
      "inputs": [
        {
          "internalType": "address",
          "name": "account",
          "type": "address"
        }
      ],
      "name": "isDistributor",
      "outputs": [
        {
          "internalType": "bool",
          "name": "",
          "type": "bool"
        }
      ],
      "payable": false,
      "stateMutability": "view",
      "type": "function"
    },
    {
      "constant": true,
      "inputs": [
        {
          "internalType": "address",
          "name": "account",
          "type": "address"
        }
      ],
      "name": "isManufacturer",
      "outputs": [
        {
          "internalType": "bool",
          "name": "",
          "type": "bool"
        }
      ],
      "payable": false,
      "stateMutability": "view",
      "type": "function"
    },
    {
      "constant": true,
      "inputs": [],
      "name": "isOwner",
      "outputs": [
        {
          "internalType": "bool",
          "name": "",
          "type": "bool"
        }
      ],
      "payable": false,
      "stateMutability": "view",
      "type": "function"
    },
    {
      "constant": true,
      "inputs": [
        {
          "internalType": "address",
          "name": "account",
          "type": "address"
        }
      ],
      "name": "isVendor",
      "outputs": [
        {
          "internalType": "bool",
          "name": "",
          "type": "bool"
        }
      ],
      "payable": false,
      "stateMutability": "view",
      "type": "function"
    },
    {
      "constant": false,
      "inputs": [],
      "name": "kill",
      "outputs": [],
      "payable": false,
      "stateMutability": "nonpayable",
      "type": "function"
    },
    {
      "constant": true,
      "inputs": [],
      "name": "owner",
      "outputs": [
        {
          "internalType": "address",
          "name": "",
          "type": "address"
        }
      ],
      "payable": false,
      "stateMutability": "view",
      "type": "function"
    },
    {
      "constant": true,
      "inputs": [
        {
          "internalType": "uint256",
          "name": "",
          "type": "uint256"
        }
      ],
      "name": "products",
      "outputs": [
        {
          "internalType": "uint256",
          "name": "sku",
          "type": "uint256"
        },
        {
          "internalType": "uint256",
          "name": "productID",
          "type": "uint256"
        },
        {
          "internalType": "string",
          "name": "name",
          "type": "string"
        },
        {
          "internalType": "string",
          "name": "desc",
          "type": "string"
        },
        {
          "internalType": "address payable",
          "name": "ownerID",
          "type": "address"
        },
        {
          "internalType": "enum ProductTracking.State",
          "name": "currentStatus",
          "type": "uint8"
        },
        {
          "internalType": "address payable",
          "name": "distributorID",
          "type": "address"
        },
        {
          "internalType": "address payable",
          "name": "manufacturerID",
          "type": "address"
        },
        {
          "internalType": "address payable",
          "name": "vendorID",
          "type": "address"
        }
      ],
      "payable": false,
      "stateMutability": "view",
      "type": "function"
    },
    {
      "constant": true,
      "inputs": [],
      "name": "productsCount",
      "outputs": [
        {
          "internalType": "uint256",
          "name": "",
          "type": "uint256"
        }
      ],
      "payable": false,
      "stateMutability": "view",
      "type": "function"
    },
    {
      "constant": false,
      "inputs": [],
      "name": "renounceDistributor",
      "outputs": [],
      "payable": false,
      "stateMutability": "nonpayable",
      "type": "function"
    },
    {
      "constant": false,
      "inputs": [],
      "name": "renounceManufacturer",
      "outputs": [],
      "payable": false,
      "stateMutability": "nonpayable",
      "type": "function"
    },
    {
      "constant": false,
      "inputs": [],
      "name": "renounceOwnership",
      "outputs": [],
      "payable": false,
      "stateMutability": "nonpayable",
      "type": "function"
    },
    {
      "constant": false,
      "inputs": [],
      "name": "renounceVendor",
      "outputs": [],
      "payable": false,
      "stateMutability": "nonpayable",
      "type": "function"
    },
    {
      "constant": false,
      "inputs": [
        {
          "internalType": "address payable",
          "name": "newOwner",
          "type": "address"
        }
      ],
      "name": "transferOwnership",
      "outputs": [],
      "payable": false,
      "stateMutability": "nonpayable",
      "type": "function"
    },
    {
      "constant": true,
      "inputs": [
        {
          "internalType": "address payable",
          "name": "_address",
          "type": "address"
        }
      ],
      "name": "getRole",
      "outputs": [
        {
          "internalType": "string",
          "name": "",
          "type": "string"
        }
      ],
      "payable": false,
      "stateMutability": "view",
      "type": "function"
    },
    {
      "constant": false,
      "inputs": [
        {
          "internalType": "uint256",
          "name": "_upc",
          "type": "uint256"
        },
        {
          "internalType": "string",
          "name": "name",
          "type": "string"
        },
        {
          "internalType": "uint256",
          "name": "_sku",
          "type": "uint256"
        },
        {
          "internalType": "string",
          "name": "desc",
          "type": "string"
        },
        {
          "internalType": "address payable",
          "name": "_originManufacturerID",
          "type": "address"
        }
      ],
      "name": "manufactureProduct",
      "outputs": [],
      "payable": false,
      "stateMutability": "nonpayable",
      "type": "function"
    },
    {
      "constant": false,
      "inputs": [
        {
          "internalType": "uint256",
          "name": "_upc",
          "type": "uint256"
        }
      ],
      "name": "placeOrder",
      "outputs": [],
      "payable": false,
      "stateMutability": "nonpayable",
      "type": "function"
    },
    {
      "constant": false,
      "inputs": [
        {
          "internalType": "uint256",
          "name": "_upc",
          "type": "uint256"
        },
        {
          "internalType": "address payable",
          "name": "distID",
          "type": "address"
        }
      ],
      "name": "shipToDistributor",
      "outputs": [],
      "payable": false,
      "stateMutability": "nonpayable",
      "type": "function"
    },
    {
      "constant": false,
      "inputs": [
        {
          "internalType": "uint256",
          "name": "_upc",
          "type": "uint256"
        }
      ],
      "name": "recieveAsDistributor",
      "outputs": [],
      "payable": false,
      "stateMutability": "nonpayable",
      "type": "function"
    },
    {
      "constant": false,
      "inputs": [
        {
          "internalType": "uint256",
          "name": "_upc",
          "type": "uint256"
        },
        {
          "internalType": "address payable",
          "name": "vendorId",
          "type": "address"
        }
      ],
      "name": "shipToVendor",
      "outputs": [],
      "payable": false,
      "stateMutability": "nonpayable",
      "type": "function"
    },
    {
      "constant": false,
      "inputs": [
        {
          "internalType": "uint256",
          "name": "_upc",
          "type": "uint256"
        }
      ],
      "name": "recieveAsVendor",
      "outputs": [],
      "payable": false,
      "stateMutability": "nonpayable",
      "type": "function"
    },
    {
      "constant": false,
      "inputs": [
        {
          "internalType": "uint256",
          "name": "_upc",
          "type": "uint256"
        }
      ],
      "name": "sellProduct",
      "outputs": [],
      "payable": false,
      "stateMutability": "nonpayable",
      "type": "function"
    }
  ],
  "bytecode": "0x60806040523480156200001157600080fd5b50336000806101000a81548173ffffffffffffffffffffffffffffffffffffffff021916908373ffffffffffffffffffffffffffffffffffffffff1602179055506000809054906101000a900473ffffffffffffffffffffffffffffffffffffffff1673ffffffffffffffffffffffffffffffffffffffff16600073ffffffffffffffffffffffffffffffffffffffff167f5c486528ec3e3f0ea91181cff8116f02bfa350e03b8b6f12e00765adbb5af85c60405160405180910390a3620000df336200010760201b60201c565b620000f0336200016860201b60201c565b6200010133620001c960201b60201c565b62000492565b620001228160016200022a60201b620023601790919060201c565b8073ffffffffffffffffffffffffffffffffffffffff167f561138658ca49a8540dc70dcfe64c9026c1c5b9344642242dd6562970f9c127860405160405180910390a250565b620001838160026200022a60201b620023601790919060201c565b8073ffffffffffffffffffffffffffffffffffffffff167fddbf200aa634dc3fb81cfd68583dd1040d1c751d335e1d86b631bde3e977fea860405160405180910390a250565b620001e48160036200022a60201b620023601790919060201c565b8073ffffffffffffffffffffffffffffffffffffffff167f187ea8b96b8ec4b770e46a85aa7421402f105827e5d2bb0705259f060c6043cb60405160405180910390a250565b600073ffffffffffffffffffffffffffffffffffffffff168173ffffffffffffffffffffffffffffffffffffffff161415620002ce576040517f08c379a000000000000000000000000000000000000000000000000000000000815260040180806020018281038252601e8152602001807f416464726573732063616e6e6f74206265207a65726f2061646472657373000081525060200191505060405180910390fd5b620002e082826200039660201b60201c565b1562000338576040517f08c379a000000000000000000000000000000000000000000000000000000000815260040180806020018281038252602281526020018062002e306022913960400191505060405180910390fd5b60018260000160008373ffffffffffffffffffffffffffffffffffffffff1673ffffffffffffffffffffffffffffffffffffffff16815260200190815260200160002060006101000a81548160ff0219169083151502179055505050565b60008073ffffffffffffffffffffffffffffffffffffffff168273ffffffffffffffffffffffffffffffffffffffff1614156200043b576040517f08c379a000000000000000000000000000000000000000000000000000000000815260040180806020018281038252601e8152602001807f416464726573732063616e6e6f74206265207a65726f2061646472657373000081525060200191505060405180910390fd5b8260000160008373ffffffffffffffffffffffffffffffffffffffff1673ffffffffffffffffffffffffffffffffffffffff16815260200190815260200160002060009054906101000a900460ff16905092915050565b61298e80620004a26000396000f3fe608060405234801561001057600080fd5b50600436106101585760003560e01c80637acc0b20116100c3578063de07f34e1161007c578063de07f34e1461073a578063e0df7bb614610744578063ee54d54f14610762578063ee6bcf34146107be578063f2fde38b1461080c578063ffa1abe91461085057610158565b80637acc0b20146103f45780638da5cb5b146105f65780638f0c86fa146106405780638f32d59b1461069c57806391341f90146106be578063ba2255f41461070c57610158565b8063492deb1511610115578063492deb15146103205780635f8a5afa1461034e578063644241db14610392578063715018a61461039c5780637250e224146103a657806376ba15ad146103ea57610158565b806302c910d61461015d57806317d4a4911461018b57806341c0e1b5146101e757806344276733146101f157806345e0f753146102ae5780634754cbba146102f2575b600080fd5b6101896004803603602081101561017357600080fd5b81019080803590602001909291905050506109d6565b005b6101cd600480360360208110156101a157600080fd5b81019080803573ffffffffffffffffffffffffffffffffffffffff169060200190929190505050610b8e565b604051808215151515815260200191505060405180910390f35b6101ef610bab565b005b6102336004803603602081101561020757600080fd5b81019080803573ffffffffffffffffffffffffffffffffffffffff169060200190929190505050610c3c565b6040518080602001828103825283818151815260200191508051906020019080838360005b83811015610273578082015181840152602081019050610258565b50505050905090810190601f1680156102a05780820380516001836020036101000a031916815260200191505b509250505060405180910390f35b6102f0600480360360208110156102c457600080fd5b81019080803573ffffffffffffffffffffffffffffffffffffffff169060200190929190505050610d37565b005b61031e6004803603602081101561030857600080fd5b8101908080359060200190929190505050610d43565b005b61034c6004803603602081101561033657600080fd5b8101908080359060200190929190505050610f18565b005b6103906004803603602081101561036457600080fd5b81019080803573ffffffffffffffffffffffffffffffffffffffff169060200190929190505050611166565b005b61039a611172565b005b6103a461117d565b005b6103e8600480360360208110156103bc57600080fd5b81019080803573ffffffffffffffffffffffffffffffffffffffff169060200190929190505050611299565b005b6103f26112a5565b005b6104206004803603602081101561040a57600080fd5b81019080803590602001909291905050506112b0565b604051808a815260200189815260200180602001806020018873ffffffffffffffffffffffffffffffffffffffff1673ffffffffffffffffffffffffffffffffffffffff16815260200187600681111561047657fe5b60ff1681526020018673ffffffffffffffffffffffffffffffffffffffff1673ffffffffffffffffffffffffffffffffffffffff1681526020018573ffffffffffffffffffffffffffffffffffffffff1673ffffffffffffffffffffffffffffffffffffffff1681526020018473ffffffffffffffffffffffffffffffffffffffff1673ffffffffffffffffffffffffffffffffffffffff16815260200183810383528a818151815260200191508051906020019080838360005b8381101561054c578082015181840152602081019050610531565b50505050905090810190601f1680156105795780820380516001836020036101000a031916815260200191505b50838103825289818151815260200191508051906020019080838360005b838110156105b2578082015181840152602081019050610597565b50505050905090810190601f1680156105df5780820380516001836020036101000a031916815260200191505b509b50505050505050505050505060405180910390f35b6105fe6114bb565b604051808273ffffffffffffffffffffffffffffffffffffffff1673ffffffffffffffffffffffffffffffffffffffff16815260200191505060405180910390f35b6106826004803603602081101561065657600080fd5b81019080803573ffffffffffffffffffffffffffffffffffffffff1690602001909291905050506114e4565b604051808215151515815260200191505060405180910390f35b6106a4611501565b604051808215151515815260200191505060405180910390f35b61070a600480360360408110156106d457600080fd5b8101908080359060200190929190803573ffffffffffffffffffffffffffffffffffffffff169060200190929190505050611558565b005b6107386004803603602081101561072257600080fd5b81019080803590602001909291905050506117cd565b005b6107426118d9565b005b61074c6118e4565b6040518082815260200191505060405180910390f35b6107a46004803603602081101561077857600080fd5b81019080803573ffffffffffffffffffffffffffffffffffffffff1690602001909291905050506118ea565b604051808215151515815260200191505060405180910390f35b61080a600480360360408110156107d457600080fd5b8101908080359060200190929190803573ffffffffffffffffffffffffffffffffffffffff169060200190929190505050611907565b005b61084e6004803603602081101561082257600080fd5b81019080803573ffffffffffffffffffffffffffffffffffffffff169060200190929190505050611b7c565b005b6109d4600480360360a081101561086657600080fd5b81019080803590602001909291908035906020019064010000000081111561088d57600080fd5b82018360208201111561089f57600080fd5b803590602001918460018302840111640100000000831117156108c157600080fd5b91908080601f016020809104026020016040519081016040528093929190818152602001838380828437600081840152601f19601f820116905080830192505050505050509192919290803590602001909291908035906020019064010000000081111561092e57600080fd5b82018360208201111561094057600080fd5b8035906020019184600183028401116401000000008311171561096257600080fd5b91908080601f016020809104026020016040519081016040528093929190818152602001838380828437600081840152601f19601f820116905080830192505050505050509192919290803573ffffffffffffffffffffffffffffffffffffffff169060200190929190505050611be5565b005b6109ea336002611f0590919063ffffffff16565b610a3f576040517f08c379a00000000000000000000000000000000000000000000000000000000081526004018080602001828103825260248152602001806128c06024913960400191505060405180910390fd5b8060026006811115610a4d57fe5b6005600083815260200190815260200160002060040160149054906101000a900460ff166006811115610a7c57fe5b14610ad2576040517f08c379a00000000000000000000000000000000000000000000000000000000081526004018080602001828103825260218152602001806128596021913960400191505060405180910390fd5b6000600560008481526020019081526020016000209050338160040160006101000a81548173ffffffffffffffffffffffffffffffffffffffff021916908373ffffffffffffffffffffffffffffffffffffffff16021790555060038160040160146101000a81548160ff02191690836006811115610b4d57fe5b02179055507f08c750f5731de445c2df1be22b2b46c01c96cae904a7c6c7bda7e2ce9f4466f4836040518082815260200191505060405180910390a1505050565b6000610ba4826001611f0590919063ffffffff16565b9050919050565b6000809054906101000a900473ffffffffffffffffffffffffffffffffffffffff1673ffffffffffffffffffffffffffffffffffffffff163373ffffffffffffffffffffffffffffffffffffffff161415610c3a576000809054906101000a900473ffffffffffffffffffffffffffffffffffffffff1673ffffffffffffffffffffffffffffffffffffffff16ff5b565b6060610c4782610b8e565b15610c89576040518060400160405280600c81526020017f6d616e75666163747572657200000000000000000000000000000000000000008152509050610d32565b610c92826118ea565b15610cd4576040518060400160405280600681526020017f76656e646f7200000000000000000000000000000000000000000000000000008152509050610d32565b610cdd826114e4565b15610d1f576040518060400160405280600b81526020017f6469737472696275746f720000000000000000000000000000000000000000008152509050610d32565b6040518060200160405280600081525090505b919050565b610d4081612000565b50565b610d57336003611f0590919063ffffffff16565b610dc9576040517f08c379a000000000000000000000000000000000000000000000000000000000815260040180806020018281038252601f8152602001807f54686973206163636f756e7420686173206e6f2056656e646f7220526f6c650081525060200191505060405180910390fd5b8060046006811115610dd757fe5b6005600083815260200190815260200160002060040160149054906101000a900460ff166006811115610e0657fe5b14610e5c576040517f08c379a00000000000000000000000000000000000000000000000000000000081526004018080602001828103825260238152602001806127a06023913960400191505060405180910390fd5b6000600560008481526020019081526020016000209050338160040160006101000a81548173ffffffffffffffffffffffffffffffffffffffff021916908373ffffffffffffffffffffffffffffffffffffffff16021790555060058160040160146101000a81548160ff02191690836006811115610ed757fe5b02179055507f610c78812ba3436587e66c76666902ef64e85085f07194426f288ac8fc9844f5836040518082815260200191505060405180910390a1505050565b610f2c336003611f0590919063ffffffff16565b610f9e576040517f08c379a000000000000000000000000000000000000000000000000000000000815260040180806020018281038252601f8152602001807f54686973206163636f756e7420686173206e6f2056656e646f7220526f6c650081525060200191505060405180910390fd5b8060056006811115610fac57fe5b6005600083815260200190815260200160002060040160149054906101000a900460ff166006811115610fdb57fe5b14611031576040517f08c379a00000000000000000000000000000000000000000000000000000000081526004018080602001828103825260288152602001806129326028913960400191505060405180910390fd5b6005600083815260200190815260200160002060070160009054906101000a900473ffffffffffffffffffffffffffffffffffffffff168073ffffffffffffffffffffffffffffffffffffffff163373ffffffffffffffffffffffffffffffffffffffff16146110ec576040517f08c379a000000000000000000000000000000000000000000000000000000000815260040180806020018281038252602a815260200180612776602a913960400191505060405180910390fd5b600060056000858152602001908152602001600020905060068160040160146101000a81548160ff0219169083600681111561112457fe5b02179055507f653d56639fee6b566a5c804764e9689de38645f0b733df89a36a1b7b42173dd8846040518082815260200191505060405180910390a150505050565b61116f8161205a565b50565b61117b336120b4565b565b611185611501565b6111da576040517f08c379a00000000000000000000000000000000000000000000000000000000081526004018080602001828103825260298152602001806128306029913960400191505060405180910390fd5b600073ffffffffffffffffffffffffffffffffffffffff166000809054906101000a900473ffffffffffffffffffffffffffffffffffffffff1673ffffffffffffffffffffffffffffffffffffffff167f5c486528ec3e3f0ea91181cff8116f02bfa350e03b8b6f12e00765adbb5af85c60405160405180910390a360008060006101000a81548173ffffffffffffffffffffffffffffffffffffffff021916908373ffffffffffffffffffffffffffffffffffffffff160217905550565b6112a28161210e565b50565b6112ae33612168565b565b6005602052806000526040600020600091509050806000015490806001015490806002018054600181600116156101000203166002900480601f0160208091040260200160405190810160405280929190818152602001828054600181600116156101000203166002900480156113685780601f1061133d57610100808354040283529160200191611368565b820191906000526020600020905b81548152906001019060200180831161134b57829003601f168201915b505050505090806003018054600181600116156101000203166002900480601f0160208091040260200160405190810160405280929190818152602001828054600181600116156101000203166002900480156114065780601f106113db57610100808354040283529160200191611406565b820191906000526020600020905b8154815290600101906020018083116113e957829003601f168201915b5050505050908060040160009054906101000a900473ffffffffffffffffffffffffffffffffffffffff16908060040160149054906101000a900460ff16908060050160009054906101000a900473ffffffffffffffffffffffffffffffffffffffff16908060060160009054906101000a900473ffffffffffffffffffffffffffffffffffffffff16908060070160009054906101000a900473ffffffffffffffffffffffffffffffffffffffff16905089565b60008060009054906101000a900473ffffffffffffffffffffffffffffffffffffffff16905090565b60006114fa826002611f0590919063ffffffff16565b9050919050565b60008060009054906101000a900473ffffffffffffffffffffffffffffffffffffffff1673ffffffffffffffffffffffffffffffffffffffff163373ffffffffffffffffffffffffffffffffffffffff1614905090565b61156c336001611f0590919063ffffffff16565b6115c1576040517f08c379a000000000000000000000000000000000000000000000000000000000815260040180806020018281038252602581526020018061289b6025913960400191505060405180910390fd5b81600160068111156115cf57fe5b6005600083815260200190815260200160002060040160149054906101000a900460ff1660068111156115fe57fe5b14611654576040517f08c379a00000000000000000000000000000000000000000000000000000000081526004018080602001828103825260258152602001806127c36025913960400191505060405180910390fd5b6005600084815260200190815260200160002060060160009054906101000a900473ffffffffffffffffffffffffffffffffffffffff168073ffffffffffffffffffffffffffffffffffffffff163373ffffffffffffffffffffffffffffffffffffffff161461170f576040517f08c379a000000000000000000000000000000000000000000000000000000000815260040180806020018281038252602a815260200180612776602a913960400191505060405180910390fd5b600060056000868152602001908152602001600020905060028160040160146101000a81548160ff0219169083600681111561174757fe5b0217905550838160050160006101000a81548173ffffffffffffffffffffffffffffffffffffffff021916908373ffffffffffffffffffffffffffffffffffffffff1602179055507ff00b9a5725b80c54016f42114f6ed7792d22eecb116011c4afac29c57bef6c95856040518082815260200191505060405180910390a15050505050565b80600060068111156117db57fe5b6005600083815260200190815260200160002060040160149054906101000a900460ff16600681111561180a57fe5b14611860576040517f08c379a00000000000000000000000000000000000000000000000000000000081526004018080602001828103825260268152602001806128e46026913960400191505060405180910390fd5b600060056000848152602001908152602001600020905060018160040160146101000a81548160ff0219169083600681111561189857fe5b02179055507fffa896d8919f0556f53ace1395617969a3b53ab5271a085e28ac0c4a3724e63d836040518082815260200191505060405180910390a1505050565b6118e2336121c2565b565b60065481565b6000611900826003611f0590919063ffffffff16565b9050919050565b61191b336002611f0590919063ffffffff16565b611970576040517f08c379a00000000000000000000000000000000000000000000000000000000081526004018080602001828103825260248152602001806128c06024913960400191505060405180910390fd5b816003600681111561197e57fe5b6005600083815260200190815260200160002060040160149054906101000a900460ff1660068111156119ad57fe5b14611a03576040517f08c379a000000000000000000000000000000000000000000000000000000000815260040180806020018281038252602681526020018061280a6026913960400191505060405180910390fd5b6005600084815260200190815260200160002060050160009054906101000a900473ffffffffffffffffffffffffffffffffffffffff168073ffffffffffffffffffffffffffffffffffffffff163373ffffffffffffffffffffffffffffffffffffffff1614611abe576040517f08c379a000000000000000000000000000000000000000000000000000000000815260040180806020018281038252602a815260200180612776602a913960400191505060405180910390fd5b600060056000868152602001908152602001600020905060048160040160146101000a81548160ff02191690836006811115611af657fe5b0217905550838160070160006101000a81548173ffffffffffffffffffffffffffffffffffffffff021916908373ffffffffffffffffffffffffffffffffffffffff1602179055507f40557acb2ee4dc77f56ffb057df48183f6914c97d92dbc8b31c79d83ddaa746c856040518082815260200191505060405180910390a15050505050565b611b84611501565b611bd9576040517f08c379a00000000000000000000000000000000000000000000000000000000081526004018080602001828103825260298152602001806128306029913960400191505060405180910390fd5b611be28161221c565b50565b611bf9336001611f0590919063ffffffff16565b611c4e576040517f08c379a000000000000000000000000000000000000000000000000000000000815260040180806020018281038252602581526020018061289b6025913960400191505060405180910390fd5b611c56612621565b81816080019073ffffffffffffffffffffffffffffffffffffffff16908173ffffffffffffffffffffffffffffffffffffffff1681525050818160e0019073ffffffffffffffffffffffffffffffffffffffff16908173ffffffffffffffffffffffffffffffffffffffff1681525050858160200181815250508481604001819052508381600001818152505082816060018190525060016006540160068190555060008160a001906006811115611d0a57fe5b90816006811115611d1757fe5b81525050806005600088815260200190815260200160002060008201518160000155602082015181600101556040820151816002019080519060200190611d5f9291906126d0565b506060820151816003019080519060200190611d7c9291906126d0565b5060808201518160040160006101000a81548173ffffffffffffffffffffffffffffffffffffffff021916908373ffffffffffffffffffffffffffffffffffffffff16021790555060a08201518160040160146101000a81548160ff02191690836006811115611de857fe5b021790555060c08201518160050160006101000a81548173ffffffffffffffffffffffffffffffffffffffff021916908373ffffffffffffffffffffffffffffffffffffffff16021790555060e08201518160060160006101000a81548173ffffffffffffffffffffffffffffffffffffffff021916908373ffffffffffffffffffffffffffffffffffffffff1602179055506101008201518160070160006101000a81548173ffffffffffffffffffffffffffffffffffffffff021916908373ffffffffffffffffffffffffffffffffffffffff1602179055509050507fd29d8a68ca7c8c74be5579719d445aabfe230ed6e6a83aff475a663500eb7609866040518082815260200191505060405180910390a1505050505050565b60008073ffffffffffffffffffffffffffffffffffffffff168273ffffffffffffffffffffffffffffffffffffffff161415611fa9576040517f08c379a000000000000000000000000000000000000000000000000000000000815260040180806020018281038252601e8152602001807f416464726573732063616e6e6f74206265207a65726f2061646472657373000081525060200191505060405180910390fd5b8260000160008373ffffffffffffffffffffffffffffffffffffffff1673ffffffffffffffffffffffffffffffffffffffff16815260200190815260200160002060009054906101000a900460ff16905092915050565b61201481600361236090919063ffffffff16565b8073ffffffffffffffffffffffffffffffffffffffff167f187ea8b96b8ec4b770e46a85aa7421402f105827e5d2bb0705259f060c6043cb60405160405180910390a250565b61206e81600161236090919063ffffffff16565b8073ffffffffffffffffffffffffffffffffffffffff167f561138658ca49a8540dc70dcfe64c9026c1c5b9344642242dd6562970f9c127860405160405180910390a250565b6120c88160026124c190919063ffffffff16565b8073ffffffffffffffffffffffffffffffffffffffff167f126174f6cf49c81cdb4a9214c6b8f037bef55b4ec31e4fc776cea2a1c8a88d5960405160405180910390a250565b61212281600261236090919063ffffffff16565b8073ffffffffffffffffffffffffffffffffffffffff167fddbf200aa634dc3fb81cfd68583dd1040d1c751d335e1d86b631bde3e977fea860405160405180910390a250565b61217c8160036124c190919063ffffffff16565b8073ffffffffffffffffffffffffffffffffffffffff167fceb8b5081e60cbeafb2db1ed5f2ef32309a5ba1d0d74ac127be270181f297e5860405160405180910390a250565b6121d68160016124c190919063ffffffff16565b8073ffffffffffffffffffffffffffffffffffffffff167f2fed5abf6a80d6dfe30b4895481b2fc5d7dce5f8f7b931832f4a2947d5040c7f60405160405180910390a250565b600073ffffffffffffffffffffffffffffffffffffffff168173ffffffffffffffffffffffffffffffffffffffff1614156122a2576040517f08c379a000000000000000000000000000000000000000000000000000000000815260040180806020018281038252602181526020018061287a6021913960400191505060405180910390fd5b8073ffffffffffffffffffffffffffffffffffffffff166000809054906101000a900473ffffffffffffffffffffffffffffffffffffffff1673ffffffffffffffffffffffffffffffffffffffff167f5c486528ec3e3f0ea91181cff8116f02bfa350e03b8b6f12e00765adbb5af85c60405160405180910390a3806000806101000a81548173ffffffffffffffffffffffffffffffffffffffff021916908373ffffffffffffffffffffffffffffffffffffffff16021790555050565b600073ffffffffffffffffffffffffffffffffffffffff168173ffffffffffffffffffffffffffffffffffffffff161415612403576040517f08c379a000000000000000000000000000000000000000000000000000000000815260040180806020018281038252601e8152602001807f416464726573732063616e6e6f74206265207a65726f2061646472657373000081525060200191505060405180910390fd5b61240d8282611f05565b15612463576040517f08c379a00000000000000000000000000000000000000000000000000000000081526004018080602001828103825260228152602001806127e86022913960400191505060405180910390fd5b60018260000160008373ffffffffffffffffffffffffffffffffffffffff1673ffffffffffffffffffffffffffffffffffffffff16815260200190815260200160002060006101000a81548160ff0219169083151502179055505050565b600073ffffffffffffffffffffffffffffffffffffffff168173ffffffffffffffffffffffffffffffffffffffff161415612564576040517f08c379a000000000000000000000000000000000000000000000000000000000815260040180806020018281038252601e8152602001807f416464726573732063616e6e6f74206265207a65726f2061646472657373000081525060200191505060405180910390fd5b61256e8282611f05565b6125c3576040517f08c379a000000000000000000000000000000000000000000000000000000000815260040180806020018281038252602881526020018061290a6028913960400191505060405180910390fd5b60008260000160008373ffffffffffffffffffffffffffffffffffffffff1673ffffffffffffffffffffffffffffffffffffffff16815260200190815260200160002060006101000a81548160ff0219169083151502179055505050565b60405180610120016040528060008152602001600081526020016060815260200160608152602001600073ffffffffffffffffffffffffffffffffffffffff1681526020016000600681111561267357fe5b8152602001600073ffffffffffffffffffffffffffffffffffffffff168152602001600073ffffffffffffffffffffffffffffffffffffffff168152602001600073ffffffffffffffffffffffffffffffffffffffff1681525090565b828054600181600116156101000203166002900490600052602060002090601f016020900481019282601f1061271157805160ff191683800117855561273f565b8280016001018555821561273f579182015b8281111561273e578251825591602001919060010190612723565b5b50905061274c9190612750565b5090565b61277291905b8082111561276e576000816000905550600101612756565b5090565b9056fe54686973206163636f756e74206973206e6f7420746865206f776e6572206f662074686973206974656d546865204974656d206973206e6f7420696e20496e5472616e73697420737461746521546865204974656d206973206e6f7420696e204f72646572506c616365642073746174652154686973206164647265737320616c726561647920686173207468697320726f6c65546865204974656d206973206e6f7420696e20446973745265636965766564207374617465214f6e6c7920746865206f776e65722063616e20706572666f726d2074686973206f7065726174696f6e546865204974656d206973206e6f7420696e205368697070656420737461746521546865206e6577204f776e65722063616e6e6f742062652061646472657373203054686973206163636f756e7420686173206e6f204d616e75666163747572657220526f6c6554686973206163636f756e7420686173206e6f204469737472696275746f7220526f6c65546865204974656d206973206e6f7420696e204d616e7566616374757265642073746174652154686973206164647265737320646f6573206e6f742068617665207468697320726f6c6520796574546865204974656d206973206e6f7420696e2056656e646f72526563696576656420737461746521a265627a7a72315820a173b9c222e717074a7f250b91f56bb7261c2ca5c23f576e337aebd6a2ee93f164736f6c6343000510003254686973206164647265737320616c726561647920686173207468697320726f6c65",
  "source": "pragma solidity >=0.4.22 <0.9.0;\r\n\r\nimport \"./accessControl/DistributorRole.sol\";\r\nimport \"./accessControl/ManufacturerRole.sol\";\r\nimport \"./accessControl/VendorRole.sol\";\r\nimport \"./core/Ownable.sol\";\r\n\r\ncontract ProductTracking is\r\n    Ownable,\r\n    ManufacturerRole,\r\n    DistributorRole,\r\n    VendorRole\r\n{\r\n    struct Product {\r\n        uint256 sku;\r\n        uint256 productID;\r\n        string name;\r\n        string desc;\r\n        address payable ownerID;\r\n        State currentStatus;\r\n        address payable distributorID;\r\n        address payable manufacturerID;\r\n        address payable vendorID;\r\n    }\r\n\r\n    //TODO: Track the journey\r\n    mapping(uint256 => string[]) productsHistory;\r\n\r\n    mapping(uint256 => Product) public products;\r\n\r\n    uint256 public productsCount;\r\n\r\n    enum State {\r\n        Manufactured, // 0\r\n        OrderPlaced, // 1\r\n        Shipped, // 2\r\n        DistRecieved, // 3\r\n        InTransit, // 4\r\n        VendorRecieved, // 5\r\n        Purchased // 6\r\n    }\r\n\r\n    State constant defaultState = State.Manufactured;\r\n\r\n    // Define 7 events with the same 8 state values and accept 'upc' as input argument\r\n    event Manufactured(uint256 upc);\r\n    event OrderPlaced(uint256 upc);\r\n    event Shipped(uint256 upc);\r\n    event DistRecieved(uint256 upc);\r\n    event InTransit(uint256 upc);\r\n    event VendorRecieved(uint256 upc);\r\n    event Purchased(uint256 upc);\r\n\r\n    constructor() public {\r\n        //TODO\r\n    }\r\n\r\n\r\n    function getRole(address payable _address) public view returns (string memory) {\r\n        if (super.isManufacturer(_address)) {\r\n            return \"manufacturer\";\r\n        } else if (super.isVendor(_address)) {\r\n            return \"vendor\";\r\n        } else if (super.isDistributor(_address)) {\r\n            return \"distributor\";\r\n        }\r\n        return \"\";\r\n\r\n    }\r\n\r\n    modifier verifyCaller(address payable _address) {\r\n        require(\r\n            msg.sender == _address,\r\n            \"This account is not the owner of this item\"\r\n        );\r\n        _;\r\n    }\r\n\r\n    modifier manufactured(uint256 _upc) {\r\n        require(\r\n            products[_upc].currentStatus == State.Manufactured,\r\n            \"The Item is not in Manufactured state!\"\r\n        );\r\n        _;\r\n    }\r\n\r\n    modifier orderPlaced(uint256 _upc) {\r\n        require(\r\n            products[_upc].currentStatus == State.OrderPlaced,\r\n            \"The Item is not in OrderPlaced state!\"\r\n        );\r\n        _;\r\n    }\r\n\r\n    modifier shipped(uint256 _upc) {\r\n        require(\r\n            products[_upc].currentStatus == State.Shipped,\r\n            \"The Item is not in Shipped state!\"\r\n        );\r\n        _;\r\n    }\r\n\r\n    modifier distRecieved(uint256 _upc) {\r\n        require(\r\n            products[_upc].currentStatus == State.DistRecieved,\r\n            \"The Item is not in DistRecieved state!\"\r\n        );\r\n        _;\r\n    }\r\n\r\n    modifier inTransit(uint256 _upc) {\r\n        require(\r\n            products[_upc].currentStatus == State.InTransit,\r\n            \"The Item is not in InTransit state!\"\r\n        );\r\n        _;\r\n    }\r\n\r\n    modifier vendorRecieved(uint256 _upc) {\r\n        require(\r\n            products[_upc].currentStatus == State.VendorRecieved,\r\n            \"The Item is not in VendorRecieved state!\"\r\n        );\r\n        _;\r\n    }\r\n\r\n    modifier purchased(uint256 _upc) {\r\n        require(\r\n            products[_upc].currentStatus == State.Purchased,\r\n            \"The Item is not in Purchased state!\"\r\n        );\r\n        _;\r\n    }\r\n\r\n    function manufactureProduct(\r\n        uint256 _upc,\r\n        string memory name,\r\n        uint256 _sku,\r\n        string memory desc,\r\n        address payable _originManufacturerID\r\n    ) public onlyManufacturer {\r\n        Product memory newItem;\r\n        newItem.ownerID = _originManufacturerID;\r\n        newItem.manufacturerID = _originManufacturerID; //NEW ADDITION\r\n        newItem.productID = _upc;\r\n        newItem.name = name;\r\n        newItem.sku = _sku;\r\n        newItem.desc = desc;\r\n\r\n        productsCount = productsCount + 1;\r\n\r\n        newItem.currentStatus = defaultState;\r\n        products[_upc] = newItem;\r\n\r\n        emit Manufactured(_upc);\r\n    }\r\n\r\n    function placeOrder(uint256 _upc)\r\n        public\r\n//        onlyManufacturer\r\n        manufactured(_upc)\r\n//        verifyCaller(products[_upc].manufacturerID)\r\n    {\r\n        Product storage existingItem = products[_upc];\r\n        existingItem.currentStatus = State.OrderPlaced;\r\n        emit OrderPlaced(_upc);\r\n    }\r\n\r\n    function shipToDistributor(uint256 _upc, address payable distID)\r\n        public\r\n        onlyManufacturer\r\n        orderPlaced(_upc)\r\n        verifyCaller(products[_upc].manufacturerID)\r\n    {\r\n        Product storage existingItem = products[_upc];\r\n        existingItem.currentStatus = State.Shipped;\r\n\r\n        existingItem.distributorID = distID;\r\n        emit Shipped(_upc);\r\n    }\r\n\r\n    function recieveAsDistributor(uint256 _upc)\r\n        public\r\n        onlyDistributor\r\n        shipped(_upc)\r\n    {\r\n        Product storage existingItem = products[_upc];\r\n        existingItem.ownerID = msg.sender;\r\n        existingItem.currentStatus = State.DistRecieved;\r\n        emit DistRecieved(_upc);\r\n    }\r\n\r\n    function shipToVendor(uint256 _upc, address payable vendorId)\r\n    public onlyDistributor\r\n    distRecieved(_upc)\r\n    verifyCaller(products[_upc].distributorID)\r\n    {\r\n        Product storage existingItem = products[_upc];\r\n        existingItem.currentStatus = State.InTransit;\r\n        existingItem.vendorID = vendorId;\r\n        emit InTransit(_upc);\r\n    }\r\n\r\n    function recieveAsVendor(uint256 _upc) public onlyVendor inTransit(_upc) {\r\n        Product storage existingItem = products[_upc];\r\n        existingItem.ownerID = msg.sender;\r\n        existingItem.currentStatus = State.VendorRecieved;\r\n        emit VendorRecieved(_upc);\r\n    }\r\n\r\n    function sellProduct(uint256 _upc)\r\n        public\r\n        onlyVendor\r\n        vendorRecieved(_upc)\r\n        verifyCaller(products[_upc].vendorID)\r\n    {\r\n        Product storage existingItem = products[_upc];\r\n        existingItem.currentStatus = State.Purchased;\r\n        emit Purchased(_upc);\r\n    }\r\n    //IMPORTANT, can add 'address payable customerName' to parameters and then set owner id to that of customerName. I didn't do it, because I didn't find it important for the item's history.\r\n    //But we can easily add it in and make use of that. It is up to everyone to agree on\r\n    //Just know that without that, the owner role is practically useless\r\n\r\n    // function compareStrings (string memory a, string memory b) public view returns (bool) {\r\n    //     return (keccak256(abi.encodePacked((a))) == keccak256(abi.encodePacked((b))));\r\n    // }\r\n}\r\n",
  "sourcePath": "/mnt/c/asus-files/uci/quarter2/capstone/blockchain/react-blockchain/contracts/ProductTracking.sol",
  "compiler": {
    "name": "solc",
    "version": "0.5.16+commit.9c3226ce.Emscripten.clang"
  },
  "schemaVersion": "3.4.7",
  "updatedAt": "2022-05-24T22:28:39.515Z",
  "networkType": "ethereum",
  "devdoc": {
    "methods": {}
  },
  "userdoc": {
    "methods": {
      "isOwner()": {
        "notice": "Check if the calling address is the owner of the contract"
      },
      "owner()": {
        "notice": "Look up the address of the owner"
      },
      "renounceOwnership()": {
        "notice": "Define a function to renounce ownerhip"
      },
      "transferOwnership(address)": {
        "notice": "Define a public function to transfer ownership"
      }
    }
  }
}