{
  "contractName": "ProductTracking",
  "abi": [
    {
      "inputs": [],
      "payable": false,
      "stateMutability": "nonpayable",
      "type": "constructor"
    },
    {
      "anonymous": false,
      "inputs": [
        {
          "indexed": true,
          "internalType": "uint256",
          "name": "_productId",
          "type": "uint256"
        }
      ],
      "name": "votedEvent",
      "type": "event"
    },
    {
      "constant": true,
      "inputs": [
        {
          "internalType": "uint256",
          "name": "",
          "type": "uint256"
        }
      ],
      "name": "products",
      "outputs": [
        {
          "internalType": "uint256",
          "name": "id",
          "type": "uint256"
        },
        {
          "internalType": "string",
          "name": "name",
          "type": "string"
        },
        {
          "internalType": "string",
          "name": "currentStatus",
          "type": "string"
        }
      ],
      "payable": false,
      "stateMutability": "view",
      "type": "function"
    },
    {
      "constant": true,
      "inputs": [],
      "name": "productsCount",
      "outputs": [
        {
          "internalType": "uint256",
          "name": "",
          "type": "uint256"
        }
      ],
      "payable": false,
      "stateMutability": "view",
      "type": "function"
    },
    {
      "constant": true,
      "inputs": [
        {
          "internalType": "address",
          "name": "",
          "type": "address"
        }
      ],
      "name": "voters",
      "outputs": [
        {
          "internalType": "bool",
          "name": "",
          "type": "bool"
        }
      ],
      "payable": false,
      "stateMutability": "view",
      "type": "function"
    },
    {
      "constant": false,
      "inputs": [
        {
          "internalType": "uint256",
          "name": "_productId",
          "type": "uint256"
        }
      ],
      "name": "vote",
      "outputs": [],
      "payable": false,
      "stateMutability": "nonpayable",
      "type": "function"
    },
    {
      "constant": true,
      "inputs": [
        {
          "internalType": "string",
          "name": "a",
          "type": "string"
        },
        {
          "internalType": "string",
          "name": "b",
          "type": "string"
        }
      ],
      "name": "compareStrings",
      "outputs": [
        {
          "internalType": "bool",
          "name": "",
          "type": "bool"
        }
      ],
      "payable": false,
      "stateMutability": "view",
      "type": "function"
    }
  ],
  "bytecode": "0x60806040523480156200001157600080fd5b50620000586040518060400160405280600981526020017f50726f6475637420310000000000000000000000000000000000000000000000815250620001bc60201b60201c565b6200009e6040518060400160405280600981526020017f50726f6475637420320000000000000000000000000000000000000000000000815250620001bc60201b60201c565b620000e46040518060400160405280600981526020017f50726f6475637420330000000000000000000000000000000000000000000000815250620001bc60201b60201c565b6200012a6040518060400160405280600981526020017f50726f6475637420340000000000000000000000000000000000000000000000815250620001bc60201b60201c565b620001706040518060400160405280600981526020017f50726f6475637420350000000000000000000000000000000000000000000000815250620001bc60201b60201c565b620001b66040518060400160405280600981526020017f50726f6475637420360000000000000000000000000000000000000000000000815250620001bc60201b60201c565b62000332565b600260008154809291906001019190505550604051806060016040528060025481526020018281526020016040518060400160405280600c81526020017f494e2d57415245484f55534500000000000000000000000000000000000000008152508152506001600060025481526020019081526020016000206000820151816000015560208201518160010190805190602001906200025d92919062000283565b5060408201518160020190805190602001906200027c92919062000283565b5090505050565b828054600181600116156101000203166002900490600052602060002090601f016020900481019282601f10620002c657805160ff1916838001178555620002f7565b82800160010185558215620002f7579182015b82811115620002f6578251825591602001919060010190620002d9565b5b5090506200030691906200030a565b5090565b6200032f91905b808211156200032b57600081600090555060010162000311565b5090565b90565b610a1e80620003426000396000f3fe608060405234801561001057600080fd5b50600436106100575760003560e01c80630121b93f1461005c5780637acc0b201461008a578063a3ec138d146101a4578063bed34bba14610200578063e0df7bb61461036a575b600080fd5b6100886004803603602081101561007257600080fd5b8101908080359060200190929190505050610388565b005b6100b6600480360360208110156100a057600080fd5b81019080803590602001909291905050506106d5565b604051808481526020018060200180602001838103835285818151815260200191508051906020019080838360005b838110156101005780820151818401526020810190506100e5565b50505050905090810190601f16801561012d5780820380516001836020036101000a031916815260200191505b50838103825284818151815260200191508051906020019080838360005b8381101561016657808201518184015260208101905061014b565b50505050905090810190601f1680156101935780820380516001836020036101000a031916815260200191505b509550505050505060405180910390f35b6101e6600480360360208110156101ba57600080fd5b81019080803573ffffffffffffffffffffffffffffffffffffffff16906020019092919050505061082f565b604051808215151515815260200191505060405180910390f35b6103506004803603604081101561021657600080fd5b810190808035906020019064010000000081111561023357600080fd5b82018360208201111561024557600080fd5b8035906020019184600183028401116401000000008311171561026757600080fd5b91908080601f016020809104026020016040519081016040528093929190818152602001838380828437600081840152601f19601f820116905080830192505050505050509192919290803590602001906401000000008111156102ca57600080fd5b8201836020820111156102dc57600080fd5b803590602001918460018302840111640100000000831117156102fe57600080fd5b91908080601f016020809104026020016040519081016040528093929190818152602001838380828437600081840152601f19601f82011690508083019250505050505050919291929050505061084f565b604051808215151515815260200191505060405180910390f35b61037261093e565b6040518082815260200191505060405180910390f35b60008111801561039a57506002548111155b6103a357600080fd5b60016000803373ffffffffffffffffffffffffffffffffffffffff1673ffffffffffffffffffffffffffffffffffffffff16815260200190815260200160002060006101000a81548160ff0219169083151502179055506104e7600160008381526020019081526020016000206002018054600181600116156101000203166002900480601f0160208091040260200160405190810160405280929190818152602001828054600181600116156101000203166002900480156104a75780601f1061047c576101008083540402835291602001916104a7565b820191906000526020600020905b81548152906001019060200180831161048a57829003601f168201915b50505050506040518060400160405280600c81526020017f494e2d57415245484f555345000000000000000000000000000000000000000081525061084f565b15610551576040518060400160405280600a81526020017f494e2d5452414e5349540000000000000000000000000000000000000000000081525060016000838152602001908152602001600020600201908051906020019061054b929190610944565b506106a5565b61063e600160008381526020019081526020016000206002018054600181600116156101000203166002900480601f0160208091040260200160405190810160405280929190818152602001828054600181600116156101000203166002900480156105fe5780601f106105d3576101008083540402835291602001916105fe565b820191906000526020600020905b8154815290600101906020018083116105e157829003601f168201915b50505050506040518060400160405280600a81526020017f494e2d5452414e5349540000000000000000000000000000000000000000000081525061084f565b156106a4576040518060400160405280600a81526020017f44495350415443484544000000000000000000000000000000000000000000008152506001600083815260200190815260200160002060020190805190602001906106a2929190610944565b505b5b807ffff3c900d938d21d0990d786e819f29b8d05c1ef587b462b939609625b684b1660405160405180910390a250565b6001602052806000526040600020600091509050806000015490806001018054600181600116156101000203166002900480601f0160208091040260200160405190810160405280929190818152602001828054600181600116156101000203166002900480156107875780601f1061075c57610100808354040283529160200191610787565b820191906000526020600020905b81548152906001019060200180831161076a57829003601f168201915b505050505090806002018054600181600116156101000203166002900480601f0160208091040260200160405190810160405280929190818152602001828054600181600116156101000203166002900480156108255780601f106107fa57610100808354040283529160200191610825565b820191906000526020600020905b81548152906001019060200180831161080857829003601f168201915b5050505050905083565b60006020528060005260406000206000915054906101000a900460ff1681565b6000816040516020018082805190602001908083835b602083106108885780518252602082019150602081019050602083039250610865565b6001836020036101000a03801982511681845116808217855250505050505090500191505060405160208183030381529060405280519060200120836040516020018082805190602001908083835b602083106108fa57805182526020820191506020810190506020830392506108d7565b6001836020036101000a0380198251168184511680821785525050505050509050019150506040516020818303038152906040528051906020012014905092915050565b60025481565b828054600181600116156101000203166002900490600052602060002090601f016020900481019282601f1061098557805160ff19168380011785556109b3565b828001600101855582156109b3579182015b828111156109b2578251825591602001919060010190610997565b5b5090506109c091906109c4565b5090565b6109e691905b808211156109e25760008160009055506001016109ca565b5090565b9056fea265627a7a72315820090094b6ad53dbbcddcbedbd96293b92a5d0693bab2cd868bee4e2f6e621fc0564736f6c63430005100032",
  "source": "pragma solidity >=0.4.22 <0.9.0;\n\ncontract ProductTracking {\n    // Model a Product\n    struct Product {\n        uint id;\n        string name;\n        string currentStatus;\n    }\n\n    event votedEvent (\n        uint indexed _productId\n    );\n\n    // Store accounts that have voted\n    mapping(address => bool) public voters;\n    // Read/write products\n    mapping(uint => Product) public products;\n    // Store Products Count\n    uint public productsCount;\n\n    constructor() public {\n        addProduct(\"Product 1\");\n        addProduct(\"Product 2\");\n        addProduct(\"Product 3\");\n        addProduct(\"Product 4\");\n        addProduct(\"Product 5\");\n        addProduct(\"Product 6\");\n    }\n\n    function addProduct (string memory _name) private {\n        productsCount ++;\n        products[productsCount] = Product(productsCount, _name, \"IN-WAREHOUSE\");\n    }\n\n    function vote (uint _productId) public {\n    // require that they haven't voted before\n        // TODO: recheck how to handle this\n        //require(!voters[msg.sender]);\n\n        // require a valid product\n        require(_productId > 0 && _productId <= productsCount);\n\n        // record that product has been updated\n        voters[msg.sender] = true;\n\n        // update product status\n        if(compareStrings(products[_productId].currentStatus, \"IN-WAREHOUSE\")) {\n            products[_productId].currentStatus = 'IN-TRANSIT';\n        }else if(compareStrings(products[_productId].currentStatus, \"IN-TRANSIT\")) {\n            products[_productId].currentStatus = 'DISPATCHED';\n        }\n\n        // trigger update event\n        emit votedEvent(_productId);\n    }\n    \n    function compareStrings (string memory a, string memory b) public view returns (bool) {\n        return (keccak256(abi.encodePacked((a))) == keccak256(abi.encodePacked((b))));\n    }\n}",
  "sourcePath": "/Users/rthakkar/blockchain/testProject/contracts/ProductTracking.sol",
  "compiler": {
    "name": "solc",
    "version": "0.5.16+commit.9c3226ce.Emscripten.clang"
  },
  "schemaVersion": "3.4.7",
  "updatedAt": "2022-05-03T07:47:32.326Z",
  "networkType": "ethereum",
  "devdoc": {
    "methods": {}
  },
  "userdoc": {
    "methods": {}
  }
}