{
  "contractName": "Roles",
  "abi": [
    {
      "constant": true,
      "inputs": [],
      "name": "roleName",
      "outputs": [
        {
          "internalType": "string",
          "name": "",
          "type": "string"
        }
      ],
      "payable": false,
      "stateMutability": "view",
      "type": "function"
    },
    {
      "constant": true,
      "inputs": [],
      "name": "getRole",
      "outputs": [
        {
          "internalType": "string",
          "name": "",
          "type": "string"
        }
      ],
      "payable": false,
      "stateMutability": "view",
      "type": "function"
    },
    {
      "constant": false,
      "inputs": [
        {
          "internalType": "string",
          "name": "role",
          "type": "string"
        }
      ],
      "name": "setRole",
      "outputs": [],
      "payable": false,
      "stateMutability": "nonpayable",
      "type": "function"
    }
  ],
  "bytecode": "0x608060405234801561001057600080fd5b5061043b806100206000396000f3fe608060405234801561001057600080fd5b50600436106100415760003560e01c8063609f3993146100465780638e0cfbc2146100c9578063fde0817414610184575b600080fd5b61004e610207565b6040518080602001828103825283818151815260200191508051906020019080838360005b8381101561008e578082015181840152602081019050610073565b50505050905090810190601f1680156100bb5780820380516001836020036101000a031916815260200191505b509250505060405180910390f35b610182600480360360208110156100df57600080fd5b81019080803590602001906401000000008111156100fc57600080fd5b82018360208201111561010e57600080fd5b8035906020019184600183028401116401000000008311171561013057600080fd5b91908080601f016020809104026020016040519081016040528093929190818152602001838380828437600081840152601f19601f8201169050808301925050505050505091929192905050506102a5565b005b61018c6102bf565b6040518080602001828103825283818151815260200191508051906020019080838360005b838110156101cc5780820151818401526020810190506101b1565b50505050905090810190601f1680156101f95780820380516001836020036101000a031916815260200191505b509250505060405180910390f35b60018054600181600116156101000203166002900480601f01602080910402602001604051908101604052809291908181526020018280546001816001161561010002031660029004801561029d5780601f106102725761010080835404028352916020019161029d565b820191906000526020600020905b81548152906001019060200180831161028057829003601f168201915b505050505081565b80600190805190602001906102bb929190610361565b5050565b606060018054600181600116156101000203166002900480601f0160208091040260200160405190810160405280929190818152602001828054600181600116156101000203166002900480156103575780601f1061032c57610100808354040283529160200191610357565b820191906000526020600020905b81548152906001019060200180831161033a57829003601f168201915b5050505050905090565b828054600181600116156101000203166002900490600052602060002090601f016020900481019282601f106103a257805160ff19168380011785556103d0565b828001600101855582156103d0579182015b828111156103cf5782518255916020019190600101906103b4565b5b5090506103dd91906103e1565b5090565b61040391905b808211156103ff5760008160009055506001016103e7565b5090565b9056fea265627a7a72315820b24562601f64bc00238136526567a281b9252cd0c1b888d098f3c5378322354464736f6c63430005100032",
  "source": "pragma solidity >=0.4.22 <0.9.0;\n\n/**\n * @title Roles\n * @dev Library for managing addresses assigned to a Role.\n */\ncontract Roles {\n    mapping (address => bool) bearer;\n    string public roleName;\n    /**\n     * @dev give an account access to this role\n   */\n    function add(address account) internal {\n        require(account != address(0), \"Address cannot be zero address\");\n        require(!has(account), \"This address already has this role\");\n        bearer[account] = true;\n    }\n\n    function getRole() public view returns (string memory) {\n        return roleName;\n    }\n\n    function setRole(string memory role) public {\n        roleName = role;\n    }\n\n    /**\n     * @dev remove an account's access to this role\n   */\n    function remove(address account) internal {\n        require(account != address(0), \"Address cannot be zero address\");\n        require(has(account), \"This address does not have this role yet\");\n        bearer[account] = false;\n    }\n\n    /**\n     * @dev check if an account has this role\n   * @return bool\n   */\n    function has(address account)\n    internal\n    view\n    returns (bool)\n    {\n        require(account != address(0), \"Address cannot be zero address\");\n        return bearer[account];\n    }\n}",
  "sourcePath": "/mnt/c/asus-files/uci/quarter2/capstone/blockchain/react-blockchain/contracts/accessControl/Roles.sol",
  "compiler": {
    "name": "solc",
    "version": "0.5.16+commit.9c3226ce.Emscripten.clang"
  },
  "schemaVersion": "3.4.7",
  "updatedAt": "2022-05-15T04:20:06.344Z",
  "devdoc": {
    "details": "Library for managing addresses assigned to a Role.",
    "methods": {},
    "title": "Roles"
  },
  "userdoc": {
    "methods": {}
  }
}