{
  "contractName": "VendorRole",
  "abi": [
    {
      "inputs": [],
      "stateMutability": "nonpayable",
      "type": "constructor"
    },
    {
      "anonymous": false,
      "inputs": [
        {
          "indexed": true,
          "internalType": "address",
          "name": "account",
          "type": "address"
        }
      ],
      "name": "VendorAdded",
      "type": "event"
    },
    {
      "anonymous": false,
      "inputs": [
        {
          "indexed": true,
          "internalType": "address",
          "name": "account",
          "type": "address"
        }
      ],
      "name": "VendorRemoved",
      "type": "event"
    },
    {
      "inputs": [
        {
          "internalType": "string",
          "name": "name",
          "type": "string"
        }
      ],
      "name": "getVendorId",
      "outputs": [
        {
          "internalType": "address",
          "name": "",
          "type": "address"
        }
      ],
      "stateMutability": "view",
      "type": "function"
    },
    {
      "inputs": [
        {
          "internalType": "address",
          "name": "account",
          "type": "address"
        }
      ],
      "name": "isVendor",
      "outputs": [
        {
          "internalType": "bool",
          "name": "",
          "type": "bool"
        }
      ],
      "stateMutability": "view",
      "type": "function"
    },
    {
      "inputs": [
        {
          "internalType": "string",
          "name": "userName",
          "type": "string"
        }
      ],
      "name": "isVendorViaName",
      "outputs": [
        {
          "internalType": "bool",
          "name": "",
          "type": "bool"
        }
      ],
      "stateMutability": "view",
      "type": "function"
    },
    {
      "inputs": [
        {
          "internalType": "address",
          "name": "account",
          "type": "address"
        },
        {
          "internalType": "string",
          "name": "name",
          "type": "string"
        },
        {
          "internalType": "string",
          "name": "password",
          "type": "string"
        }
      ],
      "name": "addVendor",
      "outputs": [],
      "stateMutability": "nonpayable",
      "type": "function"
    },
    {
      "inputs": [],
      "name": "renounceVendor",
      "outputs": [],
      "stateMutability": "nonpayable",
      "type": "function"
    },
    {
      "inputs": [
        {
          "internalType": "string",
          "name": "userName",
          "type": "string"
        },
        {
          "internalType": "string",
          "name": "password",
          "type": "string"
        }
      ],
      "name": "loginVendor",
      "outputs": [
        {
          "internalType": "address",
          "name": "",
          "type": "address"
        }
      ],
      "stateMutability": "view",
      "type": "function"
    }
  ],
  "bytecode": "0x608060405234801561001057600080fd5b5061118a806100206000396000f3fe608060405234801561001057600080fd5b50600436106100625760003560e01c806376ba15ad146100675780638a77a69714610071578063990a0deb14610203578063a8173a1d146102d6578063b32caa1d146103d1578063ee54d54f14610543575b600080fd5b61006f61059f565b005b6101c16004803603604081101561008757600080fd5b81019080803590602001906401000000008111156100a457600080fd5b8201836020820111156100b657600080fd5b803590602001918460018302840111640100000000831117156100d857600080fd5b91908080601f016020809104026020016040519081016040528093929190818152602001838380828437600081840152601f19601f8201169050808301925050505050505091929192908035906020019064010000000081111561013b57600080fd5b82018360208201111561014d57600080fd5b8035906020019184600183028401116401000000008311171561016f57600080fd5b91908080601f016020809104026020016040519081016040528093929190818152602001838380828437600081840152601f19601f8201169050808301925050505050505091929192905050506105aa565b604051808273ffffffffffffffffffffffffffffffffffffffff1673ffffffffffffffffffffffffffffffffffffffff16815260200191505060405180910390f35b6102bc6004803603602081101561021957600080fd5b810190808035906020019064010000000081111561023657600080fd5b82018360208201111561024857600080fd5b8035906020019184600183028401116401000000008311171561026a57600080fd5b91908080601f016020809104026020016040519081016040528093929190818152602001838380828437600081840152601f19601f8201169050808301925050505050505091929192905050506105ca565b604051808215151515815260200191505060405180910390f35b61038f600480360360208110156102ec57600080fd5b810190808035906020019064010000000081111561030957600080fd5b82018360208201111561031b57600080fd5b8035906020019184600183028401116401000000008311171561033d57600080fd5b91908080601f016020809104026020016040519081016040528093929190818152602001838380828437600081840152601f19601f820116905080830192505050505050509192919290505050610657565b604051808273ffffffffffffffffffffffffffffffffffffffff1673ffffffffffffffffffffffffffffffffffffffff16815260200191505060405180910390f35b610541600480360360608110156103e757600080fd5b81019080803573ffffffffffffffffffffffffffffffffffffffff1690602001909291908035906020019064010000000081111561042457600080fd5b82018360208201111561043657600080fd5b8035906020019184600183028401116401000000008311171561045857600080fd5b91908080601f016020809104026020016040519081016040528093929190818152602001838380828437600081840152601f19601f820116905080830192505050505050509192919290803590602001906401000000008111156104bb57600080fd5b8201836020820111156104cd57600080fd5b803590602001918460018302840111640100000000831117156104ef57600080fd5b91908080601f016020809104026020016040519081016040528093929190818152602001838380828437600081840152601f19601f8201169050808301925050505050505091929192905050506106ef565b005b6105856004803603602081101561055957600080fd5b81019080803573ffffffffffffffffffffffffffffffffffffffff1690602001909291905050506106ff565b604051808215151515815260200191505060405180910390f35b6105a83361071c565b565b60006105c2838360006107769092919063ffffffff16565b905092915050565b6000600115156000600101836040518082805190602001908083835b6020831061060957805182526020820191506020810190506020830392506105e6565b6001836020036101000a038019825116818451168082178552505050505050905001915050908152602001604051809103902060010160149054906101000a900460ff161515149050919050565b600080600101826040518082805190602001908083835b60208310610691578051825260208201915060208101905060208303925061066e565b6001836020036101000a038019825116818451168082178552505050505050905001915050908152602001604051809103902060010160009054906101000a900473ffffffffffffffffffffffffffffffffffffffff169050919050565b6106fa838383610a90565b505050565b6000610715826000610af090919063ffffffff16565b9050919050565b610730816000610beb90919063ffffffff16565b8073ffffffffffffffffffffffffffffffffffffffff167fceb8b5081e60cbeafb2db1ed5f2ef32309a5ba1d0d74ac127be270181f297e5860405160405180910390a250565b60006001151584600101846040518082805190602001908083835b602083106107b45780518252602082019150602081019050602083039250610791565b6001836020036101000a038019825116818451168082178552505050505050905001915050908152602001604051809103902060010160149054906101000a900460ff1615151480156109e9575073__StringUtils___________________________6346bdca9a85600101856040518082805190602001908083835b602083106108545780518252602082019150602081019050602083039250610831565b6001836020036101000a0380198251168184511680821785525050505050509050019150509081526020016040518091039020600001846040518363ffffffff1660e01b81526004018080602001806020018381038352858181546001816001161561010002031660029004815260200191508054600181600116156101000203166002900480156109275780601f106108fc57610100808354040283529160200191610927565b820191906000526020600020905b81548152906001019060200180831161090a57829003601f168201915b5050838103825284818151815260200191508051906020019080838360005b83811015610961578082015181840152602081019050610946565b50505050905090810190601f16801561098e5780820380516001836020036101000a031916815260200191505b5094505050505060206040518083038186803b1580156109ad57600080fd5b505af41580156109c1573d6000803e3d6000fd5b505050506040513d60208110156109d757600080fd5b81019080805190602001909291905050505b15610a845783600101836040518082805190602001908083835b60208310610a265780518252602082019150602081019050602083039250610a03565b6001836020036101000a038019825116818451168082178552505050505050905001915050908152602001604051809103902060010160009054906101000a900473ffffffffffffffffffffffffffffffffffffffff169050610a89565b600090505b9392505050565b610aa88383836000610d4b909392919063ffffffff16565b8273ffffffffffffffffffffffffffffffffffffffff167f187ea8b96b8ec4b770e46a85aa7421402f105827e5d2bb0705259f060c6043cb60405160405180910390a2505050565b60008073ffffffffffffffffffffffffffffffffffffffff168273ffffffffffffffffffffffffffffffffffffffff161415610b94576040517f08c379a000000000000000000000000000000000000000000000000000000000815260040180806020018281038252601e8152602001807f416464726573732063616e6e6f74206265207a65726f2061646472657373000081525060200191505060405180910390fd5b8260000160008373ffffffffffffffffffffffffffffffffffffffff1673ffffffffffffffffffffffffffffffffffffffff16815260200190815260200160002060009054906101000a900460ff16905092915050565b600073ffffffffffffffffffffffffffffffffffffffff168173ffffffffffffffffffffffffffffffffffffffff161415610c8e576040517f08c379a000000000000000000000000000000000000000000000000000000000815260040180806020018281038252601e8152602001807f416464726573732063616e6e6f74206265207a65726f2061646472657373000081525060200191505060405180910390fd5b610c988282610af0565b610ced576040517f08c379a000000000000000000000000000000000000000000000000000000000815260040180806020018281038252602881526020018061112d6028913960400191505060405180910390fd5b60008260000160008373ffffffffffffffffffffffffffffffffffffffff1673ffffffffffffffffffffffffffffffffffffffff16815260200190815260200160002060006101000a81548160ff0219169083151502179055505050565b600073ffffffffffffffffffffffffffffffffffffffff168373ffffffffffffffffffffffffffffffffffffffff161415610dee576040517f08c379a000000000000000000000000000000000000000000000000000000000815260040180806020018281038252601e8152602001807f416464726573732063616e6e6f74206265207a65726f2061646472657373000081525060200191505060405180910390fd5b610df88484610af0565b15610e4e576040517f08c379a000000000000000000000000000000000000000000000000000000000815260040180806020018281038252602281526020018061110b6022913960400191505060405180910390fd5b60018460000160008573ffffffffffffffffffffffffffffffffffffffff1673ffffffffffffffffffffffffffffffffffffffff16815260200190815260200160002060006101000a81548160ff0219169083151502179055508284600101836040518082805190602001908083835b60208310610ee15780518252602082019150602081019050602083039250610ebe565b6001836020036101000a038019825116818451168082178552505050505050905001915050908152602001604051809103902060010160006101000a81548173ffffffffffffffffffffffffffffffffffffffff021916908373ffffffffffffffffffffffffffffffffffffffff1602179055508084600101836040518082805190602001908083835b60208310610f8e5780518252602082019150602081019050602083039250610f6b565b6001836020036101000a03801982511681845116808217855250505050505090500191505090815260200160405180910390206000019080519060200190610fd7929190611065565b50600184600101836040518082805190602001908083835b602083106110125780518252602082019150602081019050602083039250610fef565b6001836020036101000a038019825116818451168082178552505050505050905001915050908152602001604051809103902060010160146101000a81548160ff02191690831515021790555050505050565b828054600181600116156101000203166002900490600052602060002090601f016020900481019282601f106110a657805160ff19168380011785556110d4565b828001600101855582156110d4579182015b828111156110d35782518255916020019190600101906110b8565b5b5090506110e191906110e5565b5090565b61110791905b808211156111035760008160009055506001016110eb565b5090565b9056fe54686973206164647265737320616c726561647920686173207468697320726f6c6554686973206164647265737320646f6573206e6f742068617665207468697320726f6c6520796574a2646970667358221220915be2216b21f62864d1b15144c533a7b15914581c529d1a028286bed876dd7e64736f6c63430006000033",
  "source": "pragma solidity >=0.4.22 <0.9.0;\n\nimport \"./Roles.sol\";\n\ncontract VendorRole {\n\n    using Roles for Roles.Role;\n\n    event VendorAdded(address indexed account);\n    event VendorRemoved(address indexed account);\n\n    Roles.Role private vendors;\n\n    constructor() public {\n        //    _addVendor(msg.sender);\n    }\n\n    modifier onlyVendor() {\n        require(vendors.has(msg.sender), \"This account has no Vendor Role\");\n        _;\n    }\n\n    function getVendorId(string memory name) public view returns (address) {\n        return vendors.nameToAccountAndPasswordMapping[name].id;\n    }\n\n    function isVendor(address account) public view returns (bool) {\n        return vendors.has(account);\n    }\n\n    function isVendorViaName(string memory userName) public view returns (bool) {\n        return vendors.nameToAccountAndPasswordMapping[userName].isUserVerified == true;\n    }\n\n    function addVendor(address account, string memory name, string memory password) public {\n        _addVendor(account, name, password);\n    }\n\n    function renounceVendor() public {\n        _removeVendor(msg.sender);\n    }\n\n    function _addVendor(address account, string memory name, string memory password) internal {\n        vendors.add(account, name, password);\n        emit VendorAdded(account);\n    }\n\n    function loginVendor(string memory userName, string memory password) public view returns (address){\n        return vendors.login(userName, password);\n    }\n\n    function _removeVendor(address account) internal {\n        vendors.remove(account);\n        emit VendorRemoved(account);\n    }\n}",
  "sourcePath": "/mnt/c/asus-files/uci/quarter2/capstone/blockchain/react-blockchain/contracts/accessControl/VendorRole.sol",
  "compiler": {
    "name": "solc",
    "version": "0.6.0+commit.26b70077.Emscripten.clang"
  },
  "schemaVersion": "3.4.7",
  "updatedAt": "2022-06-09T01:47:42.994Z",
  "devdoc": {
    "methods": {}
  },
  "userdoc": {
    "methods": {}
  }
}