{
  "contractName": "VendorRole",
  "abi": [
    {
      "inputs": [],
      "payable": false,
      "stateMutability": "nonpayable",
      "type": "constructor"
    },
    {
      "anonymous": false,
      "inputs": [
        {
          "indexed": true,
          "internalType": "address",
          "name": "account",
          "type": "address"
        }
      ],
      "name": "VendorAdded",
      "type": "event"
    },
    {
      "anonymous": false,
      "inputs": [
        {
          "indexed": true,
          "internalType": "address",
          "name": "account",
          "type": "address"
        }
      ],
      "name": "VendorRemoved",
      "type": "event"
    },
    {
      "constant": true,
      "inputs": [],
      "name": "getRole",
      "outputs": [
        {
          "internalType": "string",
          "name": "",
          "type": "string"
        }
      ],
      "payable": false,
      "stateMutability": "view",
      "type": "function"
    },
    {
      "constant": true,
      "inputs": [],
      "name": "roleName",
      "outputs": [
        {
          "internalType": "string",
          "name": "",
          "type": "string"
        }
      ],
      "payable": false,
      "stateMutability": "view",
      "type": "function"
    },
    {
      "constant": false,
      "inputs": [
        {
          "internalType": "string",
          "name": "role",
          "type": "string"
        }
      ],
      "name": "setRole",
      "outputs": [],
      "payable": false,
      "stateMutability": "nonpayable",
      "type": "function"
    },
    {
      "constant": true,
      "inputs": [
        {
          "internalType": "address",
          "name": "account",
          "type": "address"
        }
      ],
      "name": "isVendor",
      "outputs": [
        {
          "internalType": "bool",
          "name": "",
          "type": "bool"
        }
      ],
      "payable": false,
      "stateMutability": "view",
      "type": "function"
    },
    {
      "constant": false,
      "inputs": [
        {
          "internalType": "address",
          "name": "account",
          "type": "address"
        }
      ],
      "name": "addVendor",
      "outputs": [],
      "payable": false,
      "stateMutability": "nonpayable",
      "type": "function"
    },
    {
      "constant": false,
      "inputs": [],
      "name": "renounceVendor",
      "outputs": [],
      "payable": false,
      "stateMutability": "nonpayable",
      "type": "function"
    }
  ],
  "bytecode": "0x608060405234801561001057600080fd5b506100596040518060400160405280600681526020017f76656e646f72000000000000000000000000000000000000000000000000000081525061005e60201b6104021760201c565b61011d565b8060019080519060200190610074929190610078565b5050565b828054600181600116156101000203166002900490600052602060002090601f016020900481019282601f106100b957805160ff19168380011785556100e7565b828001600101855582156100e7579182015b828111156100e65782518255916020019190600101906100cb565b5b5090506100f491906100f8565b5090565b61011a91905b808211156101165760008160009055506001016100fe565b5090565b90565b610a408061012c6000396000f3fe608060405234801561001057600080fd5b50600436106100625760003560e01c806345e0f75314610067578063609f3993146100ab57806376ba15ad1461012e5780638e0cfbc214610138578063ee54d54f146101f3578063fde081741461024f575b600080fd5b6100a96004803603602081101561007d57600080fd5b81019080803573ffffffffffffffffffffffffffffffffffffffff1690602001909291905050506102d2565b005b6100b3610359565b6040518080602001828103825283818151815260200191508051906020019080838360005b838110156100f35780820151818401526020810190506100d8565b50505050905090810190601f1680156101205780820380516001836020036101000a031916815260200191505b509250505060405180910390f35b6101366103f7565b005b6101f16004803603602081101561014e57600080fd5b810190808035906020019064010000000081111561016b57600080fd5b82018360208201111561017d57600080fd5b8035906020019184600183028401116401000000008311171561019f57600080fd5b91908080601f016020809104026020016040519081016040528093929190818152602001838380828437600081840152601f19601f820116905080830192505050505050509192919290505050610402565b005b6102356004803603602081101561020957600080fd5b81019080803573ffffffffffffffffffffffffffffffffffffffff16906020019092919050505061041c565b604051808215151515815260200191505060405180910390f35b61025761042e565b6040518080602001828103825283818151815260200191508051906020019080838360005b8381101561029757808201518184015260208101905061027c565b50505050905090810190601f1680156102c45780820380516001836020036101000a031916815260200191505b509250505060405180910390f35b6102db336104d0565b61034d576040517f08c379a000000000000000000000000000000000000000000000000000000000815260040180806020018281038252601f8152602001807f54686973206163636f756e7420686173206e6f2056656e646f7220526f6c650081525060200191505060405180910390fd5b610356816105c7565b50565b60018054600181600116156101000203166002900480601f0160208091040260200160405190810160405280929190818152602001828054600181600116156101000203166002900480156103ef5780601f106103c4576101008083540402835291602001916103ef565b820191906000526020600020905b8154815290600101906020018083116103d257829003601f168201915b505050505081565b61040033610616565b565b806001908051906020019061041892919061091c565b5050565b6000610427826104d0565b9050919050565b606060018054600181600116156101000203166002900480601f0160208091040260200160405190810160405280929190818152602001828054600181600116156101000203166002900480156104c65780601f1061049b576101008083540402835291602001916104c6565b820191906000526020600020905b8154815290600101906020018083116104a957829003601f168201915b5050505050905090565b60008073ffffffffffffffffffffffffffffffffffffffff168273ffffffffffffffffffffffffffffffffffffffff161415610574576040517f08c379a000000000000000000000000000000000000000000000000000000000815260040180806020018281038252601e8152602001807f416464726573732063616e6e6f74206265207a65726f2061646472657373000081525060200191505060405180910390fd5b6000808373ffffffffffffffffffffffffffffffffffffffff1673ffffffffffffffffffffffffffffffffffffffff16815260200190815260200160002060009054906101000a900460ff169050919050565b6105d081610665565b8073ffffffffffffffffffffffffffffffffffffffff167f187ea8b96b8ec4b770e46a85aa7421402f105827e5d2bb0705259f060c6043cb60405160405180910390a250565b61061f816107c1565b8073ffffffffffffffffffffffffffffffffffffffff167fceb8b5081e60cbeafb2db1ed5f2ef32309a5ba1d0d74ac127be270181f297e5860405160405180910390a250565b600073ffffffffffffffffffffffffffffffffffffffff168173ffffffffffffffffffffffffffffffffffffffff161415610708576040517f08c379a000000000000000000000000000000000000000000000000000000000815260040180806020018281038252601e8152602001807f416464726573732063616e6e6f74206265207a65726f2061646472657373000081525060200191505060405180910390fd5b610711816104d0565b15610767576040517f08c379a00000000000000000000000000000000000000000000000000000000081526004018080602001828103825260228152602001806109c26022913960400191505060405180910390fd5b60016000808373ffffffffffffffffffffffffffffffffffffffff1673ffffffffffffffffffffffffffffffffffffffff16815260200190815260200160002060006101000a81548160ff02191690831515021790555050565b600073ffffffffffffffffffffffffffffffffffffffff168173ffffffffffffffffffffffffffffffffffffffff161415610864576040517f08c379a000000000000000000000000000000000000000000000000000000000815260040180806020018281038252601e8152602001807f416464726573732063616e6e6f74206265207a65726f2061646472657373000081525060200191505060405180910390fd5b61086d816104d0565b6108c2576040517f08c379a00000000000000000000000000000000000000000000000000000000081526004018080602001828103825260288152602001806109e46028913960400191505060405180910390fd5b60008060008373ffffffffffffffffffffffffffffffffffffffff1673ffffffffffffffffffffffffffffffffffffffff16815260200190815260200160002060006101000a81548160ff02191690831515021790555050565b828054600181600116156101000203166002900490600052602060002090601f016020900481019282601f1061095d57805160ff191683800117855561098b565b8280016001018555821561098b579182015b8281111561098a57825182559160200191906001019061096f565b5b509050610998919061099c565b5090565b6109be91905b808211156109ba5760008160009055506001016109a2565b5090565b9056fe54686973206164647265737320616c726561647920686173207468697320726f6c6554686973206164647265737320646f6573206e6f742068617665207468697320726f6c6520796574a265627a7a72315820dfbb034d68877d8413a1026ee09644041e7c5ec0fca2283ab91cb6487d58fff264736f6c63430005100032",
  "source": "pragma solidity >=0.4.22 <0.9.0;\n\n// Import the library 'Roles'\nimport \"./Roles.sol\";\n\n// Define a contract 'VendorRole' to manage this role - add, remove, check\ncontract VendorRole is Roles {\n\n    constructor() public {\n        super.setRole(\"vendor\");\n//        _addVendor(msg.sender);\n\n    }\n\n    // Define 2 events, one for Adding, and other for Removing\n    event VendorAdded(address indexed account);\n    event VendorRemoved(address indexed account);\n\n    // Define a struct 'Vendors' by inheriting from 'Roles' library, struct Role\n\n\n\n    // Define a modifier that checks to see if msg.sender has the appropriate role\n    modifier onlyVendor() {\n        require(super.has(msg.sender), \"This account has no Vendor Role\");\n        _;\n    }\n\n    // Define a function 'isVendor' to check this role\n    function isVendor(address account) public view returns (bool) {\n        return super.has(account);\n    }\n\n    // Define a function 'addVendor' that adds this role\n    function addVendor(address account) public onlyVendor {\n        _addVendor(account);\n    }\n\n    // Define a function 'renounceVendor' to renounce this role\n    function renounceVendor() public {\n        _removeVendor(msg.sender);\n    }\n\n    // Define an internal function '_addVendor' to add this role, called by 'addVendor'\n    function _addVendor(address account) internal {\n        super.add(account);\n        emit VendorAdded(account);\n    }\n\n    // Define an internal function '_removeVendor' to remove this role, called by 'removeVendor'\n    function _removeVendor(address account) internal {\n        super.remove(account);\n        emit VendorRemoved(account);\n    }\n}",
  "sourcePath": "/mnt/c/asus-files/uci/quarter2/capstone/blockchain/react-blockchain/contracts/accessControl/VendorRole.sol",
  "compiler": {
    "name": "solc",
    "version": "0.5.16+commit.9c3226ce.Emscripten.clang"
  },
  "schemaVersion": "3.4.7",
  "updatedAt": "2022-05-15T04:20:06.350Z",
  "devdoc": {
    "methods": {}
  },
  "userdoc": {
    "methods": {}
  }
}